:100000000C9428020C9445020C9445020C94450271
:100010000C9445020C9445020C9445020C94450244
:100020000C9445020C9445020C9445020C94450234
:100030000C9445020C9445020C9445020C94450224
:100040000C9445020C9445020C9445020C94450214
:100050000C9445020C9445020C9445020C94450204
:100060000C9445020C9445020C9445020C944502F4
:10007000640251023C022F021B020302E901D30178
:10008000BF01BA01B501B001AB0196017F01750155
:100090005D01430133011F011001FF00F300E50082
:1000A000D700C000B800AE00AD00AC0000002D20AD
:1000B00053532068696768002D20536C6176650092
:1000C0002745787465726E616C2720535049206310
:1000D0006F6E6669673A002D20322053746F70206E
:1000E00062697473002D2038204461746120626954
:1000F0007473002D20426175642039363030002D34
:10010000204C6F6F70206261636B206D6F646500BF
:1001100052532D32333220636F6E6669673A005353
:1001200052414D20746573742066696E6973686509
:10013000643A0054657374696E67205352414D2EC2
:100140002E2E004D6F7665206A6F79207269676880
:100150007420746F20636F6E6669726D004E422169
:1001600020616C6C20646174612069732064656C2B
:1001700065746564005352414D2074657374004585
:100180007869742077697468206C656674202B2008
:100190007269676874004A6F79202020204C656678
:1001A000742020202052696774680043482033007F
:1001B000436820320043682031004368203000301B
:1001C000202020202056616C7565202020202032C0
:1001D0003535004D6F7665206A6F79206C656674E1
:1001E00020746F2065786974004D6F7665206A6FA2
:1001F0007920646F776E20746F2064656372656127
:100200007365004D6F7665206A6F79207570207474
:100210006F20696E6372656173650041646A75730E
:1002200074204A6F79204465616462616E640044A1
:100230004F204E4F5420544F5543480043616C6942
:1002400062726174696E67204A6F79737469636B57
:1002500000486967682073636F726520636C65612D
:10026000726564005072696E7420686967682073F3
:10027000636F726500000000000000005F00000076
:1002800007000700147F147F14242A7F2A122313E7
:1002900008646236495522500005030000001C2204
:1002A00041000041221C00082A1C2A0808083E08B8
:1002B00008005030000008080808080060600000CE
:1002C00020100804023E5149453E00427F40004252
:1002D000615149462141454B311814127F10274581
:1002E0004545393C4A4949300171090503364949B8
:1002F0004936064949291E003636000000563600A8
:10030000000008142241141414141441221408008B
:100310000201510906324979413E7E1111117E7F59
:10032000494949363E414141227F4141221C7F4992
:100330004949417F090901013E414151327F080885
:10034000087F00417F41002040413F017F08142287
:10035000417F404040407F0204027F7F0408107FBD
:100360003E4141413E7F090909063E4151215E7FE0
:1003700009192946464949493101017F01013F4098
:1003800040403F1F2040201F7F2018207F6314081B
:1003900014630304780403615149454300007F411D
:1003A00041020408102041417F00000402010204C0
:1003B0004040404040000102040020545454787FE3
:1003C000484444383844444420384444487F3854EE
:1003D000545418087E090102081454543C7F080440
:1003E000047800447D40002040443D00007F1028F8
:1003F0004400417F40007C041804787C08040478A1
:1004000038444444387C14141408081414187C7CB0
:10041000080404084854545420043F4440203C40FD
:1004200040207C1C2040201C3C4030403C44281094
:1004300028440C5050503C4464544C44000836410D
:100440000000007F000000413608000201030201A5
:1004500011241FBECFEFD4E0DEBFCDBF12E0A0E07D
:10046000B1E0E6E7F4E202C005900D92A83EB107C4
:10047000D9F723E0A8EEB2E001C01D92AC31B2077B
:10048000E1F70E9484090C9439120C940000B89A88
:1004900083B7886083BF83B7806183BF83B7816080
:1004A00083BF8AEA8093EA028093ED028CE3809313
:1004B000EC020895CF93DF93CDB7DEB728970FB640
:1004C000F894DEBF0FBECDBFE0E0F4E110824081C2
:1004D00020816081808130E03A83298350E05C8311
:1004E0004B8370E07E836D8390E098878F833A81A1
:1004F0005C817E81988528960FB6F894DEBF0FBE8A
:10050000CDBFDF91CF9108958F929F92AF92BF920E
:10051000CF92DF92EF92FF920F931F93CF93DF93CF
:10052000CDB7DEB728970FB6F894DEBF0FBECDBFAC
:100530000E945A020AE010E00E945A0229833A837C
:100540004B835C8369817A8180E090E00E94630C38
:100550009B01AC01C501B4010E94560B4B015C012B
:100560006B817C8180E090E00E94630C9B01AC0178
:10057000C701B6010E94560B6B017C0101501109A5
:10058000D9F620E030E040E251E4C501B4010E9418
:10059000C20B0E94340C6093EA0220E030E040E29B
:1005A00051E4C701B6010E94C20B0E94340C609353
:1005B000ED0228960FB6F894DEBF0FBECDBFDF91D7
:1005C000CF911F910F91FF90EF90DF90CF90BF9050
:1005D000AF909F908F900895CF93DF93CDB7DEB704
:1005E00028970FB6F894DEBF0FBECDBF0E945A0207
:1005F00029833A834B835C832091ED028B819C811C
:10060000821B91092091EC0230E0AC01992324F483
:1006100044275527481B590B2417350734F4892FD5
:10062000881F8827881F8E5F16C04091EA02898143
:100630009A81841B9109AC0122F444275527481B59
:10064000590B2417350734F4892F8095881F882784
:10065000881F01C084E028960FB6F894DEBF0FBE55
:10066000CDBFDF91CF910895CF930E94EC02C82FA8
:100670002FEF8FE791E0215080409040E1F700C0DC
:1006800000C00E94EC02C81384E0CF910895CF937C
:10069000C82F0E94A70A83E00E949E0A8C2F0E9406
:1006A0009E0A0E94A20AC82F0E94A90A8C2FCF91ED
:1006B0000895CF93DF93D82FC62F0E94A70A82E018
:1006C0000E949E0A8D2F0E949E0A8C2F0E949E0AD5
:1006D0000E94A90ADF91CF9108951F93CF93DF93D2
:1006E000182FD62FC42F0E94A70A85E00E949E0AC9
:1006F000812F0E949E0A8D2F0E949E0A8C2F0E949D
:100700009E0A0E94A90ADF91CF911F910895CF936D
:10071000C82F0E94A70A8C2F0E949E0A0E94A90A35
:10072000CF9108950E94A70A80EC0E949E0A0E9421
:10073000A90A08950E9492038FEF9FE20197F1F7B3
:1007400000C000008EE00E944703807E8038F1F4F4
:1007500065E088E20E94590361EB89E20E94590337
:1007600063E08AE20E94590363E08BE20E9459032E
:1007700040E060EE8FE00E946D038EE00E94470330
:10078000982F907E81E019F480E0089581E008952B
:100790000F931F93CF938C01FC016081718176953B
:1007A0006795769567957695679581E30E945903DD
:1007B000F80160816295660F607E82E30E945903B2
:1007C000F801628185E30E945903F8018281882340
:1007D00071F0C0E0F801EC0FF11D638186E38C0F2E
:1007E0000E945903CF5FF8018281C81798F381E80E
:1007F0000E948703CF911F910F9108958F929F922E
:10080000AF92BF92CF92DF92EF92FF920F931F931E
:10081000CF93DF93CDB7DEB72B970FB6F894DEBF3B
:100820000FBECDBF4C01FE0131968BE0DF011D9262
:100830008A95E9F7B2E5BA95F1F781E70E94470397
:10084000A82E82E70E944703B12CAA0CBB1CAA0C5D
:10085000BB1CAA0CBB1C829586958770A80EB11C88
:1008600085E70E944703082F8823B1F07E01E4E06A
:10087000EE0EF11CCE01800F911D9C012C5F3F4FAD
:10088000690116E7812F0E944703D7018D937D01EF
:100890001F5FAC15BD05B1F740E062E08CE20E943D
:1008A0006D03BA82A9820B838BE0FE013196D401DD
:1008B00001900D928A95E1F7C4012B960FB6F8943A
:1008C000DEBF0FBECDBFDF91CF911F910F91FF9083
:1008D000EF90DF90CF90BF90AF909F908F90089552
:1008E000E3E6F1E0F0930202E0930102F093EC0101
:1008F000E093EB01F093D601E093D501F093C001B2
:10090000E093BF01F093AA01E093A901F093940151
:10091000E0939301F0937E01E0937D01ABE0B1E0C1
:10092000B583A483B0935201A0935101B0933C01CD
:10093000A0933B01B0932601A09325010A2E1B2E04
:1009400015961C920E9211241497B0930503A09350
:1009500004030895EF92FF920F931F93CF93DF93B9
:100960007C010E94600AD70112968D919C91139789
:10097000892BC1F087010A5F1F4FC0E0D0E06FE014
:100980008C2F0E94230AD801ED91FD918D01808169
:1009900091810E94010A2196F70182819381C817F3
:1009A000D90768F3DF91CF911F910F91FF90EF90DE
:1009B0000895880F991FFC01E059FF4F65917491CC
:1009C00081E193E00E945C0D81E193E00E94010AC5
:1009D0000895CF93C82F0E94470A60E08C2F0E9491
:1009E000230A84E192E00E94010ACF910895E091E8
:1009F0000403F09105030396880F991FE80FF91F70
:100A000080819181909305038093040360E080E0EE
:100A10000E94230A80910403909105030E94AA0476
:100A200060E080E00E94230A80E090E00E94E904F8
:100A300080E090E00895E0910403F0910503848143
:100A40009581909305038093040360E080E00E9409
:100A5000230A80910403909105030E94AA0460E098
:100A600080E00E94230A80E090E00E94E90480E098
:100A700090E008958F929F92AF92BF92CF92DF92B3
:100A8000EF92FF920F931F93CF93DF93CDB7DEB713
:100A90006A970FB6F894DEBF0FBECDBFE091040396
:100AA000F091050300811181B80187E192E00E9475
:100AB000630D892B09F094C06BE283E00E94230A46
:100AC00080E292E00E94010A2FEF8FEF9EE021501A
:100AD00080409040E1F700C00000EEEEF2E084E0DC
:100AE00090E09183808382E0828313821482CF011D
:100AF0000E94C8030F2EF6E0EF2EF3E0FF2EF02D3C
:100B00006894AA24A1F8B12C8824839409EF12E0F8
:100B10000F2EF3E0CF2ED12CF02D6894992491F86C
:100B2000B19916C0F701B182A08282828382C70187
:100B30000E94C80380E090EF0197F1F7B19BFECFD0
:100B4000F701B182A08282821382C7010E94C8038A
:100B50000E945A0229833A834B835C836D837E8390
:100B60008F839887F801D182C08292822383448345
:100B7000C8010E94C8038CEC9CE40197F1F700C007
:100B800000008299CDCFCE0140960E94FE038BE0FB
:100B9000FE017096AEEEB2E001900D928A95E1F7FB
:100BA0008091EE029091EF02019709F0B9CF809108
:100BB000F202882309F4B4CF0E94600A6EE183E058
:100BC0000E94230A82E792E00E94010A9FEFEFEF62
:100BD000FEE09150E040F040E1F700C00000FCC2B0
:100BE000B8018FE292E00E94630D892B91F468E1D5
:100BF00083E00E94230A80E090E00E94D9042FEF56
:100C00008FEF9DE1215080409040E1F700C000004F
:100C1000E3C2B80189E292E00E94630D892B91F44E
:100C200063E183E00E94230A81E090E00E94D904FE
:100C3000EFEFFFEF2DE1E150F0402040E1F700C081
:100C40000000CAC2B8018AE392E00E94630D892BBA
:100C500029F56EE083E00E94230A82E090E00E9482
:100C6000D90462E284E00E94230A83E090E00E94BB
:100C7000D9048FEF9FEFEDE181509040E040E1F724
:100C800000C000000E948402FFEF2FEF8DE1F150C1
:100C900020408040E1F700C000009EC2B8018DE412
:100CA00092E00E94630D892B09F062C060E080E051
:100CB0000E94230A84E090E00E94D90460E081E071
:100CC0000E94230A85E090E00E94D90460E082E05F
:100CD0000E94230A86E090E00E94D90460E087E049
:100CE0000E94230A87E090E00E94D9040E94340306
:100CF0008823A1F10F2EF1E6CF2EF2E0DF2EF02DAA
:100D0000FE0131967F010E943403182F823031F4A6
:100D10008091EC028F5F8093EC0247C2833031F404
:100D20008091EC0281508093EC023FC28091EC02F2
:100D30001F928F93DF92CF92FF92EF920E94B70D96
:100D400084E00E942F0AC7010E94010A0F900F90B1
:100D50000F900F900F900F901111D5CFFFEF2FEF45
:100D600082E0F15020408040E1F700C000C034C272
:100D7000B8018EE692E00E94630D892B09F0FDC058
:100D80006EE180E00E94230A88E090E00E94D9048E
:100D900061E081E00E94230A89E090E00E94D9048A
:100DA00060E082E00E94230A8AE090E00E94D90479
:100DB00060E083E00E94230A8BE090E00E94D90467
:100DC00060E084E00E94230A8CE090E00E94D90455
:100DD00069E186E00E94230A8DE090E00E94D90438
:100DE00060E087E00E94230A8EE090E00E94D90430
:100DF0000E945A0229833A834B835C836D837E83EE
:100E00008F839887ACC00E945A0229833A834B8310
:100E10005C836D837E838F8398876EE181E00E947F
:100E20003A0A6B817C8180E090E00E94630C2DEC9B
:100E30003CEC4CE250E40E94C20B20E030E040EF7A
:100E400051E40E94560B0E94340C81E00E94230A58
:100E500087E792E00E94010A6EE182E00E943A0A6E
:100E600069817A8180E090E00E94630C2DEC3CEC7B
:100E70004CE250E40E94C20B20E030E040EF51E42D
:100E80000E94560B0E94340C82E00E94230A87E7DE
:100E900092E00E94010A6EE183E00E943A0A6D81AD
:100EA0007E8180E090E00E94630C2DEC3CEC4CE2F3
:100EB00050E40E94C20B20E030E040EF51E40E9479
:100EC000560B0E94340C83E00E94230A87E792E0CD
:100ED0000E94010A6EE184E00E943A0A6F817885DF
:100EE00080E090E00E94630C2DEC3CEC4CE250E47E
:100EF0000E94C20B20E030E040EF51E40E94560B0C
:100F00000E94340C84E00E94230A87E792E00E944A
:100F1000010A6EE185E00E943A0AB19908C06EE1CB
:100F200085E00E94230A89E792E00E94010AB29BB1
:100F300008C063E485E00E94230A89E792E00E94EA
:100F4000010AB39B08C06EE685E00E94230A89E788
:100F500092E00E94010AE0E0F0EF3197F1F7B29BD6
:100F600052CFB39B50CFFFEF2FEF82E0F1502040E4
:100F70008040E1F700C000C02FC1B8018BE792E0CC
:100F80000E94630D892BE9F40E947A0A9FEFEFE734
:100F9000F1E09150E040F040E1F700C000C00E9455
:100FA0003403882321F00E9434038111FCCF2FEFFA
:100FB0008FEF92E0215080409040E1F700C000C0E8
:100FC0000BC1B80185E892E00E94630D892B09F0FE
:100FD00053C060E080E00E94230A8FE090E00E940E
:100FE000D90460E081E00E94230A80E190E00E9441
:100FF000D90460E086E00E94230A81E190E00E942B
:10100000D90460E087E00E94230A87E090E00E9414
:10101000D9040E94340321C00E943403813001F5B9
:101020000E942F0A86E00E942F0A80E00E942F0A69
:1010300082E190E00E94D9040E94B50A80E00E94FB
:101040002F0A60E080E00E94230A83E190E00E9482
:10105000D9040E9434038130E1F38111DDCF02C055
:101060008111DACFEFEFFFEF22E0E150F0402040B6
:10107000E1F700C000C0B0C0B8018FE892E00E9464
:10108000630D892B09F048C060E080E00E94230ACC
:1010900084E190E00E94D90460E081E00E94230A8C
:1010A00085E190E00E94D90460E082E00E94230A7A
:1010B00086E190E00E94D90460E083E00E94230A68
:1010C00087E190E00E94D90460E084E00E94230A56
:1010D00088E190E00E94D90460E087E00E94230A42
:1010E00087E090E00E94D9040E943403882351F0E5
:1010F0000E943403182F5F9B03C08CB10E943F0BEA
:101100001111F6CF8FEF9FEFE2E081509040E04069
:10111000E1F700C000C060C0B80180EA92E00E9420
:10112000630D892B09F058C060E080E00E94230A1B
:1011300089E190E00E94D90460E081E00E94230AE6
:1011400085E190E00E94D90460E082E00E94230AD9
:101150008AE190E00E94D90460E083E00E94230AC3
:101160008BE190E00E94D90460E087E00E94230AAE
:1011700087E090E00E94D9040E943403882359F04C
:101180000E943403182F8B9B04C00E94A20A0E9465
:101190009E0A1111F5CFFFEF2FEF82E0F1502040B2
:1011A0008040E1F700C000C017C08091EC021F92A0
:1011B0008F93DF92CF92FF92EF920E94B70D84E05F
:1011C0000E942F0AC7010E94010A0F900F900F90F2
:1011D0000F900F900F9097CD6A960FB6F894DEBFE0
:1011E0000FBECDBFDF91CF911F910F91FF90EF9078
:1011F000DF90CF90BF90AF909F908F900895CF9346
:101200000E943403C82F80910A01C81709F47AC0DC
:10121000C13009F446C008F469C0C23019F0C330C7
:1012200001F16EC08091E8029091E902181619064A
:1012300034F401979093E9028093E8020BC0E091A7
:101240000403F09105038281938101979093E90251
:101250008093E8028091E8029091E9020E94E904FB
:101260004FC02091E8023091E902E0910403F0912F
:1012700005038281938101972817390738F42F5F7E
:101280003F4F3093E9022093E80204C01092E90234
:101290001092E8028091E8029091E9020E94E9042C
:1012A0002FC08091E8029091E9020E94F704909388
:1012B000E9028093E802E0910403F0910503828142
:1012C0009381892BE9F40E94600A8091E802909151
:1012D000E9020E943A058091E8029091E9020E9499
:1012E0001B059093E9028093E8020AC08091E8020E
:1012F0009091E9020E941B059093E9028093E80215
:10130000C0930A01CF9108958D9A8C9A9498959ADA
:10131000C19A939A2FEF8FEF9EE02150804090402A
:10132000E1F700C000000E94470B0E94AB0A0E9438
:1013300047020E94B4090E9470040E94980A0E9409
:101340009A0380910403909105030E94AA0480E00F
:1013500090E00E94E9048091EB02813011F4949AAC
:1013600095980E94FF08F7CFE0E0F0E18EEA8083D5
:1013700081EA80838AED808382E1808388EC8083A8
:1013800088EA80838FE3808385ED808380E8808393
:1013900081E8808380E5808389ED808381E280839A
:1013A00080E2808382E080838BED808380E3808392
:1013B0008DEA8083108284EA808386EA80838FEAC4
:1013C00080830895909113029923D1F090E0482FE3
:1013D00050E0405251099A01220F331F220F331F50
:1013E000420F531FA0E0B2E1FA01E90FF11DEB58E3
:1013F000FD4FE491EC939F5F209113029217A0F3AD
:101400000895EF92FF920F931F93CF93DF938C0178
:101410007C01C0E0D0E006C0F70181917F010E940D
:10142000E2092196F80101900020E9F73197E01BCD
:10143000F10BCE17DF0780F3DF91CF911F910F9152
:10144000FF90EF900895806BE0E0F0E18083862FBD
:101450008F70808362956F7060616083089560E033
:101460000E94230A80E0E0E0F2E110828F5F803882
:10147000E1F70895CF93C62F0E94230ACC232CF0C6
:10148000E0E0F2E11082CF5FEAF7CF9108951F9379
:10149000CF93DF9360E080E00E94230A10E0C0E079
:1014A000D2E160E0812F0E94230A8FE018828150F0
:1014B000E9F71F5F1830A9F7DF91CF911F910895C9
:1014C0001F93CF93DF9360E080E00E94230A10E037
:1014D000C0E0D2E160E0812F0E94230A80E0188200
:1014E0008F5F8038E1F71F5F1830A1F7DF91CF9150
:1014F0001F9108950F931F93CF93DF9360E080E0D7
:101500000E94230AD0E000E012E1CFEF60E08D2FCF
:101510000E94230A80E0F801C0838F5F8038D9F7EA
:10152000DF5FD83099F7DF91CF911F910F91089528
:10153000BD9ABF9ABC9A81E58DB908958FB9779B02
:10154000FECF08951FB8779BFECF8FB10895C49842
:101550000895C49A089585B7806885BF86B7886066
:1015600086BF80B7806280BF0895CF92DF92EF92EE
:10157000FF920F931F93CF93DF9300D0CDB7DEB7C9
:101580002FEF8FE791E0215080409040E1F700C0BD
:1015900000C00E944C0D6C010E94510D00E018E14A
:1015A000E12CF12C0E944C0DF80180839081891769
:1015B00019F0FFEFEF1AFF0A0F5F1F4F011520E22E
:1015C000120781F7C6010E94510D00E018E1C12CFD
:1015D000D12C0E944C0DF8019081981719F0FFEF63
:1015E000CF1ADF0A0F5F1F4F011520E2120789F79C
:1015F0008FEF9FE7E1E081509040E040E1F700C0CD
:1016000000C0FF92EF9281EC92E09F938F93CE0106
:1016100001967C019F938F930E94B70DDF92CF922A
:1016200082ED92E09F938F938E010E5F1F4F1F9369
:101630000F930E94B70D81E00E942F0A82E00E9462
:101640002F0A60E081E00E94230AC7010E94010A7C
:1016500060E082E00E94230AC8010E94010A0FB6DE
:10166000F894DEBF0FBECDBF0F900F90DF91CF91EA
:101670001F910F91FF90EF90DF90CF9008955D9BA9
:10168000FECF8CB908955F9BFECF8CB1089510BC3E
:101690008FE189B98EE880BD88E18AB963E47BE097
:1016A0008FE39BE00E946C0D08955058BB27AA273A
:1016B0000E946D0B0C94B70C0E94A90C38F00E948C
:1016C000B00C20F039F49F3F19F426F40C94A60CCA
:1016D0000EF4E095E7FB0C94A00CE92F0E94C80CD7
:1016E00058F3BA17620773078407950720F079F457
:1016F000A6F50C94EA0C0EF4E0950B2EBA2FA02D53
:101700000B01B90190010C01CA01A0011124FF27AE
:10171000591B99F0593F50F4503E68F11A16F040A9
:10172000A22F232F342F4427585FF3CF46953795A8
:101730002795A795F0405395C9F77EF41F16BA0B6D
:10174000620B730B840BBAF09150A1F0FF0FBB1F1B
:10175000661F771F881FC2F70EC0BA0F621F731F64
:10176000841F48F4879577956795B795F7959E3FC1
:1017700008F0B0CF9395880F08F09927EE0F979552
:10178000879508950E94D60B0C94B70C0E94B00C5C
:1017900058F00E94A90C40F029F45F3F29F00C9406
:1017A000A00C51110C94EB0C0C94A60C0E94C80CCC
:1017B00068F39923B1F3552391F3951B550BBB2780
:1017C000AA2762177307840738F09F5F5F4F220FC5
:1017D000331F441FAA1FA9F335D00E2E3AF0E0E8BC
:1017E00032D091505040E695001CCAF72BD0FE2F06
:1017F00029D0660F771F881FBB1F2617370748079A
:10180000AB07B0E809F0BB0B802DBF01FF27935851
:101810005F4F3AF09E3F510578F00C94A00C0C9469
:10182000EB0C5F3FE4F3983ED4F38695779567958C
:10183000B795F7959F5FC9F7880F911D9695879586
:1018400097F90895E1E0660F771F881FBB1F6217A5
:1018500073078407BA0720F0621B730B840BBA0B63
:10186000EE1F88F7E09508950E94D00C88F09F57EE
:1018700098F0B92F9927B751B0F0E1F0660F771FB4
:10188000881F991F1AF0BA95C9F714C0B13091F0AA
:101890000E94EA0CB1E008950C94EA0C672F782FAF
:1018A0008827B85F39F0B93FCCF38695779567956F
:1018B000B395D9F73EF490958095709561957F4FDB
:1018C0008F4F9F4F0895E89409C097FB3EF4909581
:1018D0008095709561957F4F8F4F9F4F9923A9F009
:1018E000F92F96E9BB279395F69587957795679598
:1018F000B795F111F8CFFAF4BB0F11F460FF1BC0DC
:101900006F5F7F4F8F4F9F4F16C0882311F096E96E
:1019100011C0772321F09EE8872F762F05C066231C
:1019200071F096E8862F70E060E02AF09A95660FD5
:10193000771F881FDAF7880F9695879597F908958E
:1019400097F99F6780E870E060E008959FEF80EC72
:10195000089500240A941616170618060906089515
:1019600000240A9412161306140605060895092E7B
:101970000394000C11F4882352F0BB0F40F4BF2BEA
:1019800011F460FF04C06F5F7F4F8F4F9F4F08952A
:1019900057FD9058440F551F59F05F3F71F0479520
:1019A000880F97FB991F61F09F3F79F08795089505
:1019B000121613061406551FF2CF4695F1DF08C024
:1019C000161617061806991FF1CF86957105610541
:1019D00008940895E894BB2766277727CB0197F9E9
:1019E0000895A29FB001B39FC001A39F700D811DF8
:1019F0001124911DB29F700D811D1124911D089518
:101A00008F929F92AF92BF92CF92DF92EF92FF920E
:101A1000CF93DF93EC01688179818A819B81611585
:101A200071058105910521F464E279ED8BE597E07C
:101A30002DE133EF41E050E00E94AE1149015A011F
:101A40009B01AC01A7EAB1E40E94CD116B017C01BE
:101A5000ACEEB4EFA50194010E94DB11DC01CB01D7
:101A60008C0D9D1DAE1DBF1DB7FF03C00197A109C1
:101A7000B04888839983AA83BB839F77DF91CF91F6
:101A8000FF90EF90DF90CF90BF90AF909F908F909E
:101A900008950E94000D089580E091E00E94000DDD
:101AA0000895A0E0B0E08093000190930101A0931D
:101AB0000201B09303010895FB01DC0105900D9232
:101AC0000020E1F70895FB01DC018D910190801960
:101AD0000110D9F3990B08950F931F93CF93DF93C0
:101AE000009731F46115710519F480E090E03AC077
:101AF0008B01EC016EE070E081E090E00E94BA0F93
:101B0000FC01892B91F380E883830115110571F0A5
:101B10001387028781E883838091120390911303D6
:101B2000892B21F4F0931303E09312032097C9F05B
:101B3000D187C087838182608383809114039091D1
:101B40001503892B71F4F0931503E093140380912E
:101B5000160390911703892B21F4F0931703E09358
:101B60001603CF01DF91CF911F910F910895AEE041
:101B7000B0E0EDEBFDE00C94EE110D891E8986E0DE
:101B80008C831A8309838FEF9FE79E838D83AE0139
:101B9000475E5F4F6F89788DCE0101960E94D90D07
:101BA000EF81F885E00FF11F10822E96E4E00C948F
:101BB0000A12ABE0B0E0EFEDFDE00C94E0116C0137
:101BC0007B018A01FC0117821682838181FFCCC1CF
:101BD000CE0101963C01F6019381F70193FD8591B9
:101BE00093FF81917F01882309F4BAC1853239F4CA
:101BF00093FD859193FF81917F01853229F4B60190
:101C000090E00E941411E7CF912C212C312CFFE1A0
:101C1000F315D8F08B3279F038F4803279F08332D2
:101C2000A1F4232D20611DC08D3261F0803369F451
:101C3000232D216016C0832D8260382EE32DE460B1
:101C40003E2E2AC0F32DF8601DC037FC2DC020EDBC
:101C5000280F2A3040F08E32B9F436FC81C1232D92
:101C60002064322E19C036FE06C08AE0989E200DF0
:101C70001124922E11C0EAE02E9E200D1124222E56
:101C8000F32DF0623F2E08C08C3621F4832D80683E
:101C9000382E02C0883641F4F70193FD859193FFF9
:101CA00081917F018111B3CF982F9F7D95549330FF
:101CB00028F40C5F1F4F9FE399830DC0833631F0EA
:101CC000833771F0833509F059C021C0F801808154
:101CD00089830E5F1F4F88248394912C530113C076
:101CE0002801F2E04F0E511CF801A080B18036FEB1
:101CF00003C0692D70E002C06FEF7FEFC5010E9445
:101D000009114C018201F32DFF773F2E16C02801E7
:101D100022E0420E511CF801A080B18036FE03C0C3
:101D2000692D70E002C06FEF7FEFC5010E94F710D0
:101D30004C01F32DF0683F2E820133FC1BC0822D35
:101D400090E088169906B0F4B60180E290E00E9417
:101D500014112A94F4CFF50137FC859137FE819157
:101D60005F01B60190E00E94141121102A9421E035
:101D7000821A91088114910471F7E8C0843611F039
:101D8000893641F5F80137FE07C060817181828193
:101D900093810C5F1F4F08C060817181072E000C7A
:101DA000880B990B0E5F1F4FF32DFF763F2E97FF89
:101DB00009C090958095709561957F4F8F4F9F4F8B
:101DC000F0683F2E2AE030E0A3010E945011882ED7
:101DD000861845C0853731F4232D2F7EB22E2AE098
:101DE00030E025C0932D997FB92E8F36C1F018F4BD
:101DF000883579F0B5C0803719F0883721F0B0C048
:101E0000E92FE061BE2EB4FE0DC0FB2DF460BF2EA5
:101E100009C034FE0AC0292F2660B22E06C028E071
:101E200030E005C020E130E002C020E132E0F801FE
:101E3000B7FE07C060817181828193810C5F1F4F63
:101E400006C06081718180E090E00E5F1F4FA301AA
:101E50000E945011882E8618FB2DFF773F2E36FEEC
:101E60000DC0232D2E7FA22E891458F434FE0BC0F2
:101E700032FC09C0832D8E7EA82E05C0B82CA32C61
:101E800003C0B82C01C0B92CA4FE0FC0FE01E80DA0
:101E9000F11D8081803321F49A2D997EA92E09C0ED
:101EA000A2FE06C0B394B39404C08A2D867809F0CC
:101EB000B394A3FC11C0A0FE06C0B21488F4280C91
:101EC000922C9B180EC0B21460F4B60180E290E030
:101ED0000E941411B394F7CFB21418F42B1802C057
:101EE000982C212CA4FE10C0B60180E390E00E9443
:101EF0001411A2FE17C0A1FC03C088E790E002C045
:101F000088E590E0B6010CC08A2D867859F0A1FED4
:101F100002C08BE201C080E2A7FC8DE2B60190E036
:101F20000E941411891438F4B60180E390E00E94F5
:101F300014119A94F7CF8A94F301E80DF11D808172
:101F4000B60190E00E9414118110F5CF222009F40F
:101F500042CEB60180E290E00E9414112A94F6CF9E
:101F6000F6018681978102C08FEF9FEF2B96E2E109
:101F70000C94FC110F931F93CF93DF93869F8001E6
:101F8000879F100D969F100D1124C8010E94D60F37
:101F9000EC01009729F0A80160E070E00E940211B6
:101FA000CE01DF91CF911F910F9108950F931F9351
:101FB000CF93DF938230910510F482E090E0E091BE
:101FC0001A03F0911B0320E030E0A0E0B0E030976E
:101FD00019F1408151810281138148175907C8F0D6
:101FE0008417950769F4109731F012960C931297A5
:101FF00013961C9327C000931A0310931B0322C04F
:102000002115310519F04217530718F49A01BD0143
:10201000EF01DF01F801DBCF21153105F9F0281BB5
:10202000390B2430310580F48A819B81611571055B
:1020300021F0FB019383828304C090931B03809360
:102040001A03FE01329644C0FE01E20FF31F819392
:10205000919322503109398328833AC02091180383
:1020600030911903232B41F420910601309107018F
:102070003093190320931803209104013091050136
:102080002115310541F42DB73EB74091080150911B
:102090000901241B350BE0911803F0911903E21795
:1020A000F307A0F42E1B3F0B2817390778F0AC017B
:1020B0004E5F5F4F2417350748F04E0F5F1F509358
:1020C0001903409318038193919302C0E0E0F0E07C
:1020D000CF01DF91CF911F910F910895CF93DF939F
:1020E000009709F481C0FC01329713821282A091FB
:1020F0001A03B0911B03109781F420813181820F64
:10210000931F20911803309119032817390751F5AF
:10211000F0931903E093180367C0ED0120E030E06D
:10212000CE17DF0740F44A815B819E0141155105BE
:10213000F1F0EA01F5CFD383C28340815181840F4E
:10214000951FC817D90759F488819981840F951F65
:102150000296918380838A819B8193838283211558
:10216000310529F4F0931B03E0931A033DC0E90104
:10217000FB83EA8349915991C40FD51FEC17FD07E2
:1021800061F480819181840F951F0296E901998302
:102190008883828193819B838A83E0E0F0E01296BA
:1021A0008D919C911397009719F0FD01DC01F7CFF9
:1021B0008D919C9111979D012E5F3F4F820F931F30
:1021C00020911803309119032817390769F43097C3
:1021D00029F410921B0310921A0302C01382128278
:1021E000B0931903A0931803DF91CF910895FC01D8
:1021F0000590615070400110D8F7809590958E0F32
:102200009F1F0895DC0101C06D9341505040E0F7DD
:102210000895FC016150704001900110D8F780953D
:1022200090958E0F9F1F08950F931F93CF93DF9369
:10223000FB01238121FD03C08FEF9FEF2CC022FF04
:1022400016C046815781248135814217530744F4D3
:10225000A081B1819D012F5F3F4F318320838C93FB
:10226000268137812F5F3F4F3783268314C08B0130
:10227000EC01FB010084F185E02D0995892BE1F645
:10228000D80116968D919C911797019617969C935D
:102290008E931697CE01DF91CF911F910F910895E4
:1022A000FA01AA27283051F1203181F1E8946F9387
:1022B0006E7F6E5F7F4F8F4F9F4FAF4FB1E03ED02D
:1022C000B4E03CD0670F781F891F9A1FA11D680FCB
:1022D000791F8A1F911DA11D6A0F711D811D911DFE
:1022E000A11D20D009F468943F912AE0269F112473
:1022F0003019305D3193DEF6CF010895462F4770D7
:10230000405D4193B3E00FD0C9F7F6CF462F4F7031
:10231000405D4A3318F0495D31FD4052419302D08F
:10232000A9F7EACFB4E0A695979587957795679535
:10233000BA95C9F700976105710508959B01AC0135
:102340000A2E06945795479537952795BA95C9F75C
:10235000620F731F841F951FA01D0895052E97FB04
:102360001EF400940E94C51157FD07D00E94171259
:1023700007FC03D04EF40C94C51150954095309550
:1023800021953F4F4F4F5F4F0895909580957095E1
:1023900061957F4F8F4F9F4F08950E94F10CA59F2D
:1023A000900DB49F900DA49F800D911D1124089550
:1023B000B7FF0C94CD110E94CD11821B930B089591
:1023C0002F923F924F925F926F927F928F929F9245
:1023D000AF92BF92CF92DF92EF92FF920F931F9333
:1023E000CF93DF93CDB7DEB7CA1BDB0B0FB6F894E4
:1023F000DEBF0FBECDBF09942A88398848885F8424
:102400006E847D848C849B84AA84B984C884DF8094
:10241000EE80FD800C811B81AA81B981CE0FD11D78
:102420000FB6F894DEBF0FBECDBFED010895A1E257
:102430001A2EAA1BBB1BFD010DC0AA1FBB1FEE1F3E
:10244000FF1FA217B307E407F50720F0A21BB30B89
:10245000E40BF50B661F771F881F991F1A9469F705
:1024600060957095809590959B01AC01BD01CF0161
:062470000895F894FFCF6F
:102476000100000000001C03200004AE020400005E
:1024860000210137014D016301000000000000003A
:1024960000170200002101000000000000000000FB
:1024A600000000000000002F0200003701000000BD
:1024B60000000000000000000000000000290200EB
:1024C600004D0100000000000000000000000000B8
:1024D600000000B8020700000079018F01A501BBCA
:1024E60001D101E701FD0100003A02000079010077
:1024F6000000000000000000000000000000004D89
:102506000200008F01000000000000000000000033
:1025160000000000006E020000A50100000000009F
:1025260000000000000000000000007B020000BB6D
:102536000100000000000000000000000000000094
:102546000085020000D1010000000000000000002C
:10255600000000000000008F020000E701000000FC
:1025660000000000000000000000000000A00200C3
:1025760000FD010000000000000000000000000057
:10258600000000052D3E004E65772047616D650011
:10259600484156452046554E00436C6561722048B9
:1025A6006967682053636F7265004175746F2043D5
:1025B600616C696272617465204A6F790041646A70
:1025C600757374204A6F79204465616462616E6434
:1025D600006465616462616E643A2025640041446A
:1025E600432074657374007C002A004F4C454420D8
:1025F60074657374005352414D20746573740052B0
:10260600532D323332206C6F6F70206261636B0022
:10261600535049206C6F6F70206261636B004D618F
:10262600696E204D656E750053657474696E6773C7
:10263600005772697465206572726F72733A20254D
:10264600640052657472696576616C206572726F9A
:0826560072733A2025640000B4
:00000001FF
