S00E00004E6F64655F312E7372656300
S11300000C9426010C9443010C9443010C94430179
S11300100C9443010C9443010C9443010C9443014C
S11300200C9443010C9443010C9443010C9443013C
S11300300C9443010C9443010C9443010C9443012C
S11300400C9443010C9443010C9443010C9443011C
S11300500C9443010C9443010C9443010C9443010C
S11300600C9443010C9443010C9443010C944301FC
S1130070000000000000005F0000000700070014FB
S11300807F147F14242A7F2A1223130864623649BA
S11300905522500005030000001C224100004122AB
S11300A01C00082A1C2A0808083E080800503000D2
S11300B00008080808080060600000201008040216
S11300C03E5149453E00427F40004261514946212C
S11300D041454B311814127F1027454545393C4A98
S11300E049493001710905033649494936064949E8
S11300F0291E00363600000056360000000814227F
S11301004114141414144122140800020151090664
S1130110324979413E7E1111117E7F494949363E6B
S1130120414141227F4141221C7F494949417F0984
S11301300901013E414151327F0808087F00417F97
S113014041002040413F017F081422417F4040404C
S1130150407F0204027F7F0408107F3E4141413EFC
S11301607F090909063E4151215E7F091929464646
S11301704949493101017F01013F4040403F1F206F
S113018040201F7F2018207F631408146303047821
S11301900403615149454300007F414102040810B2
S11301A02041417F000004020102044040404040DD
S11301B0000102040020545454787F4844443838E1
S11301C044444420384444487F3854545418087EE6
S11301D0090102081454543C7F0804047800447D47
S11301E040002040443D00007F10284400417F40EF
S11301F0007C041804787C080404783844444438A7
S11302007C14141408081414187C7C08040408488A
S113021054545420043F4440203C4040207C1C2043
S113022040201C3C4030403C44281028440C505092
S1130230503C4464544C44000836410000007F00A4
S113024000004136080002010302010011241FBE10
S1130250CFEFD4E0DEBFCDBF12E0A0E0B1E0E4E92F
S1130260F9E102C005900D92AC3AB107D9F722E04A
S1130270ACEAB2E001C01D92A83CB207E1F70E94CB
S113028064050C94C80C0C940000B89A83B7886079
S113029083BF83B7806183BF83B7816083BF8AEAEA
S11302A08093AE028093B0028CE38093AF020895F2
S11302B0CF93DF93CDB7DEB728970FB6F894DEBFA0
S11302C00FBECDBFE0E0F4E1108240812081608167
S11302D0808130E03A83298350E05C834B8370E073
S11302E07E836D8390E098878F833A815C817E81E1
S11302F0988528960FB6F894DEBF0FBECDBFDF9168
S1130300CF9108958F929F92AF92BF92CF92DF9236
S1130310EF92FF920F931F93CF93DF93CDB7DEB786
S113032028970FB6F894DEBF0FBECDBF0E945801C8
S11303300AE010E00E94580129833A834B835C83CE
S113034069817A8180E090E00E9488079B01AC017A
S1130350C501B4010E947B064B015C016B817C8169
S113036080E090E00E9488079B01AC01C701B601C0
S11303700E947B066B017C0101501109D9F620E033
S113038030E040E251E4C501B4010E94E7060E9456
S113039059076093AE0220E030E040E251E4C70127
S11303A0B6010E94E7060E9459076093B00228969E
S11303B00FB6F894DEBF0FBECDBFDF91CF911F9172
S11303C00F91FF90EF90DF90CF90BF90AF909F90F0
S11303D08F900895CF93DF93CDB7DEB728970FB6EC
S11303E0F894DEBF0FBECDBF0E94580129833A8323
S11303F04B835C832091B0028B819C81821B910989
S11304002091AF0230E0AC01992324F4442755270E
S1130410481B590B2417350734F4892F881F882764
S1130420881F8E5F16C04091AE0289819A81841B19
S11304309109AC0122F444275527481B590B241772
S1130440350734F4892F8095881F8827881F01C0B9
S113045084E028960FB6F894DEBF0FBECDBFDF91BF
S1130460CF910895CF930E94EA01C82F2FEF8FE711
S113047091E0215080409040E1F700C000C00E940C
S1130480EA01C81384E0CF910895CF93C82F0E9446
S1130490560683E00E944D068C2F0E944D060E9452
S11304A05106C82F0E9458068C2FCF910895CF93E0
S11304B0DF93D82FC62F0E94560682E00E944D0675
S11304C08D2F0E944D068C2F0E944D060E945806C7
S11304D0DF91CF9108951F93CF93DF93182FD62FD9
S11304E0C42F0E94560685E00E944D06812F0E946B
S11304F04D068D2F0E944D068C2F0E944D060E94A2
S11305005806DF91CF911F910895CF93C82F0E9471
S113051056068C2F0E944D060E945806CF910895CE
S11305200E94560680EC0E944D060E9458060895CB
S11305300E9490028FEF9FE20197F1F700C0000044
S11305408EE00E944502807E8038F1F461E088E20A
S11305500E94570265EB89E20E94570263E48AE233
S11305600E94570263E08BE20E94570240E060EE73
S11305708FE00E946B028EE00E944502982F907ECD
S113058081E019F480E0089581E008950F931F93AA
S1130590CF938C01FC016081718176956795769586
S11305A067957695679581E30E945702F80160810B
S11305B06295660F607E82E30E945702F8016281B1
S11305C085E30E945702F8018281882371F0C0E01C
S11305D0F801EC0FF11D638186E38C0F0E94570232
S11305E0CF5FF8018281C81798F381E80E948502E1
S11305F0CF911F910F910895A9E4B1E0B093220126
S1130600A0932101B0930C01A0930B01B093380186
S1130610A0933701EBE8F1E01596FC93EE93149761
S1130620F0936401E0936301F0937A01E09379011C
S1130630F583E483F093BD02E093BC020895EF9246
S1130640FF920F931F93CF93DF937C010E942D069B
S1130650D70112968D919C91139718161906C4F41C
S113066087010A5F1F4FC0E0D0E06FE08C2F0E942B
S1130670FD05D801ED91FD918D01808191810E944C
S1130680DB052196F70182819381C817D9076CF3A2
S1130690DF91CF911F910F91FF90EF900895CF9329
S11306A0C82F0E94140660E08C2F0E94FD0582EA88
S11306B091E00E94DB05CF910895E091BC02F09196
S11306C0BD020396880F991FE80FF91F808191815D
S11306D09093BD028093BC0260E080E00E94FD051F
S11306E08091BC029091BD020E941F0360E080E0F3
S11306F00E94FD0580E090E00E944F0380E090E0BE
S11307000895E091BC02F091BD028481958190939B
S1130710BD028093BC0260E080E00E94FD058091F0
S1130720BC029091BD020E941F0360E080E00E9421
S1130730FD0580E090E00E944F0380E090E0089582
S1130740DF92EF92FF920F931F93CF93DF93CDB776
S1130750DEB72F970FB6F894DEBF0FBECDBFE09182
S1130760BC02F091BD0200811181B80185EA91E0DB
S11307700E941608892BA1F56BE283E00E94FD0517
S11307808EEA91E00E94DB052FEF8FEF9EE021506F
S113079080409040E1F700C0000001EB12E0689453
S11307A0EE24E1F8F12C6894DD24D1F80E9458017C
S11307B029833A834B835C836D837E838F839887FD
S11307C0F801F182E082D28263838483C8010E94AB
S11307D0C6028CEC9CE40197F1F700C00000E6CF60
S11307E0B8018CE692E00E941608892B91F468E126
S11307F083E00E94FD0587EB91E00E94DB059FEFFB
S1130800EFEFFDE19150E040F040E1F700C000005F
S1130810C8C0B80188EC91E00E941608892B29F51C
S11308206EE083E00E94FD058BED91E00E94DB0504
S113083062E284E00E94FD0580EF91E00E94DB0506
S11308402FEF8FEF9DE1215080409040E1F700C0F1
S113085000000E948201EFEFFFEF2DE1E150F04034
S11308602040E1F700C000009CC0B8018DEF91E08A
S11308700E941608892B09F064C060E080E00E94A1
S1130880FD058DEF91E00E94DB0560E081E00E94B0
S1130890FD0581E192E00E94DB0560E082E00E94B8
S11308A0FD0589E292E00E94DB0560E087E00E949A
S11308B0FD0583E492E00E94DB050E943202882356
S11308C0B1F10F2EF9E5EF2EF2E0FF2EF02D8E019F
S11308D00F5F1F4F0E943202D82E82E0D81206C04A
S11308E08091AF028F5F8093AF0244C093E0D9122E
S11308F006C08091AF0281508093AF023BC08091CB
S1130900AF021F928F93FF92EF921F930F930E9457
S11309109A0884E00E940906C8010E94DB050F9032
S11309200F900F900F900F900F90D110D3CFEFEF47
S1130930FFE721E0E150F0402040E1F700C000C0B3
S113094030C0B80186E692E00E941608892B49F56A
S113095063E183E00E94FD0587E792E00E94DB05E6
S11309608FEF9FEFEDE181509040E040E1F700C050
S1130970000017C08091AF021F928F93FF92EF92F5
S11309801F930F930E949A0884E00E940906C801ED
S11309900E94DB050F900F900F900F900F900F9017
S11309A099CF2F960FB6F894DEBF0FBECDBFDF915F
S11309B0CF911F910F91FF90EF90DF900895CF9307
S11309C00E943202C82F80910601C81709F47AC028
S11309D0C13009F446C008F469C0C23019F0C3300C
S11309E001F16EC08091AC029091AD021816190607
S11309F034F401979093AD028093AC020BC0E09164
S1130A00BC02F091BD028281938101979093AD0263
S1130A108093AC028091AC029091AD020E944F038E
S1130A204FC02091AC023091AD02E091BC02F09134
S1130A30BD02828193810197281739073CF42F5F07
S1130A403F4F3093AD022093AC0204C01092AD022C
S1130A501092AC028091AC029091AD020E944F03BF
S1130A602FC08091AC029091AD020E945D039093DF
S1130A70AD028093AC02E091BC02F091BD02828190
S1130A809381892BE9F40E942D068091AC02909108
S1130A90AD020E94A0038091AC029091AD020E942D
S1130AA081039093AD028093AC020AC08091AC02A2
S1130AB09091AD020E9481039093AD028093AC02A9
S1130AC0C0930601CF9108952FEF8FEF9EE0215040
S1130AD080409040E1F700C000000E946C060E9434
S1130AE05A060E9445010E948E050E94FC020E9443
S1130AF047060E949802813021F48DE992E00E9419
S1130B006A088091BC029091BD020E941F0380E09C
S1130B1090E00E944F030E94DF04FDCFE0E0F0E18B
S1130B208EEA808381EA80838AED808382E18083F8
S1130B3088EC808388EA80838FE3808385ED8083DB
S1130B4080E8808381E8808380E5808389ED8083E9
S1130B5081E2808380E2808382E080838BED8083E6
S1130B6080E380838DEA8083108284EA808386EA2E
S1130B7080838FEA808308959091A1019923D1F015
S1130B8090E0482F50E0405251099A01220F331F40
S1130B90220F331F420F531FA0E0B2E1FA01E90F05
S1130BA0F11DE059FF4FE491EC939F5F2091A10167
S1130BB09217A0F30895EF92FF920F931F93CF9390
S1130BC0DF938C017C01C0E0D0E006C0F701819185
S1130BD07F010E94BC052196F80101900020E9F7ED
S1130BE03197E01BF10BCE17DF0780F3DF91CF9134
S1130BF01F910F91FF90EF900895806BE0E0F0E17A
S1130C008083862F8F70808362956F7060616083AC
S1130C10089560E00E94FD0580E0E0E0F2E11082CA
S1130C208F5F8038E1F708951F93CF93DF9360E0DF
S1130C3080E00E94FD0510E0C0E0D2E160E0812F79
S1130C400E94FD058FE018828150E9F71F5F18307C
S1130C50A9F7DF91CF911F9108951F93CF93DF934D
S1130C6060E080E00E94FD0510E0C0E0D2E160E0B9
S1130C70812F0E94FD0580E018828F5F8038E1F7A4
S1130C801F5F1830A1F7DF91CF911F910895BD9A8E
S1130C90BF9ABC9A81E58DB908958FB9779BFECF31
S1130CA008951FB8779BFECF8FB10895C498089517
S1130CB0C49A089585B7806885BF86B7886086BF63
S1130CC080B7806280BF08955D9BFECF8CB9089584
S1130CD05F9BFECF8CB1089510BC8FE189B98EE87B
S1130CE080BD88E18AB968E676E084E696E00E94F1
S1130CF01F0808955058BB27AA270E9492060C94F7
S1130D00DC070E94CE0738F00E94D50720F039F4A2
S1130D109F3F19F426F40C94CB070EF4E095E7FBFF
S1130D200C94C507E92F0E94ED0758F3BA17620720
S1130D3073078407950720F079F4A6F50C940F083F
S1130D400EF4E0950B2EBA2FA02D0B01B9019001E2
S1130D500C01CA01A0011124FF27591B99F0593F26
S1130D6050F4503E68F11A16F040A22F232F342F6E
S1130D704427585FF3CF469537952795A795F040BC
S1130D805395C9F77EF41F16BA0B620B730B840BD1
S1130D90BAF09150A1F0FF0FBB1F661F771F881F89
S1130DA0C2F70EC0BA0F621F731F841F48F48795E1
S1130DB077956795B795F7959E3F08F0B0CF9395D3
S1130DC0880F08F09927EE0F9795879508950E944C
S1130DD0FB060C94DC070E94D50758F00E94CE074E
S1130DE040F029F45F3F29F00C94C50751110C948D
S1130DF010080C94CB070E94ED0768F39923B1F314
S1130E00552391F3951B550BBB27AA27621773072C
S1130E10840738F09F5F5F4F220F331F441FAA1FC0
S1130E20A9F335D00E2E3AF0E0E832D0915050407C
S1130E30E695001CCAF72BD0FE2F29D0660F771F2A
S1130E40881FBB1F261737074807AB07B0E809F010
S1130E50BB0B802DBF01FF2793585F4F3AF09E3F95
S1130E60510578F00C94C5070C9410085F3FE4F327
S1130E70983ED4F3869577956795B795F7959F5FD8
S1130E80C9F7880F911D9695879597F90895E1E024
S1130E90660F771F881FBB1F621773078407BA0783
S1130EA020F0621B730B840BBA0BEE1F88F7E095DE
S1130EB008950E94F50788F09F5798F0B92F992755
S1130EC0B751B0F0E1F0660F771F881F991F1AF031
S1130ED0BA95C9F714C0B13091F00E940F08B1E07F
S1130EE008950C940F08672F782F8827B85F39F07E
S1130EF0B93FCCF3869577956795B395D9F73EF4CA
S1130F0090958095709561957F4F8F4F9F4F089571
S1130F10E89409C097FB3EF490958095709561958F
S1130F207F4F8F4F9F4F9923A9F0F92F96E9BB2745
S1130F309395F695879577956795B795F111F8CFC1
S1130F40FAF4BB0F11F460FF1BC06F5F7F4F8F4F2C
S1130F509F4F16C0882311F096E911C0772321F022
S1130F609EE8872F762F05C0662371F096E8862FBA
S1130F7070E060E02AF09A95660F771F881FDAF711
S1130F80880F9695879597F9089597F99F6780E854
S1130F9070E060E008959FEF80EC089500240A94C7
S1130FA01616170618060906089500240A94121640
S1130FB01306140605060895092E0394000C11F473
S1130FC0882352F0BB0F40F4BF2B11F460FF04C020
S1130FD06F5F7F4F8F4F9F4F089557FD9058440F79
S1130FE0551F59F05F3F71F04795880F97FB991F84
S1130FF061F09F3F79F08795089512161306140641
S1131000551FF2CF4695F1DF08C0161617061806CD
S1131010991FF1CF86957105610508940895E894A8
S1131020BB2766277727CB0197F90895FB01DC01DD
S11310308D91019080190110D9F3990B08950F93A4
S11310401F93CF93DF93009731F46115710519F461
S113105080E090E03AC08B01EC016EE070E081E04A
S113106090E00E949D0AFC01892B91F380E8838320
S11310700115110571F01387028781E8838380913C
S1131080BE029091BF02892B21F4F093BF02E0933A
S1131090BE022097C9F0D187C08783818260838391
S11310A08091C0029091C102892B71F4F093C10226
S11310B0E093C0028091C2029091C302892B21F473
S11310C0F093C302E093C202CF01DF91CF911F914D
S11310D00F9108950F931F93CF93DF93E091C00274
S11310E0F091C102238121FF1BC08C01D0E0C0E03C
S11310F0F80181918F016091C0027091C102DB01FE
S11311001896ED91FC911997882331F00995892B54
S113111079F3DFEFCFEFECCF8AE00995892B19F053
S11311208FEF9FEF02C08D2F9C2FDF91CF911F91E6
S11311300F910895AEE0B0E0E0EAF8E00C949F0C63
S11311400D891E8986E08C831A8309838FEF9FE7BC
S11311509E838D83AE01475E5F4F6F89788DCE018C
S113116001960E94BC08EF81F885E00FF11F108200
S11311702E96E4E00C94BB0CABE0B0E0E2ECF8E0BB
S11311800C94910C6C017B018A01FC01178216827C
S1131190838181FFCCC1CE0101963C01F60193818C
S11311A0F70193FD859193FF81917F01882309F4D1
S11311B0BAC1853239F493FD859193FF81917F0102
S11311C0853229F4B60190E00E94F70BE7CF912C09
S11311D0212C312CFFE1F315D8F08B3279F038F45F
S11311E0803279F08332A1F4232D20611DC08D3229
S11311F061F0803369F4232D216016C0832D826051
S1131200382EE32DE4603E2E2AC0F32DF8601DC075
S113121037FC2DC020ED280F2A3040F08E32B9F46F
S113122036FC81C1232D2064322E19C036FE06C03F
S11312308AE0989E200D1124922E11C0EAE02E9E81
S1131240200D1124222EF32DF0623F2E08C08C367F
S113125021F4832D8068382E02C0883641F4F701CA
S113126093FD859193FF81917F018111B3CF982FD5
S11312709F7D9554933028F40C5F1F4F9FE399830F
S11312800DC0833631F0833771F0833509F059C0CE
S113129021C0F801808189830E5F1F4F88248394C5
S11312A0912C530113C02801F2E04F0E511CF80198
S11312B0A080B18036FE03C0692D70E002C06FEFDC
S11312C07FEFC5010E94EC0B4C018201F32DFF77E7
S11312D03F2E16C0280122E0420E511CF801A080C6
S11312E0B18036FE03C0692D70E002C06FEF7FEF5E
S11312F0C5010E94DA0B4C01F32DF0683F2E8201E8
S113130033FC1BC0822D90E088169906B0F4B60118
S113131080E290E00E94F70B2A94F4CFF50137FCA9
S1131320859137FE81915F01B60190E00E94F70B31
S113133021102A9421E0821A91088114910471F7F2
S1131340E8C0843611F0893641F5F80137FE07C04C
S113135060817181828193810C5F1F4F08C060811D
S11313607181072E000C880B990B0E5F1F4FF32D14
S1131370FF763F2E97FF09C09095809570956195F3
S11313807F4F8F4F9F4FF0683F2E2AE030E0A3013C
S11313900E94330C882E861845C0853731F4232DDE
S11313A02F7EB22E2AE030E025C0932D997FB92EEE
S11313B08F36C1F018F4883579F0B5C0803719F04C
S11313C0883721F0B0C0E92FE061BE2EB4FE0DC015
S11313D0FB2DF460BF2E09C034FE0AC0292F2660FD
S11313E0B22E06C028E030E005C020E130E002C0A3
S11313F020E132E0F801B7FE07C06081718182818B
S113140093810C5F1F4F06C06081718180E090E082
S11314100E5F1F4FA3010E94330C882E8618FB2DEC
S1131420FF773F2E36FE0DC0232D2E7FA22E89146A
S113143058F434FE0BC032FC09C0832D8E7EA82ED6
S113144005C0B82CA32C03C0B82C01C0B92CA4FE31
S11314500FC0FE01E80DF11D8081803321F49A2D27
S1131460997EA92E09C0A2FE06C0B394B39404C009
S11314708A2D867809F0B394A3FC11C0A0FE06C09F
S1131480B21488F4280C922C9B180EC0B21460F489
S1131490B60180E290E00E94F70BB394F7CFB21448
S11314A018F42B1802C0982C212CA4FE10C0B601ED
S11314B080E390E00E94F70BA2FE17C0A1FC03C0DA
S11314C088E790E002C088E590E0B6010CC08A2D60
S11314D0867859F0A1FE02C08BE201C080E2A7FC2D
S11314E08DE2B60190E00E94F70B891438F4B6013E
S11314F080E390E00E94F70B9A94F7CF8A94F3016B
S1131500E80DF11D8081B60190E00E94F70B811077
S1131510F5CF222009F442CEB60180E290E00E9489
S1131520F70B2A94F6CFF6018681978102C08FEFDC
S11315309FEF2B96E2E10C94AD0C0F931F93CF9386
S1131540DF93869F8001879F100D969F100D1124B5
S1131550C8010E94B90AEC01009729F0A80160E0D3
S113156070E00E94E50BCE01DF91CF911F910F91A6
S113157008950F931F93CF93DF938230910510F456
S113158082E090E0E091C602F091C70220E030E0F2
S1131590A0E0B0E0309719F14081518102811381BC
S11315A048175907C8F08417950769F4109731F064
S11315B012960C93129713961C9327C00093C6029D
S11315C01093C70222C02115310519F042175307A1
S11315D018F49A01BD01EF01DF01F801DBCF2115F9
S11315E03105F9F0281B390B2430310580F48A8148
S11315F09B816115710521F0FB019383828304C0F3
S11316009093C7028093C602FE01329644C0FE0145
S1131610E20FF31F81939193225031093983288378
S11316203AC02091C4023091C502232B41F4209189
S11316300201309103013093C5022093C40220912A
S11316400001309101012115310541F42DB73EB758
S11316504091040150910501241B350BE091C40213
S1131660F091C502E217F307A0F42E1B3F0B2817D5
S1131670390778F0AC014E5F5F4F2417350748F007
S11316804E0F5F1F5093C5024093C4028193919300
S113169002C0E0E0F0E0CF01DF91CF911F910F9104
S11316A00895CF93DF93009709F481C0FC0132972A
S11316B013821282A091C602B091C702109781F4DE
S11316C020813181820F931F2091C4023091C50281
S11316D02817390751F5F093C502E093C40267C097
S11316E0ED0120E030E0CE17DF0740F44A815B8152
S11316F09E0141155105F1F0EA01F5CFD383C28370
S113170040815181840F951FC817D90759F48881E6
S11317109981840F951F0296918380838A819B818E
S1131720938382832115310529F4F093C702E09352
S1131730C6023DC0E901FB83EA8349915991C40F74
S1131740D51FEC17FD0761F480819181840F951FEB
S11317500296E90199838883828193819B838A839A
S1131760E0E0F0E012968D919C911397009719F0A8
S1131770FD01DC01F7CF8D919C9111979D012E5FA6
S11317803F4F820F931F2091C4023091C502281746
S1131790390769F4309729F41092C7021092C602EF
S11317A002C013821282B093C502A093C402DF91D7
S11317B0CF910895FC010590615070400110D8F755
S11317C0809590958E0F9F1F0895DC0101C06D9345
S11317D041505040E0F70895FC0161507040019081
S11317E00110D8F7809590958E0F9F1F08950F9341
S11317F01F93CF93DF93FB01238121FD03C08FEF60
S11318009FEF2CC022FF16C0468157812481358169
S11318104217530744F4A081B1819D012F5F3F4FCC
S1131820318320838C93268137812F5F3F4F378309
S1131830268314C08B01EC01FB010084F185E02DAB
S11318400995892BE1F6D80116968D919C911797ED
S1131850019617969C938E931697CE01DF91CF91A4
S11318601F910F910895FA01AA27283051F12031D0
S113187081F1E8946F936E7F6E5F7F4F8F4F9F4F20
S1131880AF4FB1E03ED0B4E03CD0670F781F891F62
S11318909A1FA11D680F791F8A1F911DA11D6A0F30
S11318A0711D811D911DA11D20D009F468943F91E3
S11318B02AE0269F11243019305D3193DEF6CF01E2
S11318C00895462F4770405D4193B3E00FD0C9F7A8
S11318D0F6CF462F4F70405D4A3318F0495D31FD15
S11318E04052419302D0A9F7EACFB4E0A695979568
S11318F0879577956795BA95C9F70097610571053E
S113190008959B01AC010A2E069457954795379587
S11319102795BA95C9F7620F731F841F951FA01DE1
S113192008952F923F924F925F926F927F928F927F
S11319309F92AF92BF92CF92DF92EF92FF920F935A
S11319401F93CF93DF93CDB7DEB7CA1BDB0B0FB664
S1131950F894DEBF0FBECDBF09942A883988488821
S11319605F846E847D848C849B84AA84B984C884B7
S1131970DF80EE80FD800C811B81AA81B981CE0FAE
S1131980D11D0FB6F894DEBF0FBECDBFED01089593
S1071990F894FFCFF5
S11319940000C802200004FD01000007010000004B
S11319A400000000000000000000000000660200C7
S11319B4001D010000000000000000000000000001
S11319C4000000C801000033010000000000000012
S11319D40000000000000000008A0203000000333D
S11319E40107011D01000000000000000000006C5C
S11319F40200005F0100000000000000000000007D
S1131A040000000000A501000075010000000000B2
S1131A140000000000000000000000930203000026
S1131A240075015F0149010000000000000000008E
S1131A3400052D3E004E65772047616D65004841E1
S1131A4456452046554E005072696E7420486967A5
S1131A54682053636F7265004175746F2043616C31
S1131A64696272617465204A6F790043616C6962CA
S1131A74726174696E67204A6F79737469636B0069
S1131A84444F204E4F5420544F5543480041646AF8
S1131A94757374204A6F79204465616462616E646D
S1131AA4004D6F7665204A6F7920757020746F201D
S1131AB4496E637265617365004D6F7665204A6F84
S1131AC47920646F776E20746F2064656372656136
S1131AD47365004D6F7665204A6F79204C65667492
S1131AE420746F2045786974006465616462616E72
S1131AF4643A20256400436C656172204869676810
S1131B042053636F726500486967682053636F727A
S1131B146520436C65617265640053657474696E11
S1131B246773004D61696E204D656E750043414EC7
S10F1B3420696E6974206572726F720083
S9030000FC
