:100000000C9426010C9443010C9443010C9443017D
:100010000C9443010C9443010C9443010C94430150
:100020000C9443010C9443010C9443010C94430140
:100030000C9443010C9443010C9443010C94430130
:100040000C9443010C9443010C9443010C94430120
:100050000C9443010C9443010C9443010C94430110
:100060000C9443010C9443010C9443010C94430100
:10007000000000000000005F0000000700070014FF
:100080007F147F14242A7F2A1223130864623649BE
:100090005522500005030000001C224100004122AF
:1000A0001C00082A1C2A0808083E080800503000D6
:1000B000000808080808006060000020100804021A
:1000C0003E5149453E00427F400042615149462130
:1000D00041454B311814127F1027454545393C4A9C
:1000E00049493001710905033649494936064949EC
:1000F000291E003636000000563600000008142283
:100100004114141414144122140800020151090668
:10011000324979413E7E1111117E7F494949363E6F
:10012000414141227F4141221C7F494949417F0988
:100130000901013E414151327F0808087F00417F9B
:1001400041002040413F017F081422417F40404050
:10015000407F0204027F7F0408107F3E4141413E00
:100160007F090909063E4151215E7F09192946464A
:100170004949493101017F01013F4040403F1F2073
:1001800040201F7F2018207F631408146303047825
:100190000403615149454300007F414102040810B6
:1001A0002041417F000004020102044040404040E1
:1001B000000102040020545454787F4844443838E5
:1001C00044444420384444487F3854545418087EEA
:1001D000090102081454543C7F0804047800447D4B
:1001E00040002040443D00007F10284400417F40F3
:1001F000007C041804787C080404783844444438AB
:100200007C14141408081414187C7C08040408488E
:1002100054545420043F4440203C4040207C1C2047
:1002200040201C3C4030403C44281028440C505096
:10023000503C4464544C44000836410000007F00A8
:1002400000004136080002010302010011241FBE14
:10025000CFEFD4E0DEBFCDBF13E0A0E0B1E0E8EC2B
:10026000F1E102C005900D92A434B107D9F723E063
:10027000A4E4B3E001C01D92A437B207E1F70E94E5
:10028000B1020C94E2080C940000B89A83B788601D
:1002900083BF83B7806183BF83B7816083BF8AEAEE
:1002A00080934403809346038CE380934503089531
:1002B000CF93DF93CDB7DEB728970FB6F894DEBFA4
:1002C0000FBECDBFE0E0F4E110824081208160816B
:1002D000808130E03A83298350E05C834B8370E077
:1002E0007E836D8390E098878F833A815C817E81E5
:1002F000988528960FB6F894DEBF0FBECDBFDF916C
:10030000CF910895CF93DF93CDB7DEB728970FB67F
:10031000F894DEBF0FBECDBF0E94580129833A83F7
:100320004B835C83209146038B819C81821B9109C6
:100330002091450330E0AC01992324F4442755274C
:10034000481B590B2417350734F4892F881F882739
:10035000881F8E5F16C04091440389819A81841B57
:100360009109AC0122F444275527481B590B241747
:10037000350734F4892F8095881F8827881F01C08E
:1003800084E028960FB6F894DEBF0FBECDBFDF9194
:10039000CF91089544E6489F9001499F300D112464
:1003A000A1E8B0E80E942F04880F892F881F990BBD
:1003B00091950895CF93C82F0E940B0483E00E946B
:1003C00002048C2F0E9402040E940604C82F0E947F
:1003D0000D048C2FCF910895CF93DF93D82FC62F84
:1003E0000E940B0482E00E9402048D2F0E940204EE
:1003F0008C2F0E9402040E940D04DF91CF9108957A
:100400001F93CF93DF93182FD62FC42F0E940B0476
:1004100085E00E940204812F0E9402048D2F0E9419
:1004200002048C2F0E9402040E940D04DF91CF91E0
:100430001F9108950E940B0480EC0E9402040E9408
:100440000D0408950E941A028FEF9FE20197F1F7C1
:1004500000C000008EE00E94DA01807E8038F1F456
:1004600065E088E20E94EC0161EB89E20E94EC0108
:1004700063E08AE20E94EC0163E08BE20E94EC01FF
:1004800040E060EE8FE00E9400028EE00E94DA0100
:10049000982F907E81E019F480E0089581E008951E
:1004A000A8E4B1E0B0932101A0932001B0930B0127
:1004B000A0930A01B0933701A0933601EAE8F1E076
:1004C0001596FC93EE931497F0936301E093620109
:1004D000F0937901E0937801F583E483F09353037B
:1004E000E09352030895EF92FF920F931F93CF93DF
:1004F000DF937C010E94E203D70112968D919C91BB
:10050000139718161906C4F487010A5F1F4FC0E03D
:10051000D0E06FE08C2F0E94BD03D801ED91FD91DA
:100520008D01808191810E949B032196F701828138
:100530009381C817D9076CF3DF91CF911F910F9169
:10054000FF90EF900895CF93C82F0E94C90360E0F9
:100550008C2F0E94BD0381EA91E00E949B03CF9102
:100560000895CF93DF93CDB7DEB728970FB6F894F1
:10057000DEBF0FBECDBF8D9A8C9A9498959A2FEFBF
:100580008FEF9EE0215080409040E1F700C00000D6
:100590000E9421040E940F040E9445010E944E0304
:1005A0000E9450020E94FC030E942202813031F41A
:1005B0008CE992E00E94A604949A9598C19A809141
:1005C0005203909153030E94730280E090E00E94D6
:1005D000A3020F2EFBEA8F2EF2E09F2EF02D0F2E9E
:1005E000FFECAF2EF2E0BF2EF02D0F2EF3EFCF2E4B
:1005F000F2E0DF2EF02D0F2EF4E1EF2EF3E0FF2ED0
:10060000F02D04E313E00E94580129833A834B83C1
:100610005C836D837E838F8398878AE090E00E945D
:100620009F048C818F938B818F939F928F920E94D6
:10063000890489819A810E94CA019F938F93BF92F6
:10064000AF920E9489048F8198850E94CA019F936E
:100650008F93DF92CF920E9489048D819E810E94A8
:10066000CA019F938F93FF92EF920E9489040E9488
:1006700082011F928F931F930F930E9489042FEF83
:100680008FEF9EE0215080409040E1F700C00000D5
:100690000FB6F894DEBF0FBECDBFB5CFE0E0F0E1FE
:1006A0008EEA808381EA80838AED808382E1808381
:1006B00088EC808388EA80838FE3808385ED808364
:1006C00080E8808381E8808380E5808389ED808372
:1006D00081E2808380E2808382E080838BED80836F
:1006E00080E380838DEA8083108284EA808386EAB7
:1006F00080838FEA808308959091A0019923D1F09F
:1007000090E0482F50E0405251099A01220F331FC8
:10071000220F331F420F531FA0E0B2E1FA01E90F8D
:10072000F11DE059FF4FE491EC939F5F2091A001F0
:100730009217A0F30895EF92FF920F931F93CF9318
:10074000DF938C017C01C0E0D0E006C0F70181910D
:100750007F010E947C032196F80101900020E9F7B7
:100760003197E01BF10BCE17DF0780F3DF91CF91BC
:100770001F910F91FF90EF900895806BE0E0F0E102
:100780008083862F8F70808362956F706061608335
:1007900008951F93CF93DF9360E080E00E94BD0334
:1007A00010E0C0E0D2E160E0812F0E94BD038FE045
:1007B00018828150E9F71F5F1830A9F7DF91CF91B8
:1007C0001F9108951F93CF93DF9360E080E00E9414
:1007D000BD0310E0C0E0D2E160E0812F0E94BD03C4
:1007E00080E018828F5F8038E1F71F5F1830A1F733
:1007F000DF91CF911F910895BD9ABF9ABC9A81E570
:100800008DB908958FB9779BFECF08951FB8779B58
:10081000FECF8FB10895C4980895C49A089585B7FE
:10082000806885BF86B7886086BF80B7806280BFDA
:1008300008955D9BFECF8CB908955F9BFECF8CB170
:10084000089510BC8FE189B98EE880BD88E18AB92E
:100850006DE174E089E194E00E943E040895A29F56
:10086000B001B39FC001A39F700D811D1124911D84
:10087000B29F700D811D1124911D08950F931F9338
:10088000CF93DF93009731F46115710519F480E07F
:1008900090E03AC08B01EC016EE070E081E090E006
:1008A0000E94B706FC01892B91F380E88383011530
:1008B000110571F01387028781E8838380916A03B1
:1008C00090916B03892B21F4F0936B03E0936A03FF
:1008D0002097C9F0D187C08783818260838380910C
:1008E0006C0390916D03892B71F4F0936D03E09389
:1008F0006C0380916E0390916F03892B21F4F09328
:100900006F03E0936E03CF01DF91CF911F910F91A1
:100910000895A0E0B0E0EFE8F4E00C94BB08AE016D
:100920004B5F5F4FFA0161917191AF0180916C0350
:1009300090916D030E94D604E2E00C94D708609178
:100940006C0370916D030E94110808950F931F931B
:10095000CF93DF93E0916C03F0916D03238121FF2E
:100960001BC08C01D0E0C0E0F80181918F01609143
:100970006C0370916D03DB011896ED91FC91199752
:10098000882331F00995892B79F3DFEFCFEFECCF96
:100990008AE00995892B19F08FEF9FEF02C08D2F08
:1009A0009C2FDF91CF911F910F910895ABE0B0E0A4
:1009B000ECEDF4E00C94AB086C017B018A01FC01C6
:1009C00017821682838181FFCCC1CE0101963C0142
:1009D000F6019381F70193FD859193FF81917F014A
:1009E000882309F4BAC1853239F493FD859193FFC8
:1009F00081917F01853229F4B60190E00E941108AF
:100A0000E7CF912C212C312CFFE1F315D8F08B325C
:100A100079F038F4803279F08332A1F4232D20610B
:100A20001DC08D3261F0803369F4232D216016C022
:100A3000832D8260382EE32DE4603E2E2AC0F32DF4
:100A4000F8601DC037FC2DC020ED280F2A3040F083
:100A50008E32B9F436FC81C1232D2064322E19C0A8
:100A600036FE06C08AE0989E200D1124922E11C0F9
:100A7000EAE02E9E200D1124222EF32DF0623F2E4F
:100A800008C08C3621F4832D8068382E02C0883649
:100A900041F4F70193FD859193FF81917F018111CD
:100AA000B3CF982F9F7D9554933028F40C5F1F4F40
:100AB0009FE399830DC0833631F0833771F083351E
:100AC00009F059C021C0F801808189830E5F1F4F52
:100AD00088248394912C530113C02801F2E04F0E17
:100AE000511CF801A080B18036FE03C0692D70E072
:100AF00002C06FEF7FEFC5010E9406084C01820122
:100B0000F32DFF773F2E16C0280122E0420E511C24
:100B1000F801A080B18036FE03C0692D70E002C0EC
:100B20006FEF7FEFC5010E94F4074C01F32DF068D1
:100B30003F2E820133FC1BC0822D90E0881699065F
:100B4000B0F4B60180E290E00E9411082A94F4CF3C
:100B5000F50137FC859137FE81915F01B60190E088
:100B60000E94110821102A9421E0821A9108811410
:100B7000910471F7E8C0843611F0893641F5F80127
:100B800037FE07C060817181828193810C5F1F4FA6
:100B900008C060817181072E000C880B990B0E5FD5
:100BA0001F4FF32DFF763F2E97FF09C0909580953C
:100BB000709561957F4F8F4F9F4FF0683F2E2AE0D1
:100BC00030E0A3010E944D08882E861845C0853765
:100BD00031F4232D2F7EB22E2AE030E025C0932D54
:100BE000997FB92E8F36C1F018F4883579F0B5C0E9
:100BF000803719F0883721F0B0C0E92FE061BE2EB0
:100C0000B4FE0DC0FB2DF460BF2E09C034FE0AC037
:100C1000292F2660B22E06C028E030E005C020E172
:100C200030E002C020E132E0F801B7FE07C0608189
:100C30007181828193810C5F1F4F06C06081718139
:100C400080E090E00E5F1F4FA3010E944D08882EA8
:100C50008618FB2DFF773F2E36FE0DC0232D2E7FED
:100C6000A22E891458F434FE0BC032FC09C0832D27
:100C70008E7EA82E05C0B82CA32C03C0B82C01C0B2
:100C8000B92CA4FE0FC0FE01E80DF11D8081803358
:100C900021F49A2D997EA92E09C0A2FE06C0B39414
:100CA000B39404C08A2D867809F0B394A3FC11C0D4
:100CB000A0FE06C0B21488F4280C922C9B180EC01B
:100CC000B21460F4B60180E290E00E941108B3947F
:100CD000F7CFB21418F42B1802C0982C212CA4FEC4
:100CE00010C0B60180E390E00E941108A2FE17C078
:100CF000A1FC03C088E790E002C088E590E0B6015F
:100D00000CC08A2D867859F0A1FE02C08BE201C08A
:100D100080E2A7FC8DE2B60190E00E9411088914E0
:100D200038F4B60180E390E00E9411089A94F7CF5E
:100D30008A94F301E80DF11D8081B60190E00E94D4
:100D400011088110F5CF222009F442CEB60180E2CD
:100D500090E00E9411082A94F6CFF60186819781CF
:100D600002C08FEF9FEF2B96E2E10C94C7080F9320
:100D70001F93CF93DF93869F8001879F100D969FCF
:100D8000100D1124C8010E94D306EC01009729F030
:100D9000A80160E070E00E94FF07CE01DF91CF91D3
:100DA0001F910F9108950F931F93CF93DF9382307C
:100DB000910510F482E090E0E0917203F0917303EA
:100DC00020E030E0A0E0B0E0309719F1408151819F
:100DD0000281138148175907C8F08417950769F4F1
:100DE000109731F012960C93129713961C9327C00C
:100DF000009372031093730322C02115310519F07B
:100E00004217530718F49A01BD01EF01DF01F80101
:100E1000DBCF21153105F9F0281B390B24303105C2
:100E200080F48A819B816115710521F0FB01938318
:100E3000828304C09093730380937203FE01329601
:100E400044C0FE01E20FF31F8193919322503109B8
:100E5000398328833AC02091700330917103232B8A
:100E600041F42091020130910301309371032093EA
:100E7000700320910001309101012115310541F4E9
:100E80002DB73EB74091040150910501241B350B4D
:100E9000E0917003F0917103E217F307A0F42E1BA9
:100EA0003F0B2817390778F0AC014E5F5F4F2417CE
:100EB000350748F04E0F5F1F509371034093700346
:100EC0008193919302C0E0E0F0E0CF01DF91CF91F8
:100ED0001F910F910895CF93DF93009709F481C07C
:100EE000FC01329713821282A0917203B0917303B6
:100EF000109781F420813181820F931F209170031C
:100F0000309171032817390751F5F0937103E0937D
:100F1000700367C0ED0120E030E0CE17DF0740F43A
:100F20004A815B819E0141155105F1F0EA01F5CF3F
:100F3000D383C28340815181840F951FC817D9077D
:100F400059F488819981840F951F0296918380833B
:100F50008A819B81938382832115310529F4F09343
:100F60007303E09372033DC0E901FB83EA83499177
:100F70005991C40FD51FEC17FD0761F48081918151
:100F8000840F951F0296E90199838883828193815A
:100F90009B838A83E0E0F0E012968D919C911397F9
:100FA000009719F0FD01DC01F7CF8D919C9111970D
:100FB0009D012E5F3F4F820F931F20917003309150
:100FC00071032817390769F4309729F410927303D5
:100FD0001092720302C013821282B0937103A09325
:100FE0007003DF91CF910895FC010590615070402E
:100FF0000110D8F7809590958E0F9F1F0895DC0102
:1010000001C06D9341505040E0F70895FC016150DC
:10101000704001900110D8F7809590958E0F9F1F1A
:1010200008950F931F93CF93DF93FB01238121FD3D
:1010300003C08FEF9FEF2CC022FF16C0468157815F
:10104000248135814217530744F4A081B1819D0169
:101050002F5F3F4F318320838C93268137812F5F11
:101060003F4F3783268314C08B01EC01FB010084C2
:10107000F185E02D0995892BE1F6D80116968D9121
:101080009C911797019617969C938E931697CE0175
:10109000DF91CF911F910F910895FA01AA2728306F
:1010A00051F1203181F1E8946F936E7F6E5F7F4F35
:1010B0008F4F9F4FAF4FB1E03ED0B4E03CD0670FB1
:1010C000781F891F9A1FA11D680F791F8A1F911D04
:1010D000A11D6A0F711D811D911DA11D20D009F454
:1010E00068943F912AE0269F11243019305D319396
:1010F000DEF6CF010895462F4770405D4193B3E07F
:101100000FD0C9F7F6CF462F4F70405D4A3318F025
:10111000495D31FD4052419302D0A9F7EACFB4E0D6
:10112000A6959795879577956795BA95C9F700978E
:101130006105710508959B01AC010A2E069457952F
:10114000479537952795BA95C9F7620F731F841F86
:10115000951FA01D08952F923F924F925F926F921C
:101160007F928F929F92AF92BF92CF92DF92EF9237
:10117000FF920F931F93CF93DF93CDB7DEB7CA1BB8
:10118000DB0B0FB6F894DEBF0FBECDBF09942A88E3
:10119000398848885F846E847D848C849B84AA848B
:1011A000B984C884DF80EE80FD800C811B81AA8118
:1011B000B981CE0FD11D0FB6F894DEBF0FBECDBFE3
:0811C000ED010895F894FFCF42
:1011C800000074032000FC0100000601000000007C
:1011D80000000000000000000000000065020000A0
:1011E8001C010000000000000000000000000000DA
:1011F8000000C701000032010000000000000000EC
:101208000000000000000000890203000000320115
:1012180006011C01000000000000000000006B0235
:1012280000005E0100000000000000000000000057
:1012380000000000A401000074010000000000008C
:1012480000000000000000000000920203000000FF
:1012580074015E0148010000000000000000000069
:10126800052D3E004E65772047616D650048415663
:10127800452046554E005072696E7420486967686B
:101288002053636F7265004175746F2043616C6908
:101298006272617465204A6F790043616C69627299
:1012A8006174696E67204A6F79737469636B00446F
:1012B8004F204E4F5420544F5543480041646A759F
:1012C8007374204A6F79204465616462616E6400BA
:1012D8004D6F7665204A6F7920757020746F2049AC
:1012E8006E637265617365004D6F7665204A6F792C
:1012F80020646F776E20746F206465637265617314
:1013080065004D6F7665204A6F79204C65667420BC
:10131800746F2045786974006465616462616E6405
:101328003A20256400436C6561722048696768202B
:1013380053636F726500486967682053636F72650D
:1013480020436C65617265640053657474696E67E7
:1013580073004D61696E204D656E750043414E20E6
:10136800696E6974206572726F720041444320434C
:101378006831207265616420286A6F7973746963C3
:101388006B20792D6178697329202534640A00411E
:10139800444320436832207265616420286A6F796B
:1013A800737469636B20782D6178697329202534FB
:1013B800640A004144432043683320726561642015
:1013C80028726967687420736C69646572292025BE
:1013D80034640A00414443204368342072656164E0
:1013E80020286C65667420736C69646572292025F1
:1013F80034640A00446972656374696F6E3A202523
:04140800780A00005E
:00000001FF
