:100000000C94B1020C94CE020C94CE020C94CE024D
:100010000C94CE020C94CE020C94CE020C94CE0220
:100020000C94CE020C94CE020C94CE020C94CE0210
:100030000C94CE020C94CE020C94CE020C94CE0200
:100040000C94CE020C94CE020C94CE020C94CE02F0
:100050000C94CE020C94CE020C94CE020C94CE02E0
:100060000C94CE020C94CE020C94CE020C94CE02D0
:100070004C033903240317030303EB02D102BB0231
:10008000A702A2029D02980293027E0267025D020D
:1000900045022B021B020702F801E701DB01CD013B
:1000A000BF01A801A00196018C01830178016701BD
:1000B0005E014B0137012E0124011A010901FB00E9
:1000C000F100E400DB00DA00D900D800D700D60048
:1000D000D500D40000000000000000484156452033
:1000E00046554E006465616462616E643A20256421
:1000F0000053636F72653A20256400535049206CA9
:100100006F6F70206261636B0052532D3233322067
:100110006C6F6F70206261636B005352414D2074AD
:10012000657374004F4C45442074657374004144FA
:100130004320746573740041646A757374204A6F58
:1001400079204465616462616E64004175746F205A
:1001500043616C696272617465204A6F790053650E
:100160007474696E677300436C65617220486967D7
:10017000682053636F726500486967682053636F36
:100180007265004E65772047616D65004D61696E4F
:10019000204D656E75002D205353206869676800F7
:1001A0002D20536C617665002745787465726E6109
:1001B0006C272053504920636F6E6669673A002DA3
:1001C00020322053746F702062697473002D2038C0
:1001D00020446174612062697473002D204261754E
:1001E000642039363030002D204C6F6F70206261F2
:1001F000636B206D6F64650052532D323332206380
:100200006F6E6669673A005352414D20746573748E
:100210002066696E69736865643A00546573746931
:100220006E67205352414D2E2E2E004D6F76652065
:100230006A6F7920726967687420746F20636F6ECB
:100240006669726D004E422120616C6C206461749D
:10025000612069732064656C657465640053524164
:100260004D207465737400457869742077697468EB
:10027000206C656674202B207269676874004A6F71
:1002800079202020204C6566742020202052696748
:1002900074680043482033004368203200436820DC
:1002A0003100436820300030202020202056616C2F
:1002B00075652020202020323535004D6F76652071
:1002C0006A6F79206C65667420746F206578697434
:1002D000004D6F7665206A6F7920646F776E2074A9
:1002E0006F206465637265617365004D6F7665208C
:1002F0006A6F7920757020746F20696E6372656112
:1003000073650041646A757374204A6F792044658F
:10031000616462616E6400444F204E4F5420544F1C
:100320005543480043616C6962726174696E67206D
:100330004A6F79737469636B0048696768207363F7
:100340006F726520636C6561726564005072696EDE
:100350007420686967682073636F7265000000002D
:10036000000000005F00000007000700147F147FFA
:1003700014242A7F2A122313086462364955225016
:100380000005030000001C2241000041221C00085F
:100390002A1C2A0808083E080800503000000808F7
:1003A000080808006060000020100804023E51495F
:1003B000453E00427F400042615149462141454B44
:1003C000311814127F1027454545393C4A494930B8
:1003D00001710905033649494936064949291E0074
:1003E000363600000056360000000814224114146E
:1003F00014141441221408000201510906324979EB
:10040000413E7E1111117E7F494949363E414141AD
:10041000227F4141221C7F494949417F090901014D
:100420003E414151327F0808087F00417F41002052
:1004300040413F017F081422417F404040407F02FD
:1004400004027F7F0408107F3E4141413E7F09093D
:1004500009063E4151215E7F09192946464949490D
:100460003101017F01013F4040403F1F2040201FDC
:100470007F2018207F631408146303047804036149
:100480005149454300007F41410204081020414189
:100490007F0000040201020440404040400001028D
:1004A000040020545454787F484444383844444429
:1004B00020384444487F3854545418087E090102B7
:1004C000081454543C7F0804047800447D40002004
:1004D00040443D00007F10284400417F40007C04E0
:1004E0001804787C0804047838444444387C141494
:1004F0001408081414187C7C080404084854545444
:1005000020043F4440203C4040207C1C2040201CD4
:100510003C4030403C44281028440C5050503C444F
:1005200064544C44000836410000007F0000004144
:10053000360800020103020151053C055265747240
:10054000696576616C206572726F72733A202564FA
:10055000005772697465206572726F72733A202554
:10056000640011241FBECFEFD4E0DEBFCDBF12E088
:10057000A0E0B1E0E0E6F7E202C005900D92AE32F5
:10058000B107D9F722E0AEE2B2E001C01D92A03778
:10059000B207E1F70E94A40A0C94AE130C94000079
:1005A000B89A83B7886083BF83B7806183BF83B7FE
:1005B000816083BF8AEA80933002809333028CE3A8
:1005C000809332020895CF93DF93CDB7DEB728979B
:1005D0000FB6F894DEBF0FBECDBFE0E0F4E11082AD
:1005E000408120816081808130E03A83298350E01E
:1005F0005C834B8370E07E836D8390E098878F836C
:100600003A815C817E81988528960FB6F894DEBF8A
:100610000FBECDBFDF91CF9108958F929F92AF9281
:10062000BF92CF92DF92EF92FF920F931F93CF93DF
:10063000DF93CDB7DEB728970FB6F894DEBF0FBEB5
:10064000CDBF0E94E3020AE010E00E94E30229838A
:100650003A834B835C8369817A8180E090E00E94D9
:100660009B0D9B01AC01C501B4010E948E0C4B0196
:100670005C016B817C8180E090E00E949B0D9B017E
:10068000AC01C701B6010E948E0C6B017C010150C8
:100690001109D9F620E030E040E251E4C501B4018F
:1006A0000E94FA0C0E946C0D6093300220E030E052
:1006B00040E251E4C701B6010E94FA0C0E946C0DA1
:1006C0006093330228960FB6F894DEBF0FBECDBFFD
:1006D000DF91CF911F910F91FF90EF90DF90CF901E
:1006E000BF90AF909F908F900895CF93DF93CDB739
:1006F000DEB728970FB6F894DEBF0FBECDBF0E94BD
:10070000E30229833A834B835C83209133028B81FC
:100710009C81821B91092091320230E0AC01992327
:1007200024F444275527481B590B2417350734F464
:10073000892F881F8827881F8E5F16C0409130023E
:1007400089819A81841B9109AC0122F444275527A1
:10075000481B590B2417350734F4892F8095881FBF
:100760008827881F01C084E028960FB6F894DEBF62
:100770000FBECDBFDF91CF910895CF930E94750337
:10078000C82F2FEF8FE791E0215080409040E1F794
:1007900000C000C00E947503C81384E0CF91089583
:1007A000CF93C82F0E94C90B83E00E94C00B8C2FEF
:1007B0000E94C00B0E94C40BC82F0E94CB0B8C2F31
:1007C000CF910895CF93DF93D82FC62F0E94C90BE6
:1007D00082E00E94C00B8D2F0E94C00B8C2F0E94C4
:1007E000C00B0E94CB0BDF91CF9108951F93CF9345
:1007F000DF93182FD62FC42F0E94C90B85E00E94CB
:10080000C00B812F0E94C00B8D2F0E94C00B8C2F1C
:100810000E94C00B0E94CB0BDF91CF911F910895D6
:10082000CF93C82F0E94C90B8C2F0E94C00B0E942F
:10083000CB0BCF9108950E94C90B80EC0E94C00B96
:100840000E94CB0B08950E941B048FEF9FE201973B
:10085000F1F700C000008EE00E94D003807E803857
:10086000F1F465E088E20E94E20361EB89E20E9414
:10087000E20363E08AE20E94E20363E08BE20E940B
:10088000E20340E060EE8FE00E94F6038EE00E94FB
:10089000D003982F907E81E019F480E0089581E0E4
:1008A00008950F931F93CF938C01FC016081718198
:1008B00076956795769567957695679581E30E941D
:1008C000E203F80160816295660F607E82E30E9418
:1008D000E203F801628185E30E94E203F80182816C
:1008E000882371F0C0E0F801EC0FF11D638186E30D
:1008F0008C0F0E94E203CF5FF8018281C81798F342
:1009000081E80E941004CF911F910F9108958F925A
:100910009F92AF92BF92CF92DF92EF92FF920F938E
:100920001F93CF93DF93CDB7DEB72B970FB6F89415
:10093000DEBF0FBECDBF5C01862EFE0131968BE07F
:10094000DF011D928A95E9F7B1E06B1302C01AE04E
:1009500001C010E081E6810F0E94D003C82E82E61C
:10096000810F0E94D003D12CCC0CDD1CCC0CDD1CE3
:10097000CC0CDD1C829586958770C80ED11C85E64F
:10098000810F0E94D003982EE8E0E81718F46894CD
:10099000992493F8992081F01A597E01F4E0EF0E22
:1009A000F11C012F090D812F0E94D003D7018D93D7
:1009B0007D011F5F1013F7CF61E0680D40E08CE20E
:1009C0000E94F603DA82C9829B828BE0FE01319697
:1009D000D50101900D928A95E1F7C5012B960FB6CE
:1009E000F894DEBF0FBECDBFDF91CF911F910F9165
:1009F000FF90EF90DF90CF90BF90AF909F908F903F
:100A000008958CE20E94D003982F91709093350244
:100A10008270809334020895EBE5F1E0F093EA01EF
:100A2000E093E901F093D601E093D501F093C20180
:100A3000E093C101F093AE01E093AD01F0939A0110
:100A4000E0939901F0938601E0938501F0937201A0
:100A5000E0937101ABE0B1E0B383A283B0934A01AC
:100A6000A0934901B0933601A0933501B0932201C0
:100A7000A09321010A2E1B2E13961C920E92112474
:100A80001297B0934D02A0934C020895EF92FF92FB
:100A90000F931F93CF93DF937C010E94820BD701AA
:100AA00011968C91882321F187010C5F1F4FC0E0C4
:100AB000D0E06FE08C2F0E94450BD801ED91FD91A5
:100AC0008D01E081F0E0EE0FFF1FE059FF4F6591CF
:100AD000749189E592E00E94940E89E592E00E946B
:100AE000230B2196F701818190E0C817D9070CF3F9
:100AF000DF91CF911F910F91FF90EF900895880F94
:100B0000991FFC01E059FF4F6591749189E592E0CE
:100B10000E94940E89E592E00E94230B0895CF93E2
:100B2000C82F0E94690B60E08C2F0E94450B8CEF50
:100B300091E00E94230BCF910895E0914C02F09137
:100B40004D020296880F991FE80FF91F808191814D
:100B500090934D0280934C0260E080E00E94450B30
:100B600080914C0290914D020E94460560E080E029
:100B70000E94450B80E090E00E948F0580E090E0AD
:100B80000895E0914C02F0914D02828193819093FF
:100B90004D0280934C0260E080E00E94450B809102
:100BA0004C0290914D020E94460560E080E00E9458
:100BB000450B80E090E00E948F0580E090E0089572
:100BC0002F923F924F925F926F927F928F929F925D
:100BD000AF92BF92CF92DF92EF92FF920F931F934B
:100BE000CF93DF93CDB7DEB7A1970FB6F894DEBFF2
:100BF0000FBECDBFE0914C02F0914D0280818D314E
:100C000009F03BC16BE283E00E94450B8AE290E071
:100C10000E947F052FEF8FEF92E02150804090409F
:100C2000E1F700C000C0829914C00E9401058091C4
:100C30003502813029F460E0CE0101960E948704DC
:100C400080913402813029F461E0CE0101960E9446
:100C50008704E6E3F2E084E090E09183808382E021
:100C6000828313821482CF010E94510418A20F2E96
:100C7000FEE4EF2EF2E0FF2EF02D6894AA24A1F8F6
:100C8000B12C2224239401E412E00F2EF3E0CF2EA6
:100C9000D12CF02D6894332431F80F2EFBE18F2EE8
:100CA000F2E09F2EF02D0F2EFDE06F2EF2E07F2E52
:100CB000F02DB19916C0F701B182A0822282238261
:100CC000C7010E94510480E090EF0197F1F7B19BBA
:100CD000FECFF701B182A08222821382C7010E9457
:100CE00051040E94E30229833A834B835C836D8322
:100CF0007E838F839887F801D182C08232822383DA
:100D00004483C8010E9451048CEC9CE40197F1F7E4
:100D100000C000008299CDCF8FEF91E00E94FC0EC1
:100D20000E94010580913502813009F06AC385E097
:100D300092E00E94FC0E60E0CE0145960E9487047E
:100D40008BE0FE017596AAE5B2E001900D928A95BE
:100D5000E1F70F2EFAE54F2EF2E05F2EF02DF201B3
:100D600081818F9380818F937F926F920E94E60E94
:100D70000F900F900F900F90F20180819181019759
:100D800009F03FC3238128A3848189A38091340281
:100D9000813081F501C019A285E092E00E94FC0E2D
:100DA000622DCE0145960E9487048BE0FE01759668
:100DB000AAE5B2E001900D928A95E1F70F2EFAE5CF
:100DC0004F2EF2E05F2EF02DF20181818F93808112
:100DD0008F939F928F920E94E60E0F900F900F902C
:100DE0000F90F20180819181019721F4238128A342
:100DF000848189A399A1992309F45BCF0E94820B76
:100E0000E0ECF0E06591749189E592E00E94940E27
:100E10001F92E8A1EF9389E592E09F938F938E0153
:100E20000F5F1F4F1F930F930E942C0F68E283E008
:100E30000E94450BC8010E94230B60E087E00E94DE
:100E4000450B87E090E00E947F050E94BD030F9054
:100E50000F900F900F900F900F90882321F00E9419
:100E6000BD038111FCCFFFEF2FEF82E0F150204056
:100E70008040E1F700C000C0CAC28E3191F468E141
:100E800083E00E94450B80E090E00E947F059FEF89
:100E9000EFEFFDE19150E040F040E1F700C00000CD
:100EA000B6C28F3191F463E183E00E94450B81E08B
:100EB00090E00E947F052FEF8FEF9DE12150804051
:100EC0009040E1F700C00000A2C2813229F56EE037
:100ED00083E00E94450B82E090E00E947F0562E281
:100EE00084E00E94450B83E090E00E947F05EFEFD5
:100EF000FFEF2DE1E150F0402040E1F700C000009D
:100F00000E940D038FEF9FEFEDE181509040E04094
:100F1000E1F700C000007BC2823209F06BC060E0E4
:100F200080E00E94450B84E090E00E947F0560E035
:100F300081E00E94450B85E090E00E947F0560E023
:100F400082E00E94450B86E090E00E947F0560E011
:100F500087E00E94450B87E090E00E947F050E9499
:100F6000BD03882309F43CC00F2EF2ECCF2EF0E035
:100F7000DF2EF02DCE0101967C010E94BD03182FBB
:100F8000823031F4809132028F5F8093320207C049
:100F9000833029F480913202815080933202F6012D
:100FA0006591749189E592E00E94940E80913202DD
:100FB0001F928F9389E592E09F938F93FF92EF9218
:100FC0000E942C0F84E00E94510BC7010E94230B4A
:100FD0000F900F900F900F900F900F901111CDCF99
:100FE0009FEFEFEFF2E09150E040F040E1F700C0FA
:100FF00000C00DC2833209F0FDC06EE180E00E94A6
:10100000450B88E090E00E947F0561E081E00E944E
:10101000450B89E090E00E947F0561E082E00E943C
:10102000450B8AE090E00E947F0561E083E00E942A
:10103000450B8BE090E00E947F0561E084E00E9418
:10104000450B8CE090E00E947F0569E186E00E94FC
:10105000450B8DE090E00E947F0560E087E00E94F4
:10106000450B8EE090E00E947F050E94E3022983F9
:101070003A834B835C836D837E838F839887ACC078
:101080000E94E30229833A834B835C836D837E83D2
:101090008F8398876EE181E00E945C0B6B817C817D
:1010A00080E090E00E949B0D2DEC3CEC4CE250E483
:1010B0000E94FA0C20E030E040EF51E40E948E0CD8
:1010C0000E946C0D81E00E94450B89E292E00E9433
:1010D000230B6EE182E00E945C0B69817A8180E0E3
:1010E00090E00E949B0D2DEC3CEC4CE250E40E9401
:1010F000FA0C20E030E040EF51E40E948E0C0E9498
:101100006C0D82E00E94450B89E292E00E94230B65
:101110006EE183E00E945C0B6D817E8180E090E057
:101120000E949B0D2DEC3CEC4CE250E40E94FA0C2A
:1011300020E030E040EF51E40E948E0C0E946C0DE4
:1011400083E00E94450B89E292E00E94230B6EE14E
:1011500084E00E945C0B6F81788580E090E00E94C3
:101160009B0D2DEC3CEC4CE250E40E94FA0C20E08C
:1011700030E040EF51E40E948E0C0E946C0D84E040
:101180000E94450B89E292E00E94230B6EE185E00C
:101190000E945C0BB19908C06EE185E00E94450B8E
:1011A0008BE292E00E94230BB29B08C063E485E0CF
:1011B0000E94450B8BE292E00E94230BB39B08C078
:1011C0006EE685E00E94450B8BE292E00E94230BC5
:1011D00080E090EF0197F1F7B29B52CFB39B50CFD5
:1011E0009FEFEFEFF2E09150E040F040E1F700C0F8
:1011F00000C00DC18432E9F40E949C0B2FEF8FE7F1
:1012000091E0215080409040E1F700C000C00E9472
:10121000BD03882321F00E94BD038111FCCFEFEFB5
:10122000FFEF22E0E150F0402040E1F700C000C0B5
:10123000EEC0853209F056C060E080E00E94450BA8
:101240008FE090E00E947F0560E081E00E94450B06
:1012500080E190E00E947F0560E086E00E94450BFF
:1012600081E190E00E947F0560E087E00E94450BED
:1012700087E090E00E947F050E94BD03882341F132
:101280000E94BD03813011F50E94510B86E00E943F
:10129000510B80E00E94510B82E190E00E947F059B
:1012A0000E94D70B80E00E94510B60E080E00E941A
:1012B000450B83E190E00E947F050E94BD038823D7
:1012C00039F00E94BD038111FCCF02C08111D8CF3B
:1012D0008FEF9FEFE2E081509040E040E1F700C0E7
:1012E00000C095C0863209F048C060E080E00E94EE
:1012F000450B84E190E00E947F0560E081E00E9460
:10130000450B85E190E00E947F0560E082E00E944D
:10131000450B86E190E00E947F0560E083E00E943B
:10132000450B87E190E00E947F0560E084E00E9429
:10133000450B88E190E00E947F0560E087E00E9415
:10134000450B87E090E00E947F050E94BD03882343
:1013500051F00E94BD03182F5F9B03C08CB10E9407
:10136000770C1111F6CFFFEF2FEF82E0F150204004
:101370008040E1F700C000C04AC0873209F047C092
:1013800060E080E00E94450B89E190E00E947F05CB
:1013900060E081E00E94450B85E190E00E947F05BE
:1013A00060E082E00E94450B8AE190E00E947F05A8
:1013B00060E083E00E94450B8BE190E00E947F0596
:1013C00060E087E00E94450B87E090E00E947F0587
:1013D0000E94BD03882359F00E94BD03182F8B9BE8
:1013E00004C00E94C40B0E94C00B1111F5CF9FEFE7
:1013F000EFEFF2E09150E040F040E1F700C000C0B4
:1014000006C080913402813009F053CCC4CCA1963F
:101410000FB6F894DEBF0FBECDBFDF91CF911F9105
:101420000F91FF90EF90DF90CF90BF90AF909F9083
:101430008F907F906F905F904F903F902F90089586
:10144000CF930E94BD03C82F80910A01C81709F4E9
:1014500079C0C13009F446C008F468C0C23019F040
:10146000C33001F16DC080912E0290912F021816A9
:10147000190634F4019790932F0280932E020BC02B
:10148000E0914C02F0914D02818190E001979093A0
:101490002F0280932E0280912E0290912F020E94A3
:1014A0008F054EC020912E0230912F02E0914C0208
:1014B000F0914D02818190E00197281739073CF4A3
:1014C0002F5F3F4F30932F0220932E0204C01092C3
:1014D0002F0210922E0280912E0290912F020E94D4
:1014E0008F052EC080912E0290912F020E949D05A3
:1014F00090932F0280932E02E0914C02F0914D02C6
:10150000818181111DC00E94820B80912E029091D9
:101510002F020E94E00580912E0290912F020E94DE
:10152000C10590932F0280932E020AC080912E0253
:1015300090912F020E94C10590932F0280932E025A
:10154000C0930A01CF9108958D9A8C9A9498959A98
:10155000C19A939A2FEF8FEF9EE0215080409040E8
:10156000E1F700C000000E947F0C0E94CD0B0E949A
:10157000D0020E94D60A0E940C050E94BA0B0E945B
:1015800023048093310280914C0290914D020E947D
:10159000460580E090E00E948F0580913102813005
:1015A00011F4949A95980E94200AF7CFE0E0F0E1B8
:1015B0008EEA808381EA80838AED808382E1808362
:1015C00088EC808388EA80838FE3808385ED808345
:1015D00080E8808381E8808380E5808389ED808353
:1015E00081E2808380E2808382E080838BED808350
:1015F00080E380838DEA8083108284EA808386EA98
:1016000080838FEA808308959091FB019923D1F024
:1016100090E0482F50E0405251099A01220F331FA9
:10162000220F331F420F531FA0E0B2E1FA01E90F6E
:10163000F11DE35AFC4FE491EC939F5F2091FB0175
:101640009217A0F30895EF92FF920F931F93CF93F9
:10165000DF938C017C01C0E0D0E006C0F7018191EE
:101660007F010E94040B2196F80101900020E9F708
:101670003197E01BF10BCE17DF0780F3DF91CF919D
:101680001F910F91FF90EF900895806BE0E0F0E1E3
:101690008083862F8F70808362956F706061608316
:1016A000089560E00E94450B80E0E0E0F2E11082E6
:1016B0008F5F8038E1F70895CF93C62F0E94450BC6
:1016C000CC232CF0E0E0F2E11082CF5FEAF7CF917B
:1016D00008951F93CF93DF9360E080E00E94450B55
:1016E00010E0C0E0D2E160E0812F0E94450B8FE066
:1016F00018828150E9F71F5F1830A9F7DF91CF9169
:101700001F9108951F93CF93DF9360E080E00E94C4
:10171000450B10E0C0E0D2E160E0812F0E94450B54
:1017200080E018828F5F8038E1F71F5F1830A1F7E3
:10173000DF91CF911F9108950F931F93CF93DF9364
:1017400060E080E00E94450BD0E000E012E1CFEFC6
:1017500060E08D2F0E94450B80E0F801C0838F5F11
:101760008038D9F7DF5FD83099F7DF91CF911F919B
:101770000F910895BD9ABF9ABC9A81E58DB90895DD
:101780008FB9779BFECF08951FB8779BFECF8FB19F
:101790000895C4980895C49A089585B7806885BF50
:1017A00086B7886086BF80B7806280BF0895CF9279
:1017B000DF92EF92FF920F931F93CF93DF93CDB7FA
:1017C000DEB7A8970FB6F894DEBF0FBECDBF2FEFE0
:1017D0008FE791E0215080409040E1F700C000C0C9
:1017E0000E94840E6C010E94890E00E018E1E12C39
:1017F000F12C0E94840EF80180839081891719F0E2
:10180000FFEFEF1AFF0A0F5F1F4F011520E21207CB
:1018100081F7C6010E94890E00E018E1C12CD12C8D
:101820000E94840EF8019081981719F0FFEFCF1AEB
:10183000DF0A0F5F1F4F011520E2120789F78FEFB4
:101840009FE7E1E081509040E040E1F700C000C038
:10185000E8E3F5E06591749185E692E00E94940ECC
:10186000FF92EF9205E612E01F930F93CE010196CF
:101870007C019F938F930E942C0F81E00E94510B5B
:1018800060E081E00E94450BC7010E94230BEAE360
:10189000F5E065917491C8010E94940EDF92CF9299
:1018A0001F930F938E010B5E1F4F1F930F930E9488
:1018B0002C0F82E00E94510B60E082E00E94450BF9
:1018C000C8010E94230B0FB6F894DEBF0FBECDBF38
:1018D000A8960FB6F894DEBF0FBECDBFDF91CF91B3
:1018E0001F910F91FF90EF90DF90CF9008955D9B37
:1018F000FECF8CB908955F9BFECF8CB1089510BCCC
:101900008FE189B98EE880BD88E18AB96BE77CE018
:1019100087E79CE00E949B0E08955058BB27AA279A
:101920000E94A50C0C94EF0D0E94E10D38F00E946E
:10193000E80D20F039F49F3F19F426F40C94DE0DE5
:101940000EF4E095E7FB0C94D80DE92F0E94000EF1
:1019500058F3BA17620773078407950720F079F4E4
:10196000A6F50C94220E0EF4E0950B2EBA2FA02DA6
:101970000B01B90190010C01CA01A0011124FF273C
:10198000591B99F0593F50F4503E68F11A16F04037
:10199000A22F232F342F4427585FF3CF4695379536
:1019A0002795A795F0405395C9F77EF41F16BA0BFB
:1019B000620B730B840BBAF09150A1F0FF0FBB1FA9
:1019C000661F771F881FC2F70EC0BA0F621F731FF2
:1019D000841F48F4879577956795B795F7959E3F4F
:1019E00008F0B0CF9395880F08F09927EE0F9795E0
:1019F000879508950E940E0D0C94EF0D0E94E80D3E
:101A000058F00E94E10D40F029F45F3F29F00C945A
:101A1000D80D51110C94230E0C94DE0D0E94000E73
:101A200068F39923B1F3552391F3951B550BBB270D
:101A3000AA2762177307840738F09F5F5F4F220F52
:101A4000331F441FAA1FA9F335D00E2E3AF0E0E849
:101A500032D091505040E695001CCAF72BD0FE2F93
:101A600029D0660F771F881FBB1F26173707480727
:101A7000AB07B0E809F0BB0B802DBF01FF279358DF
:101A80005F4F3AF09E3F510578F00C94D80D0C94BE
:101A9000230E5F3FE4F3983ED4F3869577956795E0
:101AA000B795F7959F5FC9F7880F911D9695879514
:101AB00097F90895E1E0660F771F881FBB1F621733
:101AC00073078407BA0720F0621B730B840BBA0BF1
:101AD000EE1F88F7E09508950E94080E88F09F5742
:101AE00098F0B92F9927B751B0F0E1F0660F771F42
:101AF000881F991F1AF0BA95C9F714C0B13091F038
:101B00000E94220EB1E008950C94220E672F782FC8
:101B10008827B85F39F0B93FCCF3869577956795FC
:101B2000B395D9F73EF490958095709561957F4F68
:101B30008F4F9F4F0895E89409C097FB3EF490950E
:101B40008095709561957F4F8F4F9F4F9923A9F096
:101B5000F92F96E9BB279395F69587957795679525
:101B6000B795F111F8CFFAF4BB0F11F460FF1BC069
:101B70006F5F7F4F8F4F9F4F16C0882311F096E9FC
:101B800011C0772321F09EE8872F762F05C06623AA
:101B900071F096E8862F70E060E02AF09A95660F63
:101BA000771F881FDAF7880F9695879597F908951C
:101BB00097F99F6780E870E060E008959FEF80EC00
:101BC000089500240A9416161706180609060895A3
:101BD00000240A9412161306140605060895092E09
:101BE0000394000C11F4882352F0BB0F40F4BF2B78
:101BF00011F460FF04C06F5F7F4F8F4F9F4F0895B8
:101C000057FD9058440F551F59F05F3F71F04795AD
:101C1000880F97FB991F61F09F3F79F08795089592
:101C2000121613061406551FF2CF4695F1DF08C0B1
:101C3000161617061806991FF1CF869571056105CE
:101C400008940895E894BB2766277727CB0197F976
:101C50000895A29FB001B39FC001A39F700D811D85
:101C60001124911DB29F700D811D1124911D0895A5
:101C70008F929F92AF92BF92CF92DF92EF92FF929C
:101C8000CF93DF93EC01688179818A819B81611513
:101C900071058105910521F464E279ED8BE597E00A
:101CA0002DE133EF41E050E00E94231349015A0136
:101CB0009B01AC01A7EAB1E40E9442136B017C01D5
:101CC000ACEEB4EFA50194010E945013DC01CB01EE
:101CD0008C0D9D1DAE1DBF1DB7FF03C00197A1094F
:101CE000B04888839983AA83BB839F77DF91CF9184
:101CF000FF90EF90DF90CF90BF90AF909F908F902C
:101D000008950E94380E089580E091E00E94380EF8
:101D10000895A0E0B0E08093000190930101A093AA
:101D20000201B09303010895FB01DC0105900D92BF
:101D30000020E1F708950F931F93CF93DF9300974F
:101D400031F46115710519F480E090E03AC08B011F
:101D5000EC016EE070E081E090E00E942F11FC0148
:101D6000892B91F380E883830115110571F01387A6
:101D7000028781E883838091660290916702892BB4
:101D800021F4F0936702E09366022097C9F0D187AF
:101D9000C087838182608383809168029091690209
:101DA000892B71F4F0936902E093680280916A02D2
:101DB00090916B02892B21F4F0936B02E0936A02FD
:101DC000CF01DF91CF911F910F910895A0E0B0E076
:101DD000ECEEFEE00C946513AE014B5F5F4FFA0131
:101DE00061917191AF0180916802909169020E94A6
:101DF0004E0FE2E00C9481130F931F93CF93DF9368
:101E0000E0916802F0916902238121FF1BC08C01DF
:101E1000D0E0C0E0F80181918F016091680270917B
:101E20006902DB011896ED91FC911997882331F036
:101E30000995892B79F3DFEFCFEFECCF8AE0099595
:101E4000892B19F08FEF9FEF02C08D2F9C2FDF9110
:101E5000CF911F910F910895AEE0B0E0E2E3FFE073
:101E60000C9463130D891E8986E08C831A83098381
:101E70008FEF9FE79E838D83AE01475E5F4F6F8933
:101E8000788DCE0101960E944E0FEF81F885E00F0C
:101E9000F11F10822E96E4E00C947F13ABE0B0E0CB
:101EA000E4E5FFE00C9455136C017B018A01FC0111
:101EB00017821682838181FFCCC1CE0101963C013D
:101EC000F6019381F70193FD859193FF81917F0145
:101ED000882309F4BAC1853239F493FD859193FFC3
:101EE00081917F01853229F4B60190E00E94891228
:101EF000E7CF912C212C312CFFE1F315D8F08B3258
:101F000079F038F4803279F08332A1F4232D206106
:101F10001DC08D3261F0803369F4232D216016C01D
:101F2000832D8260382EE32DE4603E2E2AC0F32DEF
:101F3000F8601DC037FC2DC020ED280F2A3040F07E
:101F40008E32B9F436FC81C1232D2064322E19C0A3
:101F500036FE06C08AE0989E200D1124922E11C0F4
:101F6000EAE02E9E200D1124222EF32DF0623F2E4A
:101F700008C08C3621F4832D8068382E02C0883644
:101F800041F4F70193FD859193FF81917F018111C8
:101F9000B3CF982F9F7D9554933028F40C5F1F4F3B
:101FA0009FE399830DC0833631F0833771F0833519
:101FB00009F059C021C0F801808189830E5F1F4F4D
:101FC00088248394912C530113C02801F2E04F0E12
:101FD000511CF801A080B18036FE03C0692D70E06D
:101FE00002C06FEF7FEFC5010E947E124C0182019B
:101FF000F32DFF773F2E16C0280122E0420E511C20
:10200000F801A080B18036FE03C0692D70E002C0E7
:102010006FEF7FEFC5010E946C124C01F32DF06849
:102020003F2E820133FC1BC0822D90E0881699065A
:10203000B0F4B60180E290E00E9489122A94F4CFB5
:10204000F50137FC859137FE81915F01B60190E083
:102050000E94891221102A9421E0821A9108811489
:10206000910471F7E8C0843611F0893641F5F80122
:1020700037FE07C060817181828193810C5F1F4FA1
:1020800008C060817181072E000C880B990B0E5FD0
:102090001F4FF32DFF763F2E97FF09C09095809537
:1020A000709561957F4F8F4F9F4FF0683F2E2AE0CC
:1020B00030E0A3010E94C512882E861845C08537DE
:1020C00031F4232D2F7EB22E2AE030E025C0932D4F
:1020D000997FB92E8F36C1F018F4883579F0B5C0E4
:1020E000803719F0883721F0B0C0E92FE061BE2EAB
:1020F000B4FE0DC0FB2DF460BF2E09C034FE0AC033
:10210000292F2660B22E06C028E030E005C020E16D
:1021100030E002C020E132E0F801B7FE07C0608184
:102120007181828193810C5F1F4F06C06081718134
:1021300080E090E00E5F1F4FA3010E94C512882E21
:102140008618FB2DFF773F2E36FE0DC0232D2E7FE8
:10215000A22E891458F434FE0BC032FC09C0832D22
:102160008E7EA82E05C0B82CA32C03C0B82C01C0AD
:10217000B92CA4FE0FC0FE01E80DF11D8081803353
:1021800021F49A2D997EA92E09C0A2FE06C0B3940F
:10219000B39404C08A2D867809F0B394A3FC11C0CF
:1021A000A0FE06C0B21488F4280C922C9B180EC016
:1021B000B21460F4B60180E290E00E948912B394F8
:1021C000F7CFB21418F42B1802C0982C212CA4FEBF
:1021D00010C0B60180E390E00E948912A2FE17C0F1
:1021E000A1FC03C088E790E002C088E590E0B6015A
:1021F0000CC08A2D867859F0A1FE02C08BE201C086
:1022000080E2A7FC8DE2B60190E00E948912891459
:1022100038F4B60180E390E00E9489129A94F7CFD7
:102220008A94F301E80DF11D8081B60190E00E94CF
:1022300089128110F5CF222009F442CEB60180E246
:1022400090E00E9489122A94F6CFF6018681978148
:1022500002C08FEF9FEF2B96E2E10C9471130F9366
:102260001F93CF93DF93869F8001879F100D969FCA
:10227000100D1124C8010E944B11EC01009729F0A8
:10228000A80160E070E00E947712CE01DF91CF914B
:102290001F910F9108950F931F93CF93DF93823077
:1022A000910510F482E090E0E0916E02F0916F02EF
:1022B00020E030E0A0E0B0E0309719F1408151819A
:1022C0000281138148175907C8F08417950769F4EC
:1022D000109731F012960C93129713961C9327C007
:1022E00000936E0210936F0222C02115310519F080
:1022F0004217530718F49A01BD01EF01DF01F801FD
:10230000DBCF21153105F9F0281B390B24303105BD
:1023100080F48A819B816115710521F0FB01938313
:10232000828304C090936F0280936E02FE01329606
:1023300044C0FE01E20FF31F8193919322503109B3
:10234000398328833AC020916C0230916D02232B8F
:1023500041F4209106013091070130936D022093E2
:102360006C0220910401309105012115310541F4E1
:102370002DB73EB74091080150910901241B350B40
:10238000E0916C02F0916D02E217F307A0F42E1BAE
:102390003F0B2817390778F0AC014E5F5F4F2417C9
:1023A000350748F04E0F5F1F50936D0240936C024B
:1023B0008193919302C0E0E0F0E0CF01DF91CF91F3
:1023C0001F910F910895CF93DF93009709F481C077
:1023D000FC01329713821282A0916E02B0916F02BB
:1023E000109781F420813181820F931F20916C021C
:1023F00030916D022817390751F5F0936D02E09383
:102400006C0267C0ED0120E030E0CE17DF0740F43A
:102410004A815B819E0141155105F1F0EA01F5CF3A
:10242000D383C28340815181840F951FC817D90778
:1024300059F488819981840F951F02969183808336
:102440008A819B81938382832115310529F4F0933E
:102450006F02E0936E023DC0E901FB83EA8349917C
:102460005991C40FD51FEC17FD0761F4808191814C
:10247000840F951F0296E901998388838281938155
:102480009B838A83E0E0F0E012968D919C911397F4
:10249000009719F0FD01DC01F7CF8D919C91119708
:1024A0009D012E5F3F4F820F931F20916C02309150
:1024B0006D022817390769F4309729F410926F02DA
:1024C00010926E0202C013821282B0936D02A0932A
:1024D0006C02DF91CF910895FC010590615070402E
:1024E0000110D8F7809590958E0F9F1F0895DC01FD
:1024F00001C06D9341505040E0F70895FC016150D8
:10250000704001900110D8F7809590958E0F9F1F15
:1025100008950F931F93CF93DF93FB01238121FD38
:1025200003C08FEF9FEF2CC022FF16C0468157815A
:10253000248135814217530744F4A081B1819D0164
:102540002F5F3F4F318320838C93268137812F5F0C
:102550003F4F3783268314C08B01EC01FB010084BD
:10256000F185E02D0995892BE1F6D80116968D911C
:102570009C911797019617969C938E931697CE0170
:10258000DF91CF911F910F910895FA01AA2728306A
:1025900051F1203181F1E8946F936E7F6E5F7F4F30
:1025A0008F4F9F4FAF4FB1E03ED0B4E03CD0670FAC
:1025B000781F891F9A1FA11D680F791F8A1F911DFF
:1025C000A11D6A0F711D811D911DA11D20D009F44F
:1025D00068943F912AE0269F11243019305D319391
:1025E000DEF6CF010895462F4770405D4193B3E07A
:1025F0000FD0C9F7F6CF462F4F70405D4A3318F021
:10260000495D31FD4052419302D0A9F7EACFB4E0D1
:10261000A6959795879577956795BA95C9F7009789
:102620006105710508959B01AC010A2E069457952A
:10263000479537952795BA95C9F7620F731F841F81
:10264000951FA01D0895052E97FB1EF400940E946F
:102650003A1357FD07D00E948C1307FC03D04EF4A9
:102660000C943A1350954095309521953F4F4F4F1C
:102670005F4F089590958095709561957F4F8F4F2E
:102680009F4F08950E94290EA59F900DB49F900D15
:10269000A49F800D911D11240895B7FF0C9442133F
:1026A0000E944213821B930B08952F923F924F92E8
:1026B0005F926F927F928F929F92AF92BF92CF92D2
:1026C000DF92EF92FF920F931F93CF93DF93CDB7DB
:1026D000DEB7CA1BDB0B0FB6F894DEBF0FBECDBF53
:1026E00009942A88398848885F846E847D848C8424
:1026F0009B84AA84B984C884DF80EE80FD800C812D
:102700001B81AA81B981CE0FD11D0FB6F894DEBF0F
:102710000FBECDBFED010895A1E21A2EAA1BBB1B6F
:10272000FD010DC0AA1FBB1FEE1FFF1FA217B3079D
:10273000E407F50720F0A21BB30BE40BF50B661FB3
:10274000771F881F991F1A9469F760957095809577
:1027500090959B01AC01BD01CF010895F894FFCF86
:1027600001000000000070022000041C0400001F93
:1027700001330147015B0100000000000000001D63
:10278000001F010000000000000000000000000029
:102790000000001E003301000000000000000000E7
:1027A000000000000000001F0047010000000000C2
:1027B0000000000000000000000000200700006F83
:1027C0000183019701AB01BF01D301E701000021A3
:1027D000006F010000000000000000000000000089
:1027E0000000002200830100000000000000000043
:1027F000000000000000002300970100000000001E
:1028000000000000000000000000002400AB0100F8
:102810000000000000000000000000000000002593
:1028200000BF0100000000000000000000000000E8
:102830000000002600D3010000000000000000009E
:10284000000000000000002700E701000000000079
:102850000000000000000000000000052D3E0066A2
:102860006C616720006D61696C203020006D6169CA
:102870006C20302069642025640A006D61696C2039
:0E288000312069642025640A007C002A0000D3
:00000001FF
