:100000000C9428020C9445020C9445020C94450271
:100010000C9445020C9445020C9445020C94450244
:100020000C9445020C9445020C9445020C94450234
:100030000C9445020C9445020C9445020C94450224
:100040000C9445020C9445020C9445020C94450214
:100050000C9445020C9445020C9445020C94450204
:100060000C9445020C9445020C9445020C944502F4
:10007000640251023C022F021B020302E901D30178
:10008000BF01BA01B501B001AB0196017F01750155
:100090005D01430133011F011001FF00F300E50082
:1000A000D700C000B800AE00AD00AC0000002D20AD
:1000B00053532068696768002D20536C6176650092
:1000C0002745787465726E616C2720535049206310
:1000D0006F6E6669673A002D20322053746F70206E
:1000E00062697473002D2038204461746120626954
:1000F0007473002D20426175642039363030002D34
:10010000204C6F6F70206261636B206D6F646500BF
:1001100052532D32333220636F6E6669673A005353
:1001200052414D20746573742066696E6973686509
:10013000643A0054657374696E67205352414D2EC2
:100140002E2E004D6F7665206A6F79207269676880
:100150007420746F20636F6E6669726D004E422169
:1001600020616C6C20646174612069732064656C2B
:1001700065746564005352414D2074657374004585
:100180007869742077697468206C656674202B2008
:100190007269676874004A6F79202020204C656678
:1001A000742020202052696774680043482033007F
:1001B000436820320043682031004368203000301B
:1001C000202020202056616C7565202020202032C0
:1001D0003535004D6F7665206A6F79206C656674E1
:1001E00020746F2065786974004D6F7665206A6FA2
:1001F0007920646F776E20746F2064656372656127
:100200007365004D6F7665206A6F79207570207474
:100210006F20696E6372656173650041646A75730E
:1002200074204A6F79204465616462616E640044A1
:100230004F204E4F5420544F5543480043616C6942
:1002400062726174696E67204A6F79737469636B57
:1002500000486967682073636F726520636C65612D
:10026000726564005072696E7420686967682073F3
:10027000636F726500000000000000005F00000076
:1002800007000700147F147F14242A7F2A122313E7
:1002900008646236495522500005030000001C2204
:1002A00041000041221C00082A1C2A0808083E08B8
:1002B00008005030000008080808080060600000CE
:1002C00020100804023E5149453E00427F40004252
:1002D000615149462141454B311814127F10274581
:1002E0004545393C4A4949300171090503364949B8
:1002F0004936064949291E003636000000563600A8
:10030000000008142241141414141441221408008B
:100310000201510906324979413E7E1111117E7F59
:10032000494949363E414141227F4141221C7F4992
:100330004949417F090901013E414151327F080885
:10034000087F00417F41002040413F017F08142287
:10035000417F404040407F0204027F7F0408107FBD
:100360003E4141413E7F090909063E4151215E7FE0
:1003700009192946464949493101017F01013F4098
:1003800040403F1F2040201F7F2018207F6314081B
:1003900014630304780403615149454300007F411D
:1003A00041020408102041417F00000402010204C0
:1003B0004040404040000102040020545454787FE3
:1003C000484444383844444420384444487F3854EE
:1003D000545418087E090102081454543C7F080440
:1003E000047800447D40002040443D00007F1028F8
:1003F0004400417F40007C041804787C08040478A1
:1004000038444444387C14141408081414187C7CB0
:10041000080404084854545420043F4440203C40FD
:1004200040207C1C2040201C3C4030403C44281094
:1004300028440C5050503C4464544C44000836410D
:100440000000007F000000413608000201030201A5
:1004500011241FBECFEFD4E0DEBFCDBF12E0A0E07D
:10046000B1E0ECEBF4E202C005900D92A63FB107BB
:10047000D9F723E0A6EFB2E001C01D92A533B20781
:10048000E1F70E94A5090C945C120C940000B89A44
:1004900083B7886083BF83B7806183BF83B7816080
:1004A00083BF8AEA8093F8028093FB028CE38093F7
:1004B000FA020895CF93DF93CDB7DEB728970FB632
:1004C000F894DEBF0FBECDBFE0E0F4E110824081C2
:1004D00020816081808130E03A83298350E05C8311
:1004E0004B8370E07E836D8390E098878F833A81A1
:1004F0005C817E81988528960FB6F894DEBF0FBE8A
:10050000CDBFDF91CF9108958F929F92AF92BF920E
:10051000CF92DF92EF92FF920F931F93CF93DF93CF
:10052000CDB7DEB728970FB6F894DEBF0FBECDBFAC
:100530000E945A020AE010E00E945A0229833A837C
:100540004B835C8369817A8180E090E00E94860C15
:100550009B01AC01C501B4010E94790B4B015C0108
:100560006B817C8180E090E00E94860C9B01AC0155
:10057000C701B6010E94790B6B017C010150110982
:10058000D9F620E030E040E251E4C501B4010E9418
:10059000E50B0E94570C6093F80220E030E040E247
:1005A00051E4C701B6010E94E50B0E94570C60930D
:1005B000FB0228960FB6F894DEBF0FBECDBFDF91C9
:1005C000CF911F910F91FF90EF90DF90CF90BF9050
:1005D000AF909F908F900895CF93DF93CDB7DEB704
:1005E00028970FB6F894DEBF0FBECDBF0E945A0207
:1005F00029833A834B835C832091FB028B819C810E
:10060000821B91092091FA0230E0AC01992324F475
:1006100044275527481B590B2417350734F4892FD5
:10062000881F8827881F8E5F16C04091F802898135
:100630009A81841B9109AC0122F444275527481B59
:10064000590B2417350734F4892F8095881F882784
:10065000881F01C084E028960FB6F894DEBF0FBE55
:10066000CDBFDF91CF910895CF930E94EC02C82FA8
:100670002FEF8FE791E0215080409040E1F700C0DC
:1006800000C00E94EC02C81384E0CF910895CF937C
:10069000C82F0E94CA0A83E00E94C10A8C2F0E94C0
:1006A000C10A0E94C50AC82F0E94CC0A8C2FCF9184
:1006B0000895CF93DF93D82FC62F0E94CA0A82E0F5
:1006C0000E94C10A8D2F0E94C10A8C2F0E94C10A6C
:1006D0000E94CC0ADF91CF9108951F93CF93DF93AF
:1006E000182FD62FC42F0E94CA0A85E00E94C10A83
:1006F000812F0E94C10A8D2F0E94C10A8C2F0E9457
:10070000C10A0E94CC0ADF91CF911F910895CF9327
:10071000C82F0E94CA0A8C2F0E94C10A0E94CC0ACC
:10072000CF9108950E94CA0A80EC0E94C10A0E94DB
:10073000CC0A08950E9492038FEF9FE20197F1F790
:1007400000C000008EE00E944703807E8038F1F4F4
:1007500065E088E20E94590361EB89E20E94590337
:1007600063E08AE20E94590363E08BE20E9459032E
:1007700040E060EE8FE00E946D038EE00E94470330
:10078000982F907E81E019F480E0089581E008952B
:100790000F931F93CF938C01FC016081718176953B
:1007A0006795769567957695679581E30E945903DD
:1007B000F80160816295660F607E82E30E945903B2
:1007C000F801628185E30E945903F8018281882340
:1007D00071F0C0E0F801EC0FF11D638186E38C0F2E
:1007E0000E945903CF5FF8018281C81798F381E80E
:1007F0000E948703CF911F910F9108958F929F922E
:10080000AF92BF92CF92DF92EF92FF920F931F931E
:10081000CF93DF93CDB7DEB72B970FB6F894DEBF3B
:100820000FBECDBF4C01FE0131968BE0DF011D9262
:100830008A95E9F781E70E944703A82E82E70E9484
:100840004703B12CAA0CBB1CAA0CBB1CAA0CBB1CDA
:10085000829586958770A80EB11C85E70E94470394
:10086000082F8823A9F07E01B4E0EB0EF11CCE0125
:10087000800F911DFC0134966F0116E7812F0E94B5
:100880004703D7018D937D011F5FAC15BD05B1F7FF
:1008900040E062E08CE20E946D03BA82A9820B8381
:1008A0008BE0FE013196D40101900D928A95E1F71B
:1008B000C4012B960FB6F894DEBF0FBECDBFDF91FB
:1008C000CF911F910F91FF90EF90DF90CF90BF904D
:1008D000AF909F908F900895E3E6F1E0F0930202CD
:1008E000E0930102F093EC01E093EB01F093D60169
:1008F000E093D501F093C001E093BF01F093AA010A
:10090000E093A901F0939401E0939301F0937E01A9
:10091000E0937D01ABE0B1E0B583A483B0935201D5
:10092000A0935101B0933C01A0933B01B0932601E9
:10093000A09325010A2E1B2E15961C920E921124AF
:100940001497B0931303A09312030895EF92FF92AC
:100950000F931F93CF93DF937C010E94830AD701EB
:1009600012968D919C911397892BC1F087010A5F94
:100970001F4FC0E0D0E06FE08C2F0E94460AD801E4
:10098000ED91FD918D01808191810E94240A219633
:10099000F70182819381C817D90768F3DF91CF915E
:1009A0001F910F91FF90EF900895880F991FFC0100
:1009B000E059FF4F659174918FE193E00E947F0DA4
:1009C0008FE193E00E94240A0895CF93C82F0E94DC
:1009D0006A0A60E08C2F0E94460A84E192E00E943D
:1009E000240ACF910895E0911203F0911303039626
:1009F000880F991FE80FF91F80819181909313034D
:100A00008093120360E080E00E94460A8091120306
:100A1000909113030E94A60460E080E00E94460AC1
:100A200080E090E00E94E50480E090E00895E0918D
:100A30001203F091130384819581909313038093A3
:100A4000120360E080E00E94460A809112039091B8
:100A500013030E94A60460E080E00E94460A80E042
:100A600090E00E94E50480E090E008955F926F922C
:100A70007F928F929F92AF92BF92CF92DF92EF922E
:100A8000FF920F931F93CF93DF93CDB7DEB76A9793
:100A90000FB6F894DEBF0FBECDBFE0911203F09108
:100AA0001303C080D180B60187E192E00E94860DD9
:100AB000892B09F0B4C06BE283E00E94460A80E211
:100AC00092E00E94240A2FEF8FEF9EE02150804099
:100AD0009040E1F700C00000ECEFF2E084E090E02D
:100AE0009183808382E0828313821482CF010E94EB
:100AF000C8030F2EF4E1EF2EF3E0FF2EF02D6894E3
:100B0000882481F8912C6624639407E013E00F2E6B
:100B1000F3E0AF2EB12CF02D6894772471F8B199E1
:100B200016C0F7019182808262826382C7010E94AF
:100B3000C80380E090EF0197F1F7B19BFECFF7017A
:100B40009182808262821382C7010E94C8030E9440
:100B50005A0229833A834B835C836D837E838F8320
:100B60009887F801B182A082728223834483C801EE
:100B70000E94C8038CEC9CE40197F1F700C00000D0
:100B80008299CDCFCE0140960E94FE038BE0FE01FC
:100B90007096A0E2B3E001900D928A95E1F7809102
:100BA000200390912103019709F0B9CFE0E2F3E02F
:100BB00053808481882309F4B2CF80E00E94520AD6
:100BC00060E080E00E94460A6EE183E00E94460AEF
:100BD0001F925F9289E292E09F938F938E010F5F45
:100BE0001F4F1F930F930E94DA0DC8010E94240A21
:100BF0009FEFEFEFFDE19150E040F040E1F700C0E2
:100C0000000060E087E00E94460A87E090E00E94D2
:100C1000D5040F900F900F900F900F900F90B6018A
:100C20008EE392E00E94860D892B91F468E183E0C7
:100C30000E94460A80E090E00E94D5042FEF8FEFDB
:100C40009DE1215080409040E1F700C00000E2C2E9
:100C5000B60188E392E00E94860D892B91F463E14E
:100C600083E00E94460A81E090E00E94D504EFEF05
:100C7000FFEF2DE1E150F0402040E1F700C000001F
:100C8000C9C2B60189E492E00E94860D892B29F53C
:100C90006EE083E00E94460A82E090E00E94D50464
:100CA00062E284E00E94460A83E090E00E94D5045C
:100CB0008FEF9FEFEDE181509040E040E1F700C001
:100CC00000000E948402FFEF2FEF8DE1F1502040E1
:100CD0008040E1F700C000009DC2B6018CE592E0C3
:100CE0000E94860D892B09F062C060E080E00E94BE
:100CF000460A84E090E00E94D50460E081E00E9412
:100D0000460A85E090E00E94D50460E082E00E94FF
:100D1000460A86E090E00E94D50460E087E00E94E9
:100D2000460A87E090E00E94D5040E94340388239D
:100D3000A1F10F2EF0E7CF2EF2E0DF2EF02DFE0115
:100D400031967F010E943403182F823031F4809154
:100D5000FA028F5F8093FA0246C2833031F48091A9
:100D6000FA0281508093FA023EC28091FA021F92E9
:100D70008F93DF92CF92FF92EF920E94DA0D84E080
:100D80000E94520AC7010E94240A0F900F900F90F0
:100D90000F900F900F901111D5CFFFEF2FEF82E042
:100DA000F15020408040E1F700C000C033C2B601DE
:100DB0008DE792E00E94860D892B09F0FDC06EE15F
:100DC00080E00E94460A88E090E00E94D50461E03D
:100DD00081E00E94460A89E090E00E94D50460E02C
:100DE00082E00E94460A8AE090E00E94D50460E01A
:100DF00083E00E94460A8BE090E00E94D50460E008
:100E000084E00E94460A8CE090E00E94D50469E1EB
:100E100086E00E94460A8DE090E00E94D50460E0E2
:100E200087E00E94460A8EE090E00E94D5040E946E
:100E30005A0229833A834B835C836D837E838F833D
:100E40009887ACC00E945A0229833A834B835C8303
:100E50006D837E838F8398876EE181E00E945D0AB7
:100E60006B817C8180E090E00E94860C2DEC3CEC54
:100E70004CE250E40E94E50B20E030E040EF51E40A
:100E80000E94790B0E94570C81E00E94460A86E876
:100E900092E00E94240A6EE182E00E945D0A69816C
:100EA0007A8180E090E00E94860C2DEC3CEC4CE2D4
:100EB00050E40E94E50B20E030E040EF51E40E9456
:100EC000790B0E94570C82E00E94460A86E892E065
:100ED0000E94240A6EE183E00E945D0A6D817E819A
:100EE00080E090E00E94860C2DEC3CEC4CE250E45B
:100EF0000E94E50B20E030E040EF51E40E94790BC6
:100F00000E94570C83E00E94460A86E892E00E9405
:100F1000240A6EE184E00E945D0A6F81788580E09A
:100F200090E00E94860C2DEC3CEC4CE250E40E94D8
:100F3000E50B20E030E040EF51E40E94790B0E9485
:100F4000570C84E00E94460A86E892E00E94240A38
:100F50006EE185E00E945D0AB19908C06EE185E00E
:100F60000E94460A88E892E00E94240AB29B08C0C8
:100F700063E485E00E94460A88E892E00E94240A21
:100F8000B39B08C06EE685E00E94460A88E892E0BE
:100F90000E94240AE0E0F0EF3197F1F7B29B52CFC4
:100FA000B39B50CFFFEF2FEF82E0F1502040804005
:100FB000E1F700C000C02EC1B6018AE892E00E94AD
:100FC000860D892BE9F40E949D0A9FEFEFE7F1E07F
:100FD0009150E040F040E1F700C000C00E943403AF
:100FE000882321F00E9434038111FCCF2FEF8FEF73
:100FF00092E0215080409040E1F700C000C00AC15B
:10100000B60184E992E00E94860D892B09F052C056
:1010100060E080E00E94460A8FE090E00E94D504E4
:1010200060E081E00E94460A80E190E00E94D504E1
:1010300060E086E00E94460A81E190E00E94D504CB
:1010400060E087E00E94460A87E090E00E94D504B5
:101050000E943403882321F10E9434038130F1F48B
:101060000E94520A86E00E94520A80E00E94520AC0
:1010700082E190E00E94D5040E94D80A80E00E949C
:10108000520A60E080E00E94460A83E190E00E94FC
:10109000D5040E9434038111FCCF02C08111DCCF42
:1010A000EFEFFFEF22E0E150F0402040E1F700C019
:1010B00000C0B0C0B6018EE992E00E94860D892B77
:1010C00009F048C060E080E00E94460A84E190E0B8
:1010D0000E94D50460E081E00E94460A85E190E02C
:1010E0000E94D50460E082E00E94460A86E190E01A
:1010F0000E94D50460E083E00E94460A87E190E008
:101100000E94D50460E084E00E94460A88E190E0F5
:101110000E94D50460E087E00E94460A87E090E0E4
:101120000E94D5040E943403882351F00E943403A6
:10113000182F5F9B03C08CB10E94620B1111F6CF78
:101140008FEF9FEFE2E081509040E040E1F700C078
:1011500000C060C0B6018FEA92E00E94860D892B24
:1011600009F058C060E080E00E94460A89E190E002
:101170000E94D50460E081E00E94460A85E190E08B
:101180000E94D50460E082E00E94460A8AE190E075
:101190000E94D50460E083E00E94460A8BE190E063
:1011A0000E94D50460E087E00E94460A87E090E054
:1011B0000E94D5040E943403882359F00E9434030E
:1011C000182F8B9B04C00E94C50A0E94C10A1111EE
:1011D000F5CFFFEF2FEF82E0F15020408040E1F7A4
:1011E00000C000C017C08091FA021F928F93DF9257
:1011F000CF92FF92EF920E94DA0D84E00E94520A91
:10120000C7010E94240A0F900F900F900F900F902B
:101210000F9098CD6A960FB6F894DEBF0FBECDBF83
:10122000DF91CF911F910F91FF90EF90DF90CF90C2
:10123000BF90AF909F908F907F906F905F90089538
:10124000CF930E943403C82F80910A01C81709F474
:101250007AC0C13009F446C008F469C0C23019F040
:10126000C33001F16EC08091F6029091F70218161A
:10127000190634F401979093F7028093F6020BC09D
:10128000E0911203F091130382819381019790936F
:10129000F7028093F6028091F6029091F7020E9485
:1012A000E5044FC02091F6023091F702E09112035D
:1012B000F09113038281938101972817390738F43D
:1012C0002F5F3F4F3093F7022093F60204C0109235
:1012D000F7021092F6028091F6029091F7020E94B6
:1012E000E5042FC08091F6029091F7020E94F3046A
:1012F0009093F7028093F602E0911203F0911303AA
:1013000082819381892BE9F40E94830A8091F602FD
:101310009091F7020E9436058091F6029091F702B3
:101320000E9417059093F7028093F6020AC08091FD
:10133000F6029091F7020E9417059093F7028093AE
:10134000F602C0930A01CF9108958D9A8C9A9498D1
:10135000959AC19A939A2FEF8FEF9EE0215080408B
:101360009040E1F700C000000E946A0B0E94CE0A84
:101370000E9447020E94D7090E946C040E94BB0A87
:101380000E949A038093F9028091120390911303B3
:101390000E94A60480E090E00E94E5048091F9029A
:1013A000813011F4949A95980E942009F7CFE0E0DB
:1013B000F0E18EEA808381EA80838AED808382E196
:1013C000808388EC808388EA80838FE3808385ED47
:1013D000808380E8808381E8808380E5808389ED55
:1013E000808381E2808380E2808382E080838BED52
:1013F000808380E380838DEA8083108284EA808307
:1014000086EA80838FEA808308959091130299235E
:10141000D1F090E0482F50E0405251099A01220F3C
:10142000331F220F331F420F531FA0E0B2E1FA0116
:10143000E90FF11DEB58FD4FE491EC939F5F209174
:1014400013029217A0F30895EF92FF920F931F9348
:10145000CF93DF938C017C01C0E0D0E006C0F701A0
:1014600081917F010E94050A2196F80101900020D8
:10147000E9F73197E01BF10BCE17DF0780F3DF911F
:10148000CF911F910F91FF90EF900895806BE0E056
:10149000F0E18083862F8F70808362956F7060612A
:1014A0006083089560E00E94460A80E0E0E0F2E197
:1014B00010828F5F8038E1F70895CF93C62F0E9486
:1014C000460ACC232CF0E0E0F2E11082CF5FEAF78D
:1014D000CF9108951F93CF93DF9360E080E00E9447
:1014E000460A10E0C0E0D2E160E0812F0E94460A87
:1014F0008FE018828150E9F71F5F1830A9F7DF915C
:10150000CF911F9108951F93CF93DF9360E080E008
:101510000E94460A10E0C0E0D2E160E0812F0E9404
:10152000460A80E018828F5F8038E1F71F5F18302D
:10153000A1F7DF91CF911F9108950F931F93CF9340
:10154000DF9360E080E00E94460AD0E000E012E114
:10155000CFEF60E08D2F0E94460A80E0F801C08343
:101560008F5F8038D9F7DF5FD83099F7DF91CF915F
:101570001F910F910895BD9ABF9ABC9A81E58DB9CC
:1015800008958FB9779BFECF08951FB8779BFECF44
:101590008FB10895C4980895C49A089585B7806856
:1015A00085BF86B7886086BF80B7806280BF089598
:1015B000CF92DF92EF92FF920F931F93CF93DF931F
:1015C00000D0CDB7DEB72FEF8FE791E021508040FC
:1015D0009040E1F700C000C00E946F0D6C010E94B6
:1015E000740D00E018E1E12CF12C0E946F0DF80160
:1015F00080839081891719F0FFEFEF1AFF0A0F5FC0
:101600001F4F011520E2120781F7C6010E94740DD9
:1016100000E018E1C12CD12C0E946F0DF8019081DF
:10162000981719F0FFEFCF1ADF0A0F5F1F4F011550
:1016300020E2120789F78FEF9FE7E1E081509040A9
:10164000E040E1F700C000C0FF92EF9280ED92E031
:101650009F938F93CE0101967C019F938F930E945D
:10166000DA0DDF92CF9281EE92E09F938F938E01FD
:101670000E5F1F4F1F930F930E94DA0D81E00E94AF
:10168000520A82E00E94520A60E081E00E94460A0B
:10169000C7010E94240A60E082E00E94460AC80155
:1016A0000E94240A0FB6F894DEBF0FBECDBF0F9084
:1016B0000F90DF91CF911F910F91FF90EF90DF90EE
:1016C000CF9008955D9BFECF8CB908955F9BFECFB0
:1016D0008CB1089510BC8FE189B98EE880BD88E196
:1016E0008AB966E67BE082E69BE00E948F0D089552
:1016F0005058BB27AA270E94900B0C94DA0C0E942A
:10170000CC0C38F00E94D30C20F039F49F3F19F430
:1017100026F40C94C90C0EF4E095E7FB0C94C30C72
:10172000E92F0E94EB0C58F3BA176207730784077E
:10173000950720F079F4A6F50C940D0D0EF4E095C4
:101740000B2EBA2FA02D0B01B90190010C01CA017B
:10175000A0011124FF27591B99F0593F50F4503E26
:1017600068F11A16F040A22F232F342F4427585F18
:10177000F3CF469537952795A795F0405395C9F730
:101780007EF41F16BA0B620B730B840BBAF09150E8
:10179000A1F0FF0FBB1F661F771F881FC2F70EC087
:1017A000BA0F621F731F841F48F48795779567955A
:1017B000B795F7959E3F08F0B0CF9395880F08F046
:1017C0009927EE0F9795879508950E94F90B0C9431
:1017D000DA0C0E94D30C58F00E94CC0C40F029F493
:1017E0005F3F29F00C94C30C51110C940E0D0C9416
:1017F000C90C0E94EB0C68F39923B1F3552391F3C4
:10180000951B550BBB27AA2762177307840738F06F
:101810009F5F5F4F220F331F441FAA1FA9F335D0CC
:101820000E2E3AF0E0E832D091505040E695001C80
:10183000CAF72BD0FE2F29D0660F771F881FBB1F3A
:10184000261737074807AB07B0E809F0BB0B802D18
:10185000BF01FF2793585F4F3AF09E3F510578F044
:101860000C94C30C0C940E0D5F3FE4F3983ED4F33C
:10187000869577956795B795F7959F5FC9F7880F18
:10188000911D9695879597F90895E1E0660F771F6A
:10189000881FBB1F621773078407BA0720F0621BFB
:1018A000730B840BBA0BEE1F88F7E09508950E9426
:1018B000F30C88F09F5798F0B92F9927B751B0F0E3
:1018C000E1F0660F771F881F991F1AF0BA95C9F7C4
:1018D00014C0B13091F00E940D0DB1E008950C9448
:1018E0000D0D672F782F8827B85F39F0B93FCCF3FB
:1018F000869577956795B395D9F73EF49095809541
:10190000709561957F4F8F4F9F4F0895E89409C060
:1019100097FB3EF490958095709561957F4F8F4F22
:101920009F4F9923A9F0F92F96E9BB279395F69538
:10193000879577956795B795F111F8CFFAF4BB0FB6
:1019400011F460FF1BC06F5F7F4F8F4F9F4F16C01A
:10195000882311F096E911C0772321F09EE8872FA4
:10196000762F05C0662371F096E8862F70E060E060
:101970002AF09A95660F771F881FDAF7880F9695D9
:10198000879597F9089597F99F6780E870E060E080
:1019900008959FEF80EC089500240A941616170608
:1019A00018060906089500240A9412161306140650
:1019B00005060895092E0394000C11F4882352F0B3
:1019C000BB0F40F4BF2B11F460FF04C06F5F7F4F6B
:1019D0008F4F9F4F089557FD9058440F551F59F052
:1019E0005F3F71F04795880F97FB991F61F09F3F0C
:1019F00079F087950895121613061406551FF2CF35
:101A00004695F1DF08C0161617061806991FF1CF84
:101A100086957105610508940895E894BB276627AB
:101A20007727CB0197F90895A29FB001B39FC0011A
:101A3000A39F700D811D1124911DB29F700D811DFA
:101A40001124911D08958F929F92AF92BF92CF92D1
:101A5000DF92EF92FF92CF93DF93EC01688179815F
:101A60008A819B81611571058105910521F464E2EC
:101A700079ED8BE597E02DE133EF41E050E00E94F6
:101A8000D11149015A019B01AC01A7EAB1E40E94BE
:101A9000F0116B017C01ACEEB4EFA50194010E9442
:101AA000FE11DC01CB018C0D9D1DAE1DBF1DB7FFCE
:101AB00003C00197A109B04888839983AA83BB8397
:101AC0009F77DF91CF91FF90EF90DF90CF90BF9005
:101AD000AF909F908F9008950E94230D089580E00D
:101AE00091E00E94230D0895A0E0B0E080930001F2
:101AF00090930101A0930201B09303010895FB01AB
:101B0000DC0105900D920020E1F70895FB01DC0156
:101B10008D91019080190110D9F3990B08950F93BD
:101B20001F93CF93DF93009731F46115710519F47A
:101B300080E090E03AC08B01EC016EE070E081E063
:101B400090E00E94DD0FFC01892B91F380E88383F4
:101B50000115110571F01387028781E88383809155
:101B60002B0390912C03892B21F4F0932C03E09309
:101B70002B032097C9F0D187C0878381826083833C
:101B800080912D0390912E03892B71F4F0932E03F5
:101B9000E0932D0380912F0390913003892B21F442
:101BA000F0933003E0932F03CF01DF91CF911F918A
:101BB0000F910895AEE0B0E0E0EEFDE00C9411125C
:101BC0000D891E8986E08C831A8309838FEF9FE736
:101BD0009E838D83AE01475E5F4F6F89788DCE0106
:101BE00001960E94FC0DEF81F885E00FF11F108235
:101BF0002E96E4E00C942D12ABE0B0E0E2E0FEE0C3
:101C00000C9403126C017B018A01FC01178216827D
:101C1000838181FFCCC1CE0101963C01F601938105
:101C2000F70193FD859193FF81917F01882309F44A
:101C3000BAC1853239F493FD859193FF81917F017B
:101C4000853229F4B60190E00E943711E7CF912C3C
:101C5000212C312CFFE1F315D8F08B3279F038F4D8
:101C6000803279F08332A1F4232D20611DC08D32A2
:101C700061F0803369F4232D216016C0832D8260CA
:101C8000382EE32DE4603E2E2AC0F32DF8601DC0EF
:101C900037FC2DC020ED280F2A3040F08E32B9F4E9
:101CA00036FC81C1232D2064322E19C036FE06C0B9
:101CB0008AE0989E200D1124922E11C0EAE02E9EFB
:101CC000200D1124222EF32DF0623F2E08C08C36F9
:101CD00021F4832D8068382E02C0883641F4F70144
:101CE00093FD859193FF81917F018111B3CF982F4F
:101CF0009F7D9554933028F40C5F1F4F9FE3998389
:101D00000DC0833631F0833771F0833509F059C047
:101D100021C0F801808189830E5F1F4F882483943E
:101D2000912C530113C02801F2E04F0E511CF80111
:101D3000A080B18036FE03C0692D70E002C06FEF55
:101D40007FEFC5010E942C114C018201F32DFF771A
:101D50003F2E16C0280122E0420E511CF801A0803F
:101D6000B18036FE03C0692D70E002C06FEF7FEFD7
:101D7000C5010E941A114C01F32DF0683F2E82011B
:101D800033FC1BC0822D90E088169906B0F4B60192
:101D900080E290E00E9437112A94F4CFF50137FCDD
:101DA000859137FE81915F01B60190E00E94371165
:101DB00021102A9421E0821A91088114910471F76C
:101DC000E8C0843611F0893641F5F80137FE07C0C6
:101DD00060817181828193810C5F1F4F08C0608197
:101DE0007181072E000C880B990B0E5F1F4FF32D8E
:101DF000FF763F2E97FF09C090958095709561956D
:101E00007F4F8F4F9F4FF0683F2E2AE030E0A301B5
:101E10000E947311882E861845C0853731F4232D12
:101E20002F7EB22E2AE030E025C0932D997FB92E67
:101E30008F36C1F018F4883579F0B5C0803719F0C5
:101E4000883721F0B0C0E92FE061BE2EB4FE0DC08E
:101E5000FB2DF460BF2E09C034FE0AC0292F266076
:101E6000B22E06C028E030E005C020E130E002C01C
:101E700020E132E0F801B7FE07C060817181828104
:101E800093810C5F1F4F06C06081718180E090E0FC
:101E90000E5F1F4FA3010E947311882E8618FB2D21
:101EA000FF773F2E36FE0DC0232D2E7FA22E8914E4
:101EB00058F434FE0BC032FC09C0832D8E7EA82E50
:101EC00005C0B82CA32C03C0B82C01C0B92CA4FEAB
:101ED0000FC0FE01E80DF11D8081803321F49A2DA1
:101EE000997EA92E09C0A2FE06C0B394B39404C083
:101EF0008A2D867809F0B394A3FC11C0A0FE06C019
:101F0000B21488F4280C922C9B180EC0B21460F402
:101F1000B60180E290E00E943711B394F7CFB2147B
:101F200018F42B1802C0982C212CA4FE10C0B60166
:101F300080E390E00E943711A2FE17C0A1FC03C00D
:101F400088E790E002C088E590E0B6010CC08A2DD9
:101F5000867859F0A1FE02C08BE201C080E2A7FCA6
:101F60008DE2B60190E00E943711891438F4B60171
:101F700080E390E00E9437119A94F7CF8A94F3019E
:101F8000E80DF11D8081B60190E00E9437118110AB
:101F9000F5CF222009F442CEB60180E290E00E9403
:101FA00037112A94F6CFF6018681978102C08FEF10
:101FB0009FEF2B96E2E10C941F120F931F93CF9388
:101FC000DF93869F8001879F100D969F100D11242F
:101FD000C8010E94F90FEC01009729F0A80160E008
:101FE00070E00E942511CE01DF91CF911F910F91DA
:101FF00008950F931F93CF93DF938230910510F4D0
:1020000082E090E0E0913303F091340320E030E08F
:10201000A0E0B0E0309719F1408151810281138135
:1020200048175907C8F08417950769F4109731F0DD
:1020300012960C93129713961C9327C000933303A8
:102040001093340322C02115310519F042175307AC
:1020500018F49A01BD01EF01DF01F801DBCF211572
:102060003105F9F0281B390B2430310580F48A81C1
:102070009B816115710521F0FB019383828304C06C
:102080009093340380933303FE01329644C0FE01E3
:10209000E20FF31F819391932250310939832883F2
:1020A0003AC02091310330913203232B41F4209127
:1020B00006013091070130933203209331032091C0
:1020C0000401309105012115310541F42DB73EB7CA
:1020D0004091080150910901241B350BE091310317
:1020E000F0913203E217F307A0F42E1B3F0B2817E1
:1020F000390778F0AC014E5F5F4F2417350748F081
:102100004E0F5F1F5093320340933103819391939D
:1021100002C0E0E0F0E0CF01DF91CF911F910F917D
:102120000895CF93DF93009709F481C0FC013297A3
:1021300013821282A0913303B0913403109781F47B
:1021400020813181820F931F20913103309132031E
:102150002817390751F5F0933203E093310367C034
:10216000ED0120E030E0CE17DF0740F44A815B81CB
:102170009E0141155105F1F0EA01F5CFD383C283E9
:1021800040815181840F951FC817D90759F4888160
:102190009981840F951F0296918380838A819B8108
:1021A000938382832115310529F4F0933403E0935E
:1021B00033033DC0E901FB83EA8349915991C40F80
:1021C000D51FEC17FD0761F480819181840F951F65
:1021D0000296E90199838883828193819B838A8314
:1021E000E0E0F0E012968D919C911397009719F022
:1021F000FD01DC01F7CF8D919C9111979D012E5F20
:102200003F4F820F931F20913103309132032817E3
:10221000390769F4309729F410923403109233038C
:1022200002C013821282B0933203A0933103DF9174
:10223000CF910895FC010590615070400110D8F7CE
:10224000809590958E0F9F1F0895DC0101C06D93BE
:1022500041505040E0F70895FC01615070400190FA
:102260000110D8F7809590958E0F9F1F08950F93BA
:102270001F93CF93DF93FB01238121FD03C08FEFD9
:102280009FEF2CC022FF16C04681578124813581E3
:102290004217530744F4A081B1819D012F5F3F4F46
:1022A000318320838C93268137812F5F3F4F378383
:1022B000268314C08B01EC01FB010084F185E02D25
:1022C0000995892BE1F6D80116968D919C91179767
:1022D000019617969C938E931697CE01DF91CF911E
:1022E0001F910F910895FA01AA27283051F120314A
:1022F00081F1E8946F936E7F6E5F7F4F8F4F9F4F9A
:10230000AF4FB1E03ED0B4E03CD0670F781F891FDB
:102310009A1FA11D680F791F8A1F911DA11D6A0FA9
:10232000711D811D911DA11D20D009F468943F915C
:102330002AE0269F11243019305D3193DEF6CF015B
:102340000895462F4770405D4193B3E00FD0C9F721
:10235000F6CF462F4F70405D4A3318F0495D31FD8E
:102360004052419302D0A9F7EACFB4E0A6959795E1
:10237000879577956795BA95C9F7009761057105B7
:1023800008959B01AC010A2E069457954795379501
:102390002795BA95C9F7620F731F841F951FA01D5B
:1023A0000895052E97FB1EF400940E94E81157FD36
:1023B00007D00E943A1207FC03D04EF40C94E811A7
:1023C00050954095309521953F4F4F4F5F4F089561
:1023D00090958095709561957F4F8F4F9F4F089591
:1023E0000E94140DA59F900DB49F900DA49F800D89
:1023F000911D11240895B7FF0C94F0110E94F01163
:10240000821B930B08952F923F924F925F926F928F
:102410007F928F929F92AF92BF92CF92DF92EF9274
:10242000FF920F931F93CF93DF93CDB7DEB7CA1BF5
:10243000DB0B0FB6F894DEBF0FBECDBF09942A8820
:10244000398848885F846E847D848C849B84AA84C8
:10245000B984C884DF80EE80FD800C811B81AA8155
:10246000B981CE0FD11D0FB6F894DEBF0FBECDBF20
:10247000ED010895A1E21A2EAA1BBB1BFD010DC0A0
:10248000AA1FBB1FEE1FFF1FA217B307E407F50724
:1024900020F0A21BB30BE40BF50B661F771F881F00
:1024A000991F1A9469F760957095809590959B0196
:0C24B000AC01BD01CF010895F894FFCFEE
:1024BC000100000000003503200004BD02040000F0
:1024CC0000210137014D01630100000000000000F4
:1024DC0000170200002101000000000000000000B5
:1024EC00000000000000003E020000370100000068
:1024FC000000000000000000000000000038020096
:10250C00004D010000000000000000000000000071
:10251C00000000C7020700000079018F01A501BB74
:10252C0001D101E701FD0100004902000079010021
:10253C000000000000000000000000000000005C33
:10254C000200008F010000000000000000000000ED
:10255C0000000000007D020000A50100000000004A
:10256C0000000000000000000000008A020000BB18
:10257C00010000000000000000000000000000004E
:10258C000094020000D101000000000000000000D7
:10259C00000000000000009E020000E701000000A7
:1025AC0000000000000000000000000000AF02006E
:1025BC0000FD010000000000000000000000000011
:1025CC00000000052D3E004E65772047616D6500CB
:1025DC00484156452046554E0047616D6520536372
:1025EC006F72653A20256400436C656172204869FE
:1025FC0067682053636F7265004175746F20436187
:10260C006C696272617465204A6F790041646A7505
:10261C007374204A6F79204465616462616E640052
:10262C006465616462616E643A20256400414443D0
:10263C002074657374007C002A004F4C4544207450
:10264C00657374005352414D20746573740052537A
:10265C002D323332206C6F6F70206261636B0053CC
:10266C005049206C6F6F70206261636B004D616923
:10267C006E204D656E750053657474696E677300DA
:10268C005772697465206572726F72733A20256493
:10269C000052657472696576616C206572726F7236
:0626AC00733A20256400D2
:00000001FF
