:0200000280007C
:10000000F8080020ED040800E9040800E9040800ED
:10001000E9040800E9040800E90408000000000001
:10002000000000000000000000000000E9040800DB
:10003000E904080000000000E9040800E9040800E1
:10004000E9040800E9040800E9040800E9040800DC
:10005000E9040800E9040800E9040800E9040800CC
:100060007D0F0800E904080000000000E904080012
:10007000E9040800E9040800E904080000000000A1
:1000800000000000E9040800E9040800E904080091
:10009000E9040800E9040800E9040800E90408008C
:1000A000E904080000000000E9040800E10B080072
:1000B000E9040800E9040800E9040800E90408006C
:1000C000E9040800E9040800E9040800E90408005C
:1000D000E9040800E9040800E9040800E90408004C
:1000E000E9040800E9040800E90408000504080020
:1000F000E904080010B5054C237833B9044B13B15B
:100100000448AFF300800123237010BD34040020A5
:1001100000000000AC1F08000C4B43B10C4810B5A8
:100120000C49AFF300800C48036823B910BD0A489E
:10013000036833B97047094B002BF7D0BDE8104076
:100140001847064B002BF5D0184700BF00000000F1
:10015000AC1F080038040020AC1F0800000000009D
:10016000184BD3F8E42022F00102C3F8E420164A29
:10017000D2F8001141F02001C2F800114FF6807151
:100180005960196941F080011961196841F0020153
:10019000196003F50043D3F8E41021F00101C3F81E
:1001A000E410D2F8001141F04001C2F800115A6881
:1001B00042F480325A601A6942F002021A61002247
:1001C0001A62704700000C4000060E40034BDB6EC5
:1001D00083422CBF00200120704700BF00000C406C
:1001E00040F6FF73984228BF1846014B18627047CB
:1001F00000800C402DE9F0435518082998BF082AC3
:1002000064D80E46082D61DC324A136823F00103DE
:1002100013601369304B4FF440745C641C6F24F01E
:1002200003041C6703245C605C66A3F500632B4C2D
:10023000C3F80C41D3F8004144F40064C3F8004112
:100240005061A94240DC0A460024A146DFF88480C0
:100250004FF0005C4FF0807E0127530103F14020F6
:1002600000F53020C0F804924344C3F808C2C0F837
:1002700000E2D3F81C0240F40000C3F81C0207FAA5
:1002800002F31C4301329542E7DA81B100231149A0
:100290004FF000554FF0407001EB4312C2F8085286
:1002A00003F110025201885001339E42F4D1094BF0
:1002B0005C604FF400610A4A51601A6842F0010222
:1002C0001A600020BDE8F0830024DEE70120BDE8CD
:1002D000F08300BF00400B40000E0E402B100010BA
:1002E00000E100E008B502220121014B984708BD5A
:1002F000F50108004B0103F1402303F53023D3F847
:10030000103213F4000F36D003881C4A02EA8342ED
:1003100042F000524B0103F1402303F53023C3F8B0
:1003200008228378072B84BF07238370827943795F
:100330001B0443EA0263C2781343027943EA0223AF
:10034000490101F1402101F53021C1F81432827ACE
:10035000437A1B0443EA0263C2791343027A43EAF5
:100360000223C1F8183283781B0443F40003C1F858
:100370001C32002070470120704700BF0000FC1FA6
:100380004B0103F1402303F53023D3F8103213F46B
:10039000000F33D030B44B0103F1402303F5302379
:1003A000D3F81422D3F81842D3F80852C5F38A457B
:1003B0000580D3F81032C3F3034383701D465BB14D
:1003C00003300023032BD9BF0270120A0470240AE1
:1003D00001330130AB42F5D1094B01F1100252015A
:1003E0004FF08070985003EB4111D1F81C3243F468
:1003F0000003C1F81C32002030BC70470120704758
:1004000000400B4010B584B02C4B1C6914F0060F53
:1004100018D014F0020F22D114F0040F24D00221BE
:1004200001A8274B9847BDF80430042B20D0022B9D
:1004300028D0032B38D09DF806201AB100230133B1
:100440009342FCD114F0010F02D001221B4B9A60A1
:100450004FF400621B4BC3F8842104B010BD01218E
:1004600001A8174B9847DEE71748184B9847DAE77B
:100470009DF8073099B2164A1180164A1370164A31
:100480001370D8E79DF80730012B07D0002BD2D18D
:10049000124A136B43F480531363CCE70F4A536B38
:1004A00043F480535363C6E79DF808000C4B98470C
:1004B0009DF807000B4B9847BDE700BF00400B407D
:1004C0008103080000E100E01C1F0800CD0E0800B9
:1004D00050040020880400208904002000120E40EF
:1004E000E90A08005D090800FEE7000008B5184B9E
:1004F000184A9A4210D0184B154A9A420CD2013B26
:100500009B1A23F0030304331344124951F8040BDC
:1005100042F8040B9A42F9D1104B114A9A420AD27E
:10052000013B9B1A23F0030304331344002142F8D8
:10053000041B9342FBD10B4B23F0604323F07F035A
:10054000094A9360094B9847094B9847FEE700BF5B
:1005500000000020AC1F080034040020F404002038
:10056000340400200000080000ED00E0AD1D08008C
:10057000190708004FF48063204A136002F50072E7
:1005800013601F4B1B6A13F0807F07D11D4A1C4B61
:100590001A621A46936E13F0010FFBD01A4A184BD9
:1005A0001A621A46936E13F4803FFBD0144A136B01
:1005B00023F0030343F001031363936E13F0080F5A
:1005C000FBD0124A0E4B9A621A46936E13F0020F3A
:1005D000FBD011220A4B1A631A46936E13F0080FD0
:1005E000FBD01222064B1A631A46936E13F0080FC3
:1005F000FBD0074A074B1A60704700BF000A0E4045
:1006000000060E400908370009083701013F0D2098
:1006100000BD0105000000203B4BD3F8E42022F090
:100620000102C3F8E42039490A6942F400620A6110
:100630001A6842F400221A601A6942F400221A6110
:100640001A6842F480121A601A6942F480121A6120
:100650002F4AD2F8E43023F00103C2F8E4300B69EA
:1006600043F400530B61136843F480531360136920
:1006700043F480531361136B43F480531363254B8E
:10068000D3F8E40020F00100C3F8E400086940F466
:1006900080400861196841F001011960196941F051
:1006A00001011961196B41F001011963196841F0E9
:1006B00002011960196941F002011961196B41F0D9
:1006C00002011963196841F004011960196941F0C8
:1006D00004011961196841F400711960196941F444
:1006E00000711961196841F480611960196941F458
:1006F00080611961136843F4FF731360536943F415
:10070000FF735361704700BF000E0E4000060E409D
:1007100000120E4000140E4080B52C4B98474FF449
:1007200000422B4B5A602B4B98472B482B4B98473A
:100730002B4B98472B4B98472B4B98472B4B984765
:100740002B4B98472B482C4B984700222B4B1A7069
:1007500001222B4B1A70DFF8BC802A4FDFF89C90E7
:10076000D8F8303043F48013C8F830304FF4967026
:10077000B84701281ED0244B1B889BB240F6B732E5
:100780009342EDD91E4B1B78002BE9D101221C4B63
:100790001A701E4B1A800221997099F80010D970B6
:1007A0001A711E4600251A4C29463046A0470028DB
:1007B000FAD0D5E740F2DC542046B8470128FBD0F8
:1007C00099F80030013389F80030D4E77505080046
:1007D000501A0E40F10E080065012900E5020800DC
:1007E0001906080061010800810A0800D9080800FC
:1007F000790B0800481F0800CD0E0800880400206F
:1008000089040020CD010800500400207C04002051
:10081000F5020800000E0E40F8B50F4C636B43F074
:1008200001036363636B43F00403636314200B4FA2
:10083000B8470B4EF56B236B43F00403236314207E
:10084000B847F06B236B43F001032363C0B240EA67
:10085000052000B2F8BD00BF00140E40150B0800C3
:1008600000120E4010B50A4C636B43F00103636342
:10087000636B43F0020363630A20064B9847236BC4
:1008800043F002032363236B43F00103236310BD92
:1008900000140E40150B080008B500280BDB0C4AAD
:1008A000536B43F4806353630028B8BF404280B267
:1008B000084B984708BD064A136B43F480631363E3
:1008C0000028B8BF404280B2024B984708BD00BF25
:1008D00000140E40E101080038B5154A136B43F4CB
:1008E000007313631348144CA0474FF47A70134DF0
:1008F000A847134B9847C820A8474FF4FA60A04771
:100900004FF47A70A8470F4B98470F4D288000206E
:10091000A0470E4CB5F9000000EBD07040100C4B16
:100920009847E0610B4B23600B4B636038BD00BF01
:1009300000140E4030F8FFFF99080800590B08001A
:10094000650808001908080052040020540400201B
:100950002D1908003333B33E295C0F3C08B5A0F1D4
:1009600026031BB2262BB8BF2623733B074AB2F9D6
:10097000000000EBD07040106FF0630202FB030038
:10098000034B9847034BD86108BD00BF52040020B9
:100990002D19080054040020F8B52E4B98472E4B13
:1009A0009847044600212D4B9847002847D12C4BEF
:1009B0009C612C4BB3F90000274B98470446014635
:1009C000274B9869284B984708B1254B9C6100211B
:1009D000234BD869214B9847002834D1204BD96943
:1009E00020461E4B984708B11D4BDC611C4CA16989
:1009F000E0691E4B9847054620611D4B984700F261
:100A0000F31040F2E633984221D9154C294660692B
:100A1000184B98476061124C174E61686069B04787
:100A2000074621682846B04701463846114B98478B
:100A300020620F4B984700B2104B9847F8BD002238
:100A4000074B9A61B5E70022054BDA61C6E7002241
:100A50006261E0E7190808002D190800111D08005F
:100A600054040020520400204D1D0800C117080046
:100A7000611D0800C5170800D5190800990808006D
:100A8000154AD2F8003143F01003C2F80031134B7D
:100A90001A6942F400221A615A6842F400225A602C
:100AA0001A6F42F400221A670D4AD2F8E43023F09C
:100AB0000103C2F8E43040F20A220A4B1A604FF4F4
:100AC000CD620C331A607B22083B1A602022A3F50A
:100AD00028731A60704700BF00060E4000120E40D7
:100AE00000400940A042094026382628B8BF2620E9
:100AF000622303FB00F0054B83FB00230344C01774
:100B0000C0EBE3104A30024B186070478180808050
:100B1000A442094010B50B4B984700220A4B0B4CDE
:100B2000A0470B4B98470B4B586001221A601A469E
:100B3000136813F4803FFBD0064A136823F00103C7
:100B4000136010BD6912080000002540551308000D
:100B50007917080010E000E058B1F8B50546002408
:100B60004FF47A77034E3846B0470134A542FAD1A4
:100B7000F8BD7047150B0800134A136943F0006372
:100B80001361124AD2F8E43023F00103C2F8E430D2
:100B90000F490B6843F4804343F002030B6020319C
:100BA0000B6843F010030B604FF00061094B1960B4
:100BB000136843F00503136046F28A62064B1A601D
:100BC0000022064B1A80704700060E4000000840C5
:100BD0000400084000E100E01C0008405004002030
:100BE00008B5054B1B68054A138801339BB2138077
:100BF000034B984708BD00BF200008405004002068
:100C0000990908002DE9F8430D46161E48DD0A78BB
:100C1000002A35D00A460024013412F8011F0029A9
:100C2000FAD1A6422DDC002403F00202002A0CBFF8
:100C30004FF020084FF0300813F0010323D1002CAF
:100C400028DD26465FFA88F9184F4846B847013E26
:100C5000FBD1287888B1154FB847013415F8010F3A
:100C60000028F9D1002E08DD35465FFA88F80F4FCD
:100C70004046B847013DFBD134442046BDE8F883E7
:100C80000024341BD0E72646287808B10024E2E788
:100C90000024E7E726461C46DBE74FF02008D8E7AC
:100CA00013F00104F9D04FF02008EDE7590F0800C8
:100CB000F0B585B0074681B30C460BB10A2A38D08F
:100CC00000238DF80F300026002946D00DF10F05C6
:100CD0000C993A39B4FBF2F302FB1343092BC8BF5A
:100CE0005B18303305F8013DB4FBF2F4002CF1D170
:100CF00056B10A9B1BB10B9B13F0020F25D12D237C
:100D000005F8013C013D00260B9B0A9A294638460E
:100D1000144CA047304405B0F0BD30238DF80430AA
:100D200000238DF805300B9B0A9A01A90D4CA047B2
:100D3000F1E70029C4DA4C4200238DF80F300DF1A1
:100D40000F05002CD5D00126C0E72D20064B984773
:100D50000A9B013B0A930126D6E71E460DF10F05BB
:100D6000D2E700BF050C0800590F08002DE9F04F2D
:100D700087B080460B78002B00F094808B46174696
:100D800000254E4EDFF83CA1DFF83C9146E0002202
:100D900070E0396804374A48002908BF01464046D8
:100DA000D047054435E0396804376120029001934B
:100DB000009201230A224046C847054429E03968C9
:100DC00004376120029001930092002310224046D4
:100DD000C84705441DE0396804374120029001935B
:100DE0000092002310224046C847054411E03968AC
:100DF0000437612002900193009200230A224046AA
:100E0000C847054405E0A3469BF80000B0470135FC
:100E10005C4604F1010B6378002B44D0252BF3D101
:100E20000BF101049BF80130002B3CD0252BEAD0BC
:100E30002D2B06BF0BF10204012300232278302A58
:100E400005D143F0020314F8012F302AF9D021789C
:100E5000A1F13002D2B2092A99D8002202EB820213
:100E6000303901EB420214F8011FA1F13000C0B289
:100E70000928F3D973298CD0642994D078299ED07D
:100E80005829A8D07529B2D06329C2D1396804374E
:100E90008DF8141000218DF8151005A94046D04793
:100EA0000544B6E70025B8F1000F03D0D8F80030AC
:100EB00000221A70284607B0BDE8F08F590F0800CD
:100EC0005C1F0800050C0800B10C08000FB400B549
:100ED00083B004AA52F8041B01920020034B9847E8
:100EE00003B05DF804EB04B0704700BF6D0D08005F
:100EF000164B00221A705A70154B4FF4407159640A
:100F000059601A6F186F024022F440721A675966CE
:100F10004FF48072A3F500631A6103F50073AC21EE
:100F2000196040F2232119624FF40061596040F2C8
:100F30000221C3F820114FF0FF31D960E1219960FF
:100F400004490A6050221A60704700BF8C040020D8
:100F5000000E0E4000E100E0074B5B6913F0020F4A
:100F600008D0054BD8611A46536913F4007FFBD0B3
:100F7000002070470120704700080E4008B5154B4F
:100F80005B6913F0E00F03D04FF4A871114A1160B0
:100F900013F0010F12D010484278531C594203F04D
:100FA0003F0301F03F0158BF4B4201788B4206D00E
:100FB0000849886908490A4490704B7008BD074881
:100FC000074B9847034B9A69034B59780B449A7027
:100FD00008BD00BF00080E408C040020641F0800FC
:100FE000CD0E080081F0004102E000BF83F0004315
:100FF00030B54FEA41044FEA430594EA050F08BFB4
:1010000090EA020F1FBF54EA000C55EA020C7FEA77
:10101000645C7FEA655C00F0E2804FEA5454D4EBF4
:101020005555B8BF6D420CDD2C4480EA020281EABE
:10103000030382EA000083EA010180EA020281EAF6
:101040000303362D88BF30BD11F0004F4FEA013148
:101050004FF4801C4CEA113102D0404261EB410157
:1010600013F0004F4FEA03334CEA133302D05242DD
:1010700063EB430394EA050F00F0A780A4F1010499
:10108000D5F1200E0DDB02FA0EFC22FA05F28018D3
:1010900041F1000103FA0EF2801843FA05F35941B9
:1010A0000EE0A5F120050EF1200E012A03FA0EFC38
:1010B00028BF4CF0020C43FA05F3C01851EBE37162
:1010C00001F0004507D54FF0000EDCF1000C7EEB7F
:1010D00000006EEB0101B1F5801F1BD3B1F5001FBD
:1010E0000CD349085FEA30004FEA3C0C04F10104DC
:1010F0004FEA445212F5800F80F09A80BCF1004F05
:1011000008BF5FEA500C50F1000041EB045141EA86
:10111000050130BD5FEA4C0C404141EB010111F487
:10112000801FA4F10104E9D191F0000F04BF014632
:101130000020B1FA81F308BF2033A3F10B03B3F110
:1011400020020CDA0C3208DD02F1140CC2F10C02A0
:1011500001FA0CF021FA02F10CE002F11402D8BFFE
:10116000C2F1200C01FA02F120FA0CFCDCBF41EACA
:101170000C019040E41AA2BF01EB0451294330BD99
:101180006FEA04041F3C1CDA0C340EDC04F1140476
:10119000C4F1200220FA04F001FA02F340EA03004D
:1011A00021FA04F345EA030130BDC4F10C04C4F193
:1011B000200220FA02F001FA04F340EA0300294673
:1011C00030BD21FA04F0294630BD94F0000F83F4BD
:1011D000801306BF81F480110134013D4EE77FEAA0
:1011E000645C18BF7FEA655C29D094EA050F08BFEC
:1011F00090EA020F05D054EA000C04BF19461046CD
:1012000030BD91EA030F1EBF0021002030BD5FEA10
:10121000545C05D14000494128BF41F0004130BD38
:1012200014F580043CBF01F5801130BD01F000458C
:1012300045F0FE4141F470014FF0000030BD7FEAFF
:10124000645C1ABF194610467FEA655C1CBF0B46FA
:10125000024650EA013406BF52EA033591EA030F11
:1012600041F4002130BD00BF90F0000F04BF002109
:10127000704730B54FF4806404F132044FF000053C
:101280004FF0000150E700BF90F0000F04BF0021B5
:10129000704730B54FF4806404F1320410F000451B
:1012A00048BF40424FF000013EE700BF42004FEA16
:1012B000E2014FEA31014FEA02701FBF12F07F4393
:1012C00093F07F4F81F06051704792F0000F14BF90
:1012D00093F07F4F704730B54FF4607401F00045D4
:1012E00021F0004120E700BF50EA010208BF70472B
:1012F00030B54FF000050AE050EA010208BF704720
:1013000030B511F0004502D5404261EB41014FF488
:10131000806404F132045FEA915C3FF4DCAE4FF08C
:1013200003025FEADC0C18BF03325FEADC0C18BF73
:10133000033202EBDC02C2F1200300FA03FC20FAC4
:1013400002F001FA03FE40EA0E0021FA02F1144411
:10135000C1E600BF70B54FF0FF0C4CF4E06C1CEA26
:1013600011541DBF1CEA135594EA0C0F95EA0C0F9B
:1013700000F0DEF82C4481EA030621EA4C5123EA0E
:101380004C5350EA013518BF52EA033541F480113D
:1013900043F4801338D0A0FB02CE4FF00005E1FBF0
:1013A00002E506F00042E0FB03E54FF00006E1FB3A
:1013B00003569CF0000F18BF4EF0010EA4F1FF047D
:1013C000B6F5007F64F5407404D25FEA4E0E6D41BD
:1013D00046EB060642EAC62141EA55514FEAC520CE
:1013E00040EA5E504FEACE2EB4F1FD0C88BFBCF54A
:1013F000E06F1ED8BEF1004F08BF5FEA500E50F1FB
:10140000000041EB045170BD06F0004646EA0101C0
:1014100040EA020081EA0301B4EB5C04C2BFD4EBF2
:101420000C0541EA045170BD41F480114FF0000EEB
:10143000013C00F3AB8014F1360FDEBF002001F059
:10144000004170BDC4F10004203C35DA0C341BDCD3
:1014500004F11404C4F1200500FA05F320FA04F0A5
:1014600001FA05F240EA020001F0004221F00041D9
:1014700010EBD37021FA04F642EB06015EEA430E4C
:1014800008BF20EAD37070BDC4F10C04C4F120057C
:1014900000FA04F320FA05F001FA04F240EA02002F
:1014A00001F0004110EBD37041F100015EEA430E00
:1014B00008BF20EAD37070BDC4F1200500FA05F220
:1014C0004EEA020E20FA04F301FA05F243EA02039F
:1014D00021FA04F001F0004121FA04F220EA0200AE
:1014E00000EBD3705EEA430E08BF20EAD37070BDF4
:1014F00094F0000F0FD101F00046400041EB0101D4
:1015000011F4801F08BF013CF7D041EA060195F0B5
:10151000000F18BF704703F00046520043EB03036F
:1015200013F4801F08BF013DF7D043EA060370475C
:1015300094EA0C0F0CEA135518BF95EA0C0F0CD067
:1015400050EA410618BF52EA4306D1D181EA0301AD
:1015500001F000414FF0000070BD50EA410606BFA7
:101560001046194652EA430619D094EA0C0F02D1EC
:1015700050EA013613D195EA0C0F05D152EA033631
:101580001CBF104619460AD181EA030101F000414F
:1015900041F0FE4141F470014FF0000070BD41F098
:1015A000FE4141F4780170BD70B54FF0FF0C4CF472
:1015B000E06C1CEA11541DBF1CEA135594EA0C0F91
:1015C00095EA0C0F00F0A7F8A4EB050481EA030EDE
:1015D00052EA03354FEA013100F088804FEA0333C5
:1015E0004FF0805545EA131343EA12634FEA022293
:1015F00045EA111545EA10654FEA00260EF0004154
:101600009D4208BF964244F1FD0404F5407402D2A5
:101610005B084FEA3202B61A65EB03055B084FEA36
:1016200032024FF480104FF4002CB6EB020E75EB33
:10163000030E22BFB61A754640EA0C005B084FEA5B
:101640003202B6EB020E75EB030E22BFB61A7546D8
:1016500040EA5C005B084FEA3202B6EB020E75EB23
:10166000030E22BFB61A754640EA9C005B084FEA9B
:101670003202B6EB020E75EB030E22BFB61A7546A8
:1016800040EADC0055EA060E18D04FEA051545EA97
:1016900016754FEA06164FEAC30343EA52734FEA40
:1016A000C2025FEA1C1CC0D111F4801F0BD141EAB9
:1016B00000014FF000004FF0004CB6E711F4801F1E
:1016C00004BF01430020B4F1FD0C88BFBCF5E06FFE
:1016D0003FF6AFAEB5EB030C04BFB6EB020C5FEA0E
:1016E000500C50F1000041EB045170BD0EF0004E63
:1016F0004EEA113114EB5C04C2BFD4EB0C0541EA95
:10170000045170BD41F480114FF0000E013C90E691
:1017100045EA060E8DE60CEA135594EA0C0F08BF55
:1017200095EA0C0F3FF43BAF94EA0C0F0AD150EA54
:1017300001347FF434AF95EA0C0F7FF425AF1046E7
:1017400019462CE795EA0C0F06D152EA03353FF40F
:10175000FDAE1046194622E750EA410618BF52EA8C
:1017600043067FF4C5AE50EA41047FF40DAF52EA60
:1017700043057FF4EBAE12E74A0011D212F50012D6
:1017800011D20DD56FF47873B3EB62520ED44FEAD9
:10179000C12343F0004343EA505323FA02F0704759
:1017A0004FF00000704750EA013002D14FF0FF3097
:1017B00070474FF00000704780F0004002E000BF2B
:1017C00081F0004142001FBF5FEA410392EA030F2C
:1017D0007FEA226C7FEA236C6AD04FEA1262D2EB76
:1017E0001363C1BFD218414048404140B8BF5B427B
:1017F000192B88BF704710F0004F40F4000020F014
:101800007F4018BF404211F0004F41F4000121F029
:101810007F4118BF494292EA030F3FD0A2F1010273
:1018200041FA03FC10EB0C00C3F1200301FA03F1B1
:1018300000F0004302D5494260EB4000B0F5000FD4
:1018400013D3B0F1807F06D340084FEA310102F193
:101850000102FE2A51D2B1F1004F40EBC25008BF45
:1018600020F0010040EA03007047490040EB00000F
:1018700010F4000FA2F10102EDD1B0FA80FCACF13E
:10188000080CB2EB0C0200FA0CF0AABF00EBC2503D
:1018900052421843BCBFD0401843704792F0000F2B
:1018A00081F4000106BF80F400000132013BB5E77E
:1018B0004FEA41037FEA226C18BF7FEA236C21D0F4
:1018C00092EA030F04D092F0000F08BF0846704759
:1018D00090EA010F1CBF0020704712F07F4F04D127
:1018E000400028BF40F00040704712F100723CBF3A
:1018F00000F50000704700F0004343F0FE4040F464
:10190000000070477FEA226216BF08467FEA236321
:101910000146420206BF5FEA412390EA010F40F40C
:10192000800070474FF0000304E000BF10F0004358
:1019300048BF40425FEA000C08BF704743F096433F
:1019400001464FF000001CE050EA010208BF70475A
:101950004FF000030AE000BF50EA010208BF7047E1
:1019600011F0004302D5404261EB41015FEA010CF6
:1019700002BF84460146002043F0B64308BFA3F1EE
:101980008053A3F50003BCFA8CF2083AA3EBC253D0
:1019900010DB01FA02FC634400FA02FCC2F12002EF
:1019A000BCF1004F20FA02F243EB020008BF20F026
:1019B0000100704702F1200201FA02FCC2F120028C
:1019C00050EA4C0021FA02F243EB020008BF20EA81
:1019D000DC7070474FF0FF0C1CEAD0521EBF1CEAAF
:1019E000D15392EA0C0F93EA0C0F6FD01A4480EA9D
:1019F000010C400218BF5FEA41211ED04FF0006386
:101A000043EA501043EA5111A0FB01310CF00040B1
:101A1000B1F5000F3EBF490041EAD3715B0040EAD7
:101A2000010062F17F02FD2A1DD8B3F1004F40EBA7
:101A3000C25008BF20F00100704790F0000F0CF07A
:101A4000004C08BF49024CEA502040EA51207F3A3E
:101A5000C2BFD2F1FF0340EAC250704740F4000019
:101A60004FF00003013A5DDC12F1190FDCBF00F00A
:101A700000407047C2F10002410021FA02F1C2F1B8
:101A8000200200FA02FC5FEA310040F1000053EA54
:101A90004C0308BF20EADC70704792F0000F00F0A2
:101AA000004C02BF400010F4000F013AF9D040EAA8
:101AB0000C0093F0000F01F0004C02BF490011F43C
:101AC000000F013BF9D041EA0C018FE70CEAD1533A
:101AD00092EA0C0F18BF93EA0C0F0AD030F0004CBA
:101AE00018BF31F0004CD8D180EA010000F000406E
:101AF000704790F0000F17BF90F0004F084691F02C
:101B0000000F91F0004F14D092EA0C0F01D1420265
:101B10000FD193EA0C0F03D14B0218BF084608D12E
:101B200080EA010000F0004040F0FE4040F4000078
:101B3000704740F0FE4040F4400070474FF0FF0C0B
:101B40001CEAD0521EBF1CEAD15392EA0C0F93EA52
:101B50000C0F69D0A2EB030280EA010C49024FEAA4
:101B6000402037D04FF0805343EA111143EA10135D
:101B70000CF000408B4238BF5B0042F17D024FF415
:101B8000000C8B4224BF5B1A40EA0C00B3EB510FF0
:101B900024BFA3EB510340EA5C00B3EB910F24BFD9
:101BA000A3EB910340EA9C00B3EBD10F24BFA3EB5E
:101BB000D10340EADC001B0118BF5FEA1C1CE0D126
:101BC000FD2A3FF650AF8B4240EBC25008BF20F0D9
:101BD000010070470CF0004C4CEA50207F32C2BF2D
:101BE000D2F1FF0340EAC250704740F400004FF0CA
:101BF0000003013A37E792F0000F00F0004C02BFFB
:101C0000400010F4000F013AF9D040EA0C0093F0C4
:101C1000000F01F0004C02BF490011F4000F013B1E
:101C2000F9D041EA0C0195E70CEAD15392EA0C0F86
:101C300008D142027FF47DAF93EA0C0F7FF470AFBE
:101C4000084676E793EA0C0F04D14B023FF44CAF01
:101C500008466EE730F0004C18BF31F0004CCAD196
:101C600030F000427FF45CAF31F000437FF43CAFD2
:101C70005FE700BF4FF0FF3C06E000BF4FF0010CF4
:101C800002E000BF4FF0010C4DF804CD4FEA4002D6
:101C90004FEA41037FEA226C18BF7FEA236C11D020
:101CA00001B052EA530C18BF90EA010F58BFB2EBD3
:101CB000030088BFC81738BF6FEAE17018BF40F053
:101CC000010070477FEA226C02D15FEA402C05D107
:101CD0007FEA236CE4D15FEA412CE1D05DF8040B8C
:101CE000704700BF844608466146FFE70FB5FFF71F
:101CF000C9FF002848BF10F1000F0FBD4DF808EDD7
:101D0000FFF7F4FF0CBF012000205DF808FB00BFC7
:101D10004DF808EDFFF7EAFF34BF012000205DF821
:101D200008FB00BF4DF808EDFFF7E0FF94BF01206E
:101D300000205DF808FB00BF4DF808EDFFF7D2FF6B
:101D400094BF012000205DF808FB00BF4DF808EDAE
:101D5000FFF7C8FF34BF012000205DF808FB00BF7B
:101D60004FEA4002B2F1FE4F0FD34FF09E03B3EBA8
:101D700012620DD94FEA002343F0004310F0004FE8
:101D800023FA02F018BF404270474FF0000070473E
:101D900012F1610F01D1420205D110F0004008BFDD
:101DA0006FF0004070474FF00000704770B50F4E65
:101DB0000F4D761BB61018BF002405D0013455F81E
:101DC000043B9847A642F9D10A4E0B4D00F0DCF8CF
:101DD000761BB61018BF002406D0013455F8043B1A
:101DE0009847A642F9D170BD70BD00BF941F08008E
:101DF000941F08009C1F0800941F0800024B13B199
:101E0000024800F005B87047000000001D1E0800E1
:101E1000002301461A46184600F01EB838B50A4C91
:101E20000A4D641BA4100AD004F18043013B05EB6A
:101E30008305013C55F804399847002CF9D1BDE8D9
:101E4000384000F0ABB800BFAC1F0800A81F080066
:101E5000704700BF704700BF2DE9F8432C4D064680
:101E6000286898460F469146FFF7F2FF294B1C68F9
:101E7000D4F84831002B3ED05A681F2A1CDC02F1EE
:101E8000010E76B1012103EB8204C4F88890D3F8E7
:101E9000880191400843022EC3F88801C4F80881E4
:101EA00023D00232C3F804E0286843F82270FFF719
:101EB000D1FF0020BDE8F883174B0BB34FF4C87077
:101EC000AFF300800346D8B10020D4F848114FF09A
:101ED000010E586019600246C4F84831C3F8880101
:101EE000C3F88C01002EDCD0CCE7D3F88C01014381
:101EF000C3F88C11D5E704F5A673C4F84831BBE7E5
:101F00002868FFF7A7FF4FF0FF30BDE8F88300BF58
:101F100030040020841F08000000000043414E30C0
:101F2000206D65737361676520617272697665649F
:101F300020696E206E6F6E2D75736564206D61690A
:101F40006C626F780A0D000057656C636F6D6520D9
:101F5000507554545927730A0D000000286E756C93
:101F60006C2900004552523A205541525420525893
:101F7000206275666665722069732066756C6C0AEE
:101F80000D00000008000020F8B500BFF8BC08BC38
:101F90009E467047FD1D080019010800F8B500BFF6
:0C1FA000F8BC08BC9E467047F500080025
:101FAC0000093D000000000000000000F4020020C9
:101FBC005C030020C40300200000000000000000AF
:101FCC000000000000000000000000000000000005
:101FDC0000000000000000000000000000000000F5
:101FEC0000000000000000000000000000000000E5
:101FFC0000000000000000000000000000000000D5
:10200C0000000000000000000000000000000000C4
:10201C0000000000000000000000000000000000B4
:10202C0000000000000000000000000000000000A4
:10203C000000000000000000000000000000000094
:10204C000000000000000000000000000000000084
:10205C0001000000000000000E33CDAB34126DE621
:10206C00ECDE05000B00000000000000000000008A
:10207C000000000000000000000000000000000054
:10208C000000000000000000000000000000000044
:10209C000000000000000000000000000000000034
:1020AC000000000000000000000000000000000024
:0423DC00D004002009
:040000038000000079
:00000001FF
