S00E00004E6F64655F322E73726563FF
S214080000C8080020710308006D0308006D03080087
S2140800106D0308006D0308006D030800000000006B
S2140800200000000000000000000000006D0308004B
S2140800306D030800000000006D0308006D0308004B
S2140800406D0308006D0308006D0308006D030800C3
S2140800506D0308006D0308006D0308006D030800B3
S2140800605D0908006D030800000000006D03080025
S2140800706D0308006D0308006D030800000000000B
S214080080000000006D0308006D0308006D030800FB
S2140800906D0308006D0308006D0308006D03080073
S2140800A06D030800000000006D0308006D030800DB
S2140800B06D0308006D0308006D0308006D03080053
S2140800C06D0308006D0308006D0308006D03080043
S2140800D06D0308006D0308006D0308006D03080033
S2140800E06D0308006D0308006D030800E5020800AC
S2140800F06D03080010B5054C237833B9044B13B1CB
S2140801000448AFF300800123237010BD3404002098
S21408011000000000C40B08000C4B43B10C4810B597
S2140801200C49AFF300800C48036823B910BD0A4891
S214080130036833B97047094B002BF7D0BDE8104069
S2140801401847064B002BF5D0184700BF00000000E4
S214080150C40B080038040020C40B08000000000088
S2140801602DE9F0435518082998BF082A64D80E4682
S214080170082D61DC324A136823F001031360136903
S214080180304B4FF440745C641C6F24F003041C6707
S21408019003245C605C66A3F500632B4CC3F80C4133
S2140801A0D3F8004144F40064C3F800415061A94202
S2140801B040DC0A460024A146DFF884804FF0005C45
S2140801C04FF0807E0127530103F1402000F53020D0
S2140801D0C0F804924344C3F808C2C0F800E2D3F853
S2140801E01C0240F40000C3F81C0207FA02F31C4382
S2140801F001329542E7DA81B1002311494FF00055E4
S2140802004FF0407001EB4312C2F8085203F1100297
S2140802105201885001339E42F4D1094B5C604FF47A
S21408022000610A4A51601A6842F001021A6000200A
S214080230BDE8F0830024DEE70120BDE8F08300BFB8
S21408024000400B40000E0E402B10001000E100E0AE
S21408025008B502220121014B984708BD6101080034
S2140802604B0103F1402303F53023D3F8103213F47F
S214080270000F33D030B44B0103F1402303F530238D
S214080280D3F81422D3F81842D3F80852C5F38A458F
S2140802900580D3F81032C3F3034383701D465BB161
S2140802A003300023032BD9BF0270120A0470240AF5
S2140802B001330130AB42F5D1094B01F1100252016E
S2140802C04FF08070985003EB4111D1F81C3243F47C
S2140802D00003C1F81C32002030BC7047012070476C
S2140802E000400B4010B584B01A4B1C6914F0060F7A
S2140802F014D014F0020F1ED114F0040F20D00221DF
S21408030001A8154B9847BDF80430022B1CD09DF861
S21408031006201AB1002301339342FCD114F0010FD2
S21408032002D001220B4B9A604FF400620B4BC3F8C5
S214080330842104B010BD012101A8074B9847E2E7C5
S2140803400748084B9847DEE79DF80800064B98478D
S214080350DDE700BF00400B406102080000E100E056
S214080360340B0800AD080800C1050800FEE70000C9
S21408037008B5184B184A9A4210D0184B154A9A4294
S2140803800CD2013B9B1A23F003030433134412498F
S21408039051F8040B42F8040B9A42F9D1104B114A53
S2140803A09A420AD2013B9B1A23F0030304331344F0
S2140803B0002142F8041B9342FBD10B4B23F0604309
S2140803C023F07F03094A9360094B9847094B9847DF
S2140803D0FEE700BF00000020C40B0800340400201D
S2140803E0C4040020340400200000080000ED00E0EB
S2140803F0C5090800E50408004FF48063204A136026
S21408040002F5007213601F4B1B6A13F0807F07D13A
S2140804101D4A1C4B1A621A46936E13F0010FFBD046
S2140804201A4A184B1A621A46936E13F4803FFBD08A
S214080430144A136B23F0030343F001031363936E0C
S21408044013F0080FFBD0124A0E4B9A621A46936EA8
S21408045013F0020FFBD011220A4B1A631A46936E4A
S21408046013F0080FFBD01222064B1A631A46936E37
S21408047013F0080FFBD0074A074B1A60704700BFF7
S214080480000A0E4000060E40090837000908370122
S214080490013F0D2000BD0105000000200F4AD2F8DC
S2140804A0E43023F00103C2F8E430A2F54062136991
S2140804B043F4006313610A4B1A6842F400221A6078
S2140804C01A6942F400221A611A6842F480121A6005
S2140804D01A6942F480121A61704700BF00120E4073
S2140804E0000E0E4008B5104B98474FF400420F4BCD
S2140804F05A600F4B98470F480F4B98470F4B984733
S2140805000F4B98470F48104B9847104B1A6B42F4FE
S21408051000221A630E4A012111809170D1701A6B5D
S21408052042F480121A63FEE7F9030800501A0E40D8
S214080530D108080061052900510208009D0408003A
S21408054055050800600B0800AD080800000E0E40B0
S21408055050040020174B4FF4E0621A60D3F80021CD
S21408056042F01002C3F8002103F540631A6942F40A
S21408057000221A615A6842F400225A601A6F42F43E
S21408058000221A670C4AD2F8E43023F00103C2F8B6
S214080590E43040F20A22094B1A604FF4CD620C335D
S2140805A01A607B22083B1A602022A3F528731A607B
S2140805B0704700BF00060E4000400940A0420940B0
S2140805C0622303FB00F0054B83FB00230344C0179C
S2140805D0C0EBE3104A30024B186070478180808079
S2140805E0A44209402DE9F8430D46161E48DD0A7850
S2140805F0002A35D00A460024013412F8011F0029C3
S214080600FAD1A6422DDC002403F00202002A0CBF11
S2140806104FF020084FF0300813F0010323D1002CC8
S21408062028DD26465FFA88F9184F4846B847013E3F
S214080630FBD1287888B1154FB847013415F8010F53
S2140806400028F9D1002E08DD35465FFA88F80F4FE6
S2140806504046B847013DFBD134442046BDE8F88300
S2140806600024341BD0E72646287808B10024E2E7A1
S2140806700024E7E726461C46DBE74FF02008D8E7C5
S21408068013F00104F9D04FF02008EDE73909080007
S214080690F0B585B0074681B30C460BB10A2A38D0A8
S2140806A000238DF80F300026002946D00DF10F05DF
S2140806B00C993A39B4FBF2F302FB1343092BC8BF73
S2140806C05B18303305F8013DB4FBF2F4002CF1D189
S2140806D056B10A9B1BB10B9B13F0020F25D12D2395
S2140806E005F8013C013D00260B9B0A9A2946384628
S2140806F0144CA047304405B0F0BD30238DF80430C4
S21408070000238DF805300B9B0A9A01A90D4CA047CB
S214080710F1E70029C4DA4C4200238DF80F300DF1BA
S2140807200F05002CD5D00126C0E72D20064B98478C
S2140807300A9B013B0A930126D6E71E460DF10F05D4
S214080740D2E700BFE5050800390908002DE9F04F93
S21408075087B080460B78002B00F094808B461746AF
S21408076000254E4EDFF83CA1DFF83C9146E000221B
S21408077070E0396804374A48002908BF01464046F1
S214080780D047054435E03968043761200290019364
S214080790009201230A224046C847054429E03968E2
S2140807A004376120029001930092002310224046ED
S2140807B0C84705441DE03968043741200290019374
S2140807C00092002310224046C847054411E03968C5
S2140807D00437612002900193009200230A224046C3
S2140807E0C847054405E0A3469BF80000B047013516
S2140807F05C4604F1010B6378002B44D0252BF3D11B
S2140808000BF101049BF80130002B3CD0252BEAD0D5
S2140808102D2B06BF0BF10204012300232278302A71
S21408082005D143F0020314F8012F302AF9D02178B5
S214080830A1F13002D2B2092A99D8002202EB82022C
S214080840303901EB420214F8011FA1F13000C0B2A2
S2140808500928F3D973298CD0642994D078299ED096
S2140808605829A8D07529B2D06329C2D13968043767
S2140808708DF8141000218DF8151005A94046D047AC
S2140808800544B6E70025B8F1000F03D0D8F80030C5
S21408089000221A70284607B0BDE8F08F390908000C
S2140808A0740B0800E5050800910608000FB400B5AB
S2140808B083B004AA52F8041B01920020034B984701
S2140808C003B05DF804EB04B0704700BF4D0708009E
S2140808D0164B00221A705A70154B4FF44071596423
S2140808E059601A6F186F024022F440721A675966E8
S2140808F04FF48072A3F500631A6103F50073AC2108
S214080900196040F2232119624FF40061596040F2E1
S2140809100221C3F820114FF0FF31D960E121996018
S21408092004490A6050221A60704700BF5C04002021
S214080930000E0E4000E100E0074B5B6913F0020F63
S21408094008D0054BD8611A46536913F4007FFBD0CC
S214080950002070470120704700080E4008B5154B68
S2140809605B6913F0E00F03D04FF4A871114A1160C9
S21408097013F0010F12D010484278531C594203F066
S2140809803F0301F03F0158BF4B4201788B4206D027
S2140809900849886908490A4490704B7008BD07489A
S2140809A0074B9847034B9A69034B59780B449A7040
S2140809B008BD00BF00080E405C0400207C0B080041
S2140809C0AD08080070B50F4E0F4D761BB61018BF51
S2140809D0002405D0013455F8043B9847A642F9D1BF
S2140809E00A4E0B4D00F0DCF8761BB61018BF002434
S2140809F006D0013455F8043B9847A642F9D170BD95
S214080A0070BD00BFAC0B0800AC0B0800B40B0800A8
S214080A10AC0B0800024B13B1024800F005B870474B
S214080A2000000000350A0800002301461A4618464A
S214080A3000F01EB838B50A4C0A4D641BA4100AD03C
S214080A4004F18043013B05EB8305013C55F8043966
S214080A509847002CF9D1BDE8384000F0ABB800BF85
S214080A60C40B0800C00B0800704700BF704700BFE3
S214080A702DE9F8432C4D0646286898460F469146B9
S214080A80FFF7F2FF294B1C68D4F84831002B3ED0FC
S214080A905A681F2A1CDC02F1010E76B1012103EB0D
S214080AA08204C4F88890D3F8880191400843022E3F
S214080AB0C3F88801C4F8088123D00232C3F804E0DA
S214080AC0286843F82270FFF7D1FF0020BDE8F883B6
S214080AD0174B0BB34FF4C870AFF300800346D8B17A
S214080AE00020D4F848114FF0010E586019600246ED
S214080AF0C4F84831C3F88801C3F88C01002EDCD04E
S214080B00CCE7D3F88C010143C3F88C11D5E704F57C
S214080B10A673C4F84831BBE72868FFF7A7FF4FF06D
S214080B20FF30BDE8F88300BF300400209C0B0800A7
S214080B300000000043414E30206D657373616765A1
S214080B40206172726976656420696E206E6F6E2DFC
S214080B5075736564206D61696C626F780A0D0000B4
S214080B6057656C636F6D6520507554545927730A22
S214080B700D000000286E756C6C2900004552523A2C
S214080B802055415254205258206275666665722078
S214080B9069732066756C6C0A0D000000080000205A
S214080BA0F8B500BFF8BC08BC9E467047150A080092
S214080BB019010800F8B500BFF8BC08BC9E46704787
S208080BC0F500080027
S214080BC400093D000000000000000000F4020020B8
S214080BD45C030020C403002000000000000000009E
S214080BE400000000000000000000000000000000F4
S214080BF400000000000000000000000000000000E4
S214080C0400000000000000000000000000000000D3
S214080C1400000000000000000000000000000000C3
S214080C2400000000000000000000000000000000B3
S214080C3400000000000000000000000000000000A3
S214080C440000000000000000000000000000000093
S214080C540000000000000000000000000000000083
S214080C640000000000000000000000000000000073
S214080C7401000000000000000E33CDAB34126DE610
S214080C84ECDE05000B000000000000000000000079
S214080C940000000000000000000000000000000043
S214080CA40000000000000000000000000000000033
S214080CB40000000000000000000000000000000023
S214080CC40000000000000000000000000000000013
S208080FF4A004002028
S804080000F3
